{
  "contractName": "MyToken",
  "abi": [
    {
      "inputs": [],
      "stateMutability": "nonpayable",
      "type": "constructor"
    },
    {
      "anonymous": false,
      "inputs": [
        {
          "indexed": false,
          "internalType": "address",
          "name": "tokenAdmin",
          "type": "address"
        },
        {
          "indexed": false,
          "internalType": "uint256",
          "name": "tokenID",
          "type": "uint256"
        },
        {
          "indexed": false,
          "internalType": "uint256",
          "name": "amount",
          "type": "uint256"
        },
        {
          "indexed": false,
          "internalType": "uint256",
          "name": "rate",
          "type": "uint256"
        }
      ],
      "name": "AddNewToken",
      "type": "event"
    },
    {
      "anonymous": false,
      "inputs": [
        {
          "indexed": true,
          "internalType": "address",
          "name": "account",
          "type": "address"
        },
        {
          "indexed": true,
          "internalType": "address",
          "name": "operator",
          "type": "address"
        },
        {
          "indexed": false,
          "internalType": "bool",
          "name": "approved",
          "type": "bool"
        }
      ],
      "name": "ApprovalForAll",
      "type": "event"
    },
    {
      "anonymous": false,
      "inputs": [
        {
          "indexed": false,
          "internalType": "uint256",
          "name": "tokenID",
          "type": "uint256"
        },
        {
          "indexed": false,
          "internalType": "string",
          "name": "productId",
          "type": "string"
        },
        {
          "indexed": false,
          "internalType": "uint256",
          "name": "amount",
          "type": "uint256"
        },
        {
          "indexed": false,
          "internalType": "string",
          "name": "deliveryAddress",
          "type": "string"
        },
        {
          "indexed": false,
          "internalType": "string",
          "name": "mobileNumber",
          "type": "string"
        },
        {
          "indexed": false,
          "internalType": "string",
          "name": "email",
          "type": "string"
        },
        {
          "indexed": false,
          "internalType": "string",
          "name": "name",
          "type": "string"
        }
      ],
      "name": "BuyProduct",
      "type": "event"
    },
    {
      "anonymous": false,
      "inputs": [
        {
          "indexed": false,
          "internalType": "address",
          "name": "tokenAdmin",
          "type": "address"
        },
        {
          "indexed": false,
          "internalType": "address",
          "name": "buyer",
          "type": "address"
        },
        {
          "indexed": false,
          "internalType": "uint256",
          "name": "tokenID",
          "type": "uint256"
        },
        {
          "indexed": false,
          "internalType": "uint256",
          "name": "amount",
          "type": "uint256"
        },
        {
          "indexed": false,
          "internalType": "bytes",
          "name": "data",
          "type": "bytes"
        }
      ],
      "name": "BuyToken",
      "type": "event"
    },
    {
      "anonymous": false,
      "inputs": [
        {
          "indexed": false,
          "internalType": "address",
          "name": "tokenAdmin",
          "type": "address"
        },
        {
          "indexed": false,
          "internalType": "uint256",
          "name": "tokenID",
          "type": "uint256"
        },
        {
          "components": [
            {
              "internalType": "string",
              "name": "question",
              "type": "string"
            },
            {
              "internalType": "string[]",
              "name": "options",
              "type": "string[]"
            },
            {
              "internalType": "uint256[]",
              "name": "votes",
              "type": "uint256[]"
            }
          ],
          "indexed": false,
          "internalType": "struct MyToken.Poll[]",
          "name": "polls",
          "type": "tuple[]"
        }
      ],
      "name": "CreatePoll",
      "type": "event"
    },
    {
      "anonymous": false,
      "inputs": [
        {
          "indexed": false,
          "internalType": "address",
          "name": "tokenAdmin",
          "type": "address"
        },
        {
          "indexed": false,
          "internalType": "address",
          "name": "holder",
          "type": "address"
        },
        {
          "indexed": false,
          "internalType": "uint256",
          "name": "tokenID",
          "type": "uint256"
        },
        {
          "indexed": false,
          "internalType": "bool",
          "name": "success",
          "type": "bool"
        },
        {
          "indexed": false,
          "internalType": "bytes",
          "name": "data",
          "type": "bytes"
        },
        {
          "indexed": false,
          "internalType": "uint256",
          "name": "amount",
          "type": "uint256"
        }
      ],
      "name": "Disburse",
      "type": "event"
    },
    {
      "anonymous": false,
      "inputs": [
        {
          "indexed": true,
          "internalType": "bytes32",
          "name": "role",
          "type": "bytes32"
        },
        {
          "indexed": true,
          "internalType": "bytes32",
          "name": "previousAdminRole",
          "type": "bytes32"
        },
        {
          "indexed": true,
          "internalType": "bytes32",
          "name": "newAdminRole",
          "type": "bytes32"
        }
      ],
      "name": "RoleAdminChanged",
      "type": "event"
    },
    {
      "anonymous": false,
      "inputs": [
        {
          "indexed": true,
          "internalType": "bytes32",
          "name": "role",
          "type": "bytes32"
        },
        {
          "indexed": true,
          "internalType": "address",
          "name": "account",
          "type": "address"
        },
        {
          "indexed": true,
          "internalType": "address",
          "name": "sender",
          "type": "address"
        }
      ],
      "name": "RoleGranted",
      "type": "event"
    },
    {
      "anonymous": false,
      "inputs": [
        {
          "indexed": true,
          "internalType": "bytes32",
          "name": "role",
          "type": "bytes32"
        },
        {
          "indexed": true,
          "internalType": "address",
          "name": "account",
          "type": "address"
        },
        {
          "indexed": true,
          "internalType": "address",
          "name": "sender",
          "type": "address"
        }
      ],
      "name": "RoleRevoked",
      "type": "event"
    },
    {
      "anonymous": false,
      "inputs": [
        {
          "indexed": true,
          "internalType": "address",
          "name": "operator",
          "type": "address"
        },
        {
          "indexed": true,
          "internalType": "address",
          "name": "from",
          "type": "address"
        },
        {
          "indexed": true,
          "internalType": "address",
          "name": "to",
          "type": "address"
        },
        {
          "indexed": false,
          "internalType": "uint256[]",
          "name": "ids",
          "type": "uint256[]"
        },
        {
          "indexed": false,
          "internalType": "uint256[]",
          "name": "values",
          "type": "uint256[]"
        }
      ],
      "name": "TransferBatch",
      "type": "event"
    },
    {
      "anonymous": false,
      "inputs": [
        {
          "indexed": true,
          "internalType": "address",
          "name": "operator",
          "type": "address"
        },
        {
          "indexed": true,
          "internalType": "address",
          "name": "from",
          "type": "address"
        },
        {
          "indexed": true,
          "internalType": "address",
          "name": "to",
          "type": "address"
        },
        {
          "indexed": false,
          "internalType": "uint256",
          "name": "id",
          "type": "uint256"
        },
        {
          "indexed": false,
          "internalType": "uint256",
          "name": "value",
          "type": "uint256"
        }
      ],
      "name": "TransferSingle",
      "type": "event"
    },
    {
      "anonymous": false,
      "inputs": [
        {
          "indexed": false,
          "internalType": "string",
          "name": "value",
          "type": "string"
        },
        {
          "indexed": true,
          "internalType": "uint256",
          "name": "id",
          "type": "uint256"
        }
      ],
      "name": "URI",
      "type": "event"
    },
    {
      "anonymous": false,
      "inputs": [
        {
          "indexed": false,
          "internalType": "address",
          "name": "Voter",
          "type": "address"
        },
        {
          "indexed": false,
          "internalType": "uint256",
          "name": "tokenID",
          "type": "uint256"
        },
        {
          "indexed": false,
          "internalType": "uint256",
          "name": "pollID",
          "type": "uint256"
        },
        {
          "indexed": false,
          "internalType": "uint256",
          "name": "weight",
          "type": "uint256"
        }
      ],
      "name": "Vote",
      "type": "event"
    },
    {
      "inputs": [],
      "name": "DEFAULT_ADMIN_ROLE",
      "outputs": [
        {
          "internalType": "bytes32",
          "name": "",
          "type": "bytes32"
        }
      ],
      "stateMutability": "view",
      "type": "function"
    },
    {
      "inputs": [],
      "name": "URI_SETTER_ROLE",
      "outputs": [
        {
          "internalType": "bytes32",
          "name": "",
          "type": "bytes32"
        }
      ],
      "stateMutability": "view",
      "type": "function"
    },
    {
      "inputs": [
        {
          "internalType": "address",
          "name": "account",
          "type": "address"
        },
        {
          "internalType": "uint256",
          "name": "id",
          "type": "uint256"
        }
      ],
      "name": "balanceOf",
      "outputs": [
        {
          "internalType": "uint256",
          "name": "",
          "type": "uint256"
        }
      ],
      "stateMutability": "view",
      "type": "function"
    },
    {
      "inputs": [
        {
          "internalType": "address[]",
          "name": "accounts",
          "type": "address[]"
        },
        {
          "internalType": "uint256[]",
          "name": "ids",
          "type": "uint256[]"
        }
      ],
      "name": "balanceOfBatch",
      "outputs": [
        {
          "internalType": "uint256[]",
          "name": "",
          "type": "uint256[]"
        }
      ],
      "stateMutability": "view",
      "type": "function"
    },
    {
      "inputs": [
        {
          "internalType": "uint256",
          "name": "id",
          "type": "uint256"
        }
      ],
      "name": "exists",
      "outputs": [
        {
          "internalType": "bool",
          "name": "",
          "type": "bool"
        }
      ],
      "stateMutability": "view",
      "type": "function"
    },
    {
      "inputs": [
        {
          "internalType": "bytes32",
          "name": "role",
          "type": "bytes32"
        }
      ],
      "name": "getRoleAdmin",
      "outputs": [
        {
          "internalType": "bytes32",
          "name": "",
          "type": "bytes32"
        }
      ],
      "stateMutability": "view",
      "type": "function"
    },
    {
      "inputs": [
        {
          "internalType": "bytes32",
          "name": "role",
          "type": "bytes32"
        },
        {
          "internalType": "address",
          "name": "account",
          "type": "address"
        }
      ],
      "name": "grantRole",
      "outputs": [],
      "stateMutability": "nonpayable",
      "type": "function"
    },
    {
      "inputs": [
        {
          "internalType": "bytes32",
          "name": "role",
          "type": "bytes32"
        },
        {
          "internalType": "address",
          "name": "account",
          "type": "address"
        }
      ],
      "name": "hasRole",
      "outputs": [
        {
          "internalType": "bool",
          "name": "",
          "type": "bool"
        }
      ],
      "stateMutability": "view",
      "type": "function"
    },
    {
      "inputs": [
        {
          "internalType": "address",
          "name": "account",
          "type": "address"
        },
        {
          "internalType": "address",
          "name": "operator",
          "type": "address"
        }
      ],
      "name": "isApprovedForAll",
      "outputs": [
        {
          "internalType": "bool",
          "name": "",
          "type": "bool"
        }
      ],
      "stateMutability": "view",
      "type": "function"
    },
    {
      "inputs": [
        {
          "internalType": "bytes32",
          "name": "role",
          "type": "bytes32"
        },
        {
          "internalType": "address",
          "name": "account",
          "type": "address"
        }
      ],
      "name": "renounceRole",
      "outputs": [],
      "stateMutability": "nonpayable",
      "type": "function"
    },
    {
      "inputs": [
        {
          "internalType": "bytes32",
          "name": "role",
          "type": "bytes32"
        },
        {
          "internalType": "address",
          "name": "account",
          "type": "address"
        }
      ],
      "name": "revokeRole",
      "outputs": [],
      "stateMutability": "nonpayable",
      "type": "function"
    },
    {
      "inputs": [
        {
          "internalType": "address",
          "name": "from",
          "type": "address"
        },
        {
          "internalType": "address",
          "name": "to",
          "type": "address"
        },
        {
          "internalType": "uint256[]",
          "name": "ids",
          "type": "uint256[]"
        },
        {
          "internalType": "uint256[]",
          "name": "amounts",
          "type": "uint256[]"
        },
        {
          "internalType": "bytes",
          "name": "data",
          "type": "bytes"
        }
      ],
      "name": "safeBatchTransferFrom",
      "outputs": [],
      "stateMutability": "nonpayable",
      "type": "function"
    },
    {
      "inputs": [
        {
          "internalType": "address",
          "name": "from",
          "type": "address"
        },
        {
          "internalType": "address",
          "name": "to",
          "type": "address"
        },
        {
          "internalType": "uint256",
          "name": "id",
          "type": "uint256"
        },
        {
          "internalType": "uint256",
          "name": "amount",
          "type": "uint256"
        },
        {
          "internalType": "bytes",
          "name": "data",
          "type": "bytes"
        }
      ],
      "name": "safeTransferFrom",
      "outputs": [],
      "stateMutability": "nonpayable",
      "type": "function"
    },
    {
      "inputs": [
        {
          "internalType": "address",
          "name": "operator",
          "type": "address"
        },
        {
          "internalType": "bool",
          "name": "approved",
          "type": "bool"
        }
      ],
      "name": "setApprovalForAll",
      "outputs": [],
      "stateMutability": "nonpayable",
      "type": "function"
    },
    {
      "inputs": [
        {
          "internalType": "uint256",
          "name": "id",
          "type": "uint256"
        }
      ],
      "name": "totalSupply",
      "outputs": [
        {
          "internalType": "uint256",
          "name": "",
          "type": "uint256"
        }
      ],
      "stateMutability": "view",
      "type": "function"
    },
    {
      "inputs": [
        {
          "internalType": "uint256",
          "name": "",
          "type": "uint256"
        }
      ],
      "name": "uri",
      "outputs": [
        {
          "internalType": "string",
          "name": "",
          "type": "string"
        }
      ],
      "stateMutability": "view",
      "type": "function"
    },
    {
      "inputs": [
        {
          "internalType": "string",
          "name": "newuri",
          "type": "string"
        }
      ],
      "name": "setURI",
      "outputs": [],
      "stateMutability": "nonpayable",
      "type": "function"
    },
    {
      "inputs": [
        {
          "internalType": "address payable",
          "name": "tokenAdmin",
          "type": "address"
        },
        {
          "internalType": "uint256",
          "name": "amount",
          "type": "uint256"
        },
        {
          "internalType": "uint256",
          "name": "rate",
          "type": "uint256"
        }
      ],
      "name": "addNewToken",
      "outputs": [],
      "stateMutability": "nonpayable",
      "type": "function"
    },
    {
      "inputs": [
        {
          "internalType": "uint256",
          "name": "tokenID",
          "type": "uint256"
        }
      ],
      "name": "buyToken",
      "outputs": [],
      "stateMutability": "payable",
      "type": "function"
    },
    {
      "inputs": [
        {
          "internalType": "uint256",
          "name": "tokenID",
          "type": "uint256"
        },
        {
          "internalType": "string",
          "name": "productId",
          "type": "string"
        },
        {
          "internalType": "uint256",
          "name": "amount",
          "type": "uint256"
        },
        {
          "internalType": "string",
          "name": "deliveryAddress",
          "type": "string"
        },
        {
          "internalType": "string",
          "name": "mobileNumber",
          "type": "string"
        },
        {
          "internalType": "string",
          "name": "email",
          "type": "string"
        },
        {
          "internalType": "string",
          "name": "name",
          "type": "string"
        }
      ],
      "name": "buyProduct",
      "outputs": [],
      "stateMutability": "nonpayable",
      "type": "function"
    },
    {
      "inputs": [
        {
          "internalType": "uint256",
          "name": "tokenID",
          "type": "uint256"
        }
      ],
      "name": "disburse",
      "outputs": [],
      "stateMutability": "payable",
      "type": "function"
    },
    {
      "inputs": [
        {
          "internalType": "uint256",
          "name": "tokenID",
          "type": "uint256"
        },
        {
          "internalType": "string",
          "name": "question",
          "type": "string"
        },
        {
          "internalType": "string[]",
          "name": "options",
          "type": "string[]"
        }
      ],
      "name": "createPoll",
      "outputs": [],
      "stateMutability": "nonpayable",
      "type": "function"
    },
    {
      "inputs": [
        {
          "internalType": "uint256",
          "name": "tokenID",
          "type": "uint256"
        }
      ],
      "name": "getPolls",
      "outputs": [
        {
          "components": [
            {
              "internalType": "string",
              "name": "question",
              "type": "string"
            },
            {
              "internalType": "string[]",
              "name": "options",
              "type": "string[]"
            },
            {
              "internalType": "uint256[]",
              "name": "votes",
              "type": "uint256[]"
            }
          ],
          "internalType": "struct MyToken.Poll[]",
          "name": "",
          "type": "tuple[]"
        },
        {
          "internalType": "uint256[]",
          "name": "",
          "type": "uint256[]"
        },
        {
          "internalType": "uint256[]",
          "name": "",
          "type": "uint256[]"
        }
      ],
      "stateMutability": "view",
      "type": "function"
    },
    {
      "inputs": [
        {
          "internalType": "uint256",
          "name": "tokenID",
          "type": "uint256"
        },
        {
          "internalType": "uint256",
          "name": "pollID",
          "type": "uint256"
        },
        {
          "internalType": "uint256",
          "name": "option",
          "type": "uint256"
        }
      ],
      "name": "vote",
      "outputs": [],
      "stateMutability": "nonpayable",
      "type": "function"
    },
    {
      "inputs": [
        {
          "internalType": "bytes4",
          "name": "interfaceId",
          "type": "bytes4"
        }
      ],
      "name": "supportsInterface",
      "outputs": [
        {
          "internalType": "bool",
          "name": "",
          "type": "bool"
        }
      ],
      "stateMutability": "view",
      "type": "function"
    }
  ],
  "bytecode": "0x608060405260006005553480156200001657600080fd5b506040518060200160405280600081525062000038816200008660201b60201c565b506200004e6000801b33620000a260201b60201c565b620000807f7804d923f43a17d325d77e781528e0793b2edd9890ab45fc64efd7b4b427744c33620000a260201b60201c565b6200031b565b80600290805190602001906200009e92919062000207565b5050565b620000b482826200019460201b60201c565b620001905760016003600084815260200190815260200160002060000160008373ffffffffffffffffffffffffffffffffffffffff1673ffffffffffffffffffffffffffffffffffffffff16815260200190815260200160002060006101000a81548160ff02191690831515021790555062000135620001ff60201b60201c565b73ffffffffffffffffffffffffffffffffffffffff168173ffffffffffffffffffffffffffffffffffffffff16837f2f8788117e7eff1d82e926ec794901d17c78024a50270940304540a733656f0d60405160405180910390a45b5050565b60006003600084815260200190815260200160002060000160008373ffffffffffffffffffffffffffffffffffffffff1673ffffffffffffffffffffffffffffffffffffffff16815260200190815260200160002060009054906101000a900460ff16905092915050565b600033905090565b8280546200021590620002e6565b90600052602060002090601f01602090048101928262000239576000855562000285565b82601f106200025457805160ff191683800117855562000285565b8280016001018555821562000285579182015b828111156200028457825182559160200191906001019062000267565b5b50905062000294919062000298565b5090565b5b80821115620002b357600081600090555060010162000299565b5090565b7f4e487b7100000000000000000000000000000000000000000000000000000000600052602260045260246000fd5b60006002820490506001821680620002ff57607f821691505b602082108103620003155762000314620002b7565b5b50919050565b615acc806200032b6000396000f3fe6080604052600436106101655760003560e01c8063600a65df116100d1578063a22cb4651161008a578063ce2dee0511610064578063ce2dee0514610551578063d547741f14610590578063e985e9c5146105b9578063f242432a146105f657610165565b8063a22cb465146104cf578063bd77ac2c146104f8578063bd85b0391461051457610165565b8063600a65df146103c157806373f4cef3146103ea5780637f345710146104135780638a6655d61461043e57806391d1485414610467578063a217fddf146104a457610165565b80632d296bf1116101235780632d296bf1146102b05780632eb2c2d6146102cc5780632f2ff15d146102f557806336568abe1461031e5780634e1273f4146103475780634f558e791461038457610165565b8062fdd58e1461016a57806301ffc9a7146101a757806302fe5305146101e45780630c9ef9a21461020d5780630e89341c14610236578063248a9ca314610273575b600080fd5b34801561017657600080fd5b50610191600480360381019061018c9190613554565b61061f565b60405161019e91906135a3565b60405180910390f35b3480156101b357600080fd5b506101ce60048036038101906101c99190613616565b6106e7565b6040516101db919061365e565b60405180910390f35b3480156101f057600080fd5b5061020b600480360381019061020691906137bf565b6106f9565b005b34801561021957600080fd5b50610234600480360381019061022f91906138ee565b610738565b005b34801561024257600080fd5b5061025d60048036038101906102589190613979565b61097f565b60405161026a9190613a2e565b60405180910390f35b34801561027f57600080fd5b5061029a60048036038101906102959190613a86565b610a13565b6040516102a79190613ac2565b60405180910390f35b6102ca60048036038101906102c59190613979565b610a33565b005b3480156102d857600080fd5b506102f360048036038101906102ee9190613c41565b610ced565b005b34801561030157600080fd5b5061031c60048036038101906103179190613d10565b610d8e565b005b34801561032a57600080fd5b5061034560048036038101906103409190613d10565b610db7565b005b34801561035357600080fd5b5061036e60048036038101906103699190613e13565b610e3a565b60405161037b9190613f49565b60405180910390f35b34801561039057600080fd5b506103ab60048036038101906103a69190613979565b610f53565b6040516103b8919061365e565b60405180910390f35b3480156103cd57600080fd5b506103e860048036038101906103e39190613fa9565b610f67565b005b3480156103f657600080fd5b50610411600480360381019061040c9190613ffc565b6110a1565b005b34801561041f57600080fd5b50610428611204565b6040516104359190613ac2565b60405180910390f35b34801561044a57600080fd5b506104656004803603810190610460919061412a565b611228565b005b34801561047357600080fd5b5061048e60048036038101906104899190613d10565b61140f565b60405161049b919061365e565b60405180910390f35b3480156104b057600080fd5b506104b961147a565b6040516104c69190613ac2565b60405180910390f35b3480156104db57600080fd5b506104f660048036038101906104f191906141a9565b611481565b005b610512600480360381019061050d9190613979565b611497565b005b34801561052057600080fd5b5061053b60048036038101906105369190613979565b611750565b60405161054891906135a3565b60405180910390f35b34801561055d57600080fd5b5061057860048036038101906105739190613979565b61176d565b60405161058793929190614484565b60405180910390f35b34801561059c57600080fd5b506105b760048036038101906105b29190613d10565b611ba3565b005b3480156105c557600080fd5b506105e060048036038101906105db91906144d0565b611bcc565b6040516105ed919061365e565b60405180910390f35b34801561060257600080fd5b5061061d60048036038101906106189190614510565b611c60565b005b60008073ffffffffffffffffffffffffffffffffffffffff168373ffffffffffffffffffffffffffffffffffffffff160361068f576040517f08c379a000000000000000000000000000000000000000000000000000000000815260040161068690614619565b60405180910390fd5b60008083815260200190815260200160002060008473ffffffffffffffffffffffffffffffffffffffff1673ffffffffffffffffffffffffffffffffffffffff16815260200190815260200160002054905092915050565b60006106f282611d01565b9050919050565b7f7804d923f43a17d325d77e781528e0793b2edd9890ab45fc64efd7b4b427744c61072b81610726611d7b565b611d83565b61073482611e20565b5050565b823373ffffffffffffffffffffffffffffffffffffffff166006828154811061076457610763614639565b5b906000526020600020906002020160000160009054906101000a900473ffffffffffffffffffffffffffffffffffffffff1673ffffffffffffffffffffffffffffffffffffffff16146107ec576040517f08c379a00000000000000000000000000000000000000000000000000000000081526004016107e3906146b4565b60405180910390fd5b6000825167ffffffffffffffff81111561080957610808613694565b5b6040519080825280602002602001820160405280156108375781602001602082028036833780820191505090505b50905060005b835181101561087a57600082828151811061085b5761085a614639565b5b602002602001018181525050808061087290614703565b91505061083d565b5060096000868152602001908152602001600020604051806060016040528086815260200185815260200183815250908060018154018082558091505060019003906000526020600020906003020160009091909190915060008201518160000190805190602001906108ee9291906132f8565b50602082015181600101908051906020019061090b92919061337e565b5060408201518160020190805190602001906109289291906133de565b5050507f37d80bfa4cabc29501fdb25be0eb46ef12f14a245dcd8ac773935e6112406a4233866009600089815260200190815260200160002060405161097093929190614aec565b60405180910390a15050505050565b60606002805461098e906147a9565b80601f01602080910402602001604051908101604052809291908181526020018280546109ba906147a9565b8015610a075780601f106109dc57610100808354040283529160200191610a07565b820191906000526020600020905b8154815290600101906020018083116109ea57829003601f168201915b50505050509050919050565b600060036000838152602001908152602001600020600101549050919050565b80600073ffffffffffffffffffffffffffffffffffffffff1660068281548110610a6057610a5f614639565b5b906000526020600020906002020160000160009054906101000a900473ffffffffffffffffffffffffffffffffffffffff1673ffffffffffffffffffffffffffffffffffffffff1603610ae8576040517f08c379a0000000000000000000000000000000000000000000000000000000008152600401610adf90614b76565b60405180910390fd5b60008060068481548110610aff57610afe614639565b5b906000526020600020906002020160000160009054906101000a900473ffffffffffffffffffffffffffffffffffffffff1673ffffffffffffffffffffffffffffffffffffffff1634604051610b5490614bc7565b60006040518083038185875af1925050503d8060008114610b91576040519150601f19603f3d011682016040523d82523d6000602084013e610b96565b606091505b509150915081610bdb576040517f08c379a0000000000000000000000000000000000000000000000000000000008152600401610bd290614c28565b60405180910390fd5b600060068581548110610bf157610bf0614639565b5b90600052602060002090600202016001015434610c0e9190614c77565b9050610c6260068681548110610c2757610c26614639565b5b906000526020600020906002020160000160009054906101000a900473ffffffffffffffffffffffffffffffffffffffff1633878486611e3a565b7f3138022358a8810b94b406356f325ea086dad47c99cf2a60890c8a321aca15d960068681548110610c9757610c96614639565b5b906000526020600020906002020160000160009054906101000a900473ffffffffffffffffffffffffffffffffffffffff1633878486604051610cde959493929190614d5c565b60405180910390a15050505050565b610cf5611d7b565b73ffffffffffffffffffffffffffffffffffffffff168573ffffffffffffffffffffffffffffffffffffffff161480610d3b5750610d3a85610d35611d7b565b611bcc565b5b610d7a576040517f08c379a0000000000000000000000000000000000000000000000000000000008152600401610d7190614e28565b60405180910390fd5b610d8785858585856120bb565b5050505050565b610d9782610a13565b610da881610da3611d7b565b611d83565b610db283836123ce565b505050565b610dbf611d7b565b73ffffffffffffffffffffffffffffffffffffffff168173ffffffffffffffffffffffffffffffffffffffff1614610e2c576040517f08c379a0000000000000000000000000000000000000000000000000000000008152600401610e2390614eba565b60405180910390fd5b610e3682826124af565b5050565b60608151835114610e80576040517f08c379a0000000000000000000000000000000000000000000000000000000008152600401610e7790614f4c565b60405180910390fd5b6000835167ffffffffffffffff811115610e9d57610e9c613694565b5b604051908082528060200260200182016040528015610ecb5781602001602082028036833780820191505090505b50905060005b8451811015610f4857610f18858281518110610ef057610eef614639565b5b6020026020010151858381518110610f0b57610f0a614639565b5b602002602001015161061f565b828281518110610f2b57610f2a614639565b5b60200260200101818152505080610f4190614703565b9050610ed1565b508091505092915050565b600080610f5f83611750565b119050919050565b6000801b610f7c81610f77611d7b565b611d83565b600660405180604001604052808673ffffffffffffffffffffffffffffffffffffffff16815260200184815250908060018154018082558091505060019003906000526020600020906002020160009091909190915060008201518160000160006101000a81548173ffffffffffffffffffffffffffffffffffffffff021916908373ffffffffffffffffffffffffffffffffffffffff160217905550602082015181600101555050611042846005548560405180602001604052806000815250612591565b7fe9eb42f8ecbee1afc1aca5b0be2080f3718fe855ba1c1cdc22db679c7d2b170f8460055485856040516110799493929190614f6c565b60405180910390a16001600560008282546110949190614fb1565b9250508190555050505050565b86600073ffffffffffffffffffffffffffffffffffffffff16600682815481106110ce576110cd614639565b5b906000526020600020906002020160000160009054906101000a900473ffffffffffffffffffffffffffffffffffffffff1673ffffffffffffffffffffffffffffffffffffffff1603611156576040517f08c379a000000000000000000000000000000000000000000000000000000000815260040161114d90614b76565b60405180910390fd5b6111b73360068a8154811061116e5761116d614639565b5b906000526020600020906002020160000160009054906101000a900473ffffffffffffffffffffffffffffffffffffffff168a8960405180602001604052806000815250611e3a565b7ffad11ed669fd8ffa4f34138576863a10dee92cea47883c6dafd7d985b47f8230888888888888886040516111f29796959493929190615007565b60405180910390a15050505050505050565b7f7804d923f43a17d325d77e781528e0793b2edd9890ab45fc64efd7b4b427744c81565b8282600a6000838152602001908152602001600020600082815260200190815260200160002060003373ffffffffffffffffffffffffffffffffffffffff1673ffffffffffffffffffffffffffffffffffffffff16815260200190815260200160002060009054906101000a900460ff16156112d9576040517f08c379a00000000000000000000000000000000000000000000000000000000081526004016112d0906150e5565b60405180910390fd5b60006112e5338761061f565b90508060096000888152602001908152602001600020868154811061130d5761130c614639565b5b906000526020600020906003020160020185815481106113305761132f614639565b5b9060005260206000200160008282546113499190614fb1565b925050819055506001600a6000888152602001908152602001600020600087815260200190815260200160002060003373ffffffffffffffffffffffffffffffffffffffff1673ffffffffffffffffffffffffffffffffffffffff16815260200190815260200160002060006101000a81548160ff0219169083151502179055507f6c7eb2743ec28489909706ea440d909129004996be657d36c6e9add778546abf338787846040516113ff9493929190615105565b60405180910390a1505050505050565b60006003600084815260200190815260200160002060000160008373ffffffffffffffffffffffffffffffffffffffff1673ffffffffffffffffffffffffffffffffffffffff16815260200190815260200160002060009054906101000a900460ff16905092915050565b6000801b81565b61149361148c611d7b565b8383612726565b5050565b803373ffffffffffffffffffffffffffffffffffffffff16600682815481106114c3576114c2614639565b5b906000526020600020906002020160000160009054906101000a900473ffffffffffffffffffffffffffffffffffffffff1673ffffffffffffffffffffffffffffffffffffffff161461154b576040517f08c379a0000000000000000000000000000000000000000000000000000000008152600401611542906146b4565b60405180910390fd5b60005b60078054905081101561174b57600061156684611750565b346115af6007858154811061157e5761157d614639565b5b9060005260206000200160009054906101000a900473ffffffffffffffffffffffffffffffffffffffff168761061f565b6115b9919061514a565b6115c39190614c77565b9050600080600784815481106115dc576115db614639565b5b9060005260206000200160009054906101000a900473ffffffffffffffffffffffffffffffffffffffff1673ffffffffffffffffffffffffffffffffffffffff168360405161162a90614bc7565b60006040518083038185875af1925050503d8060008114611667576040519150601f19603f3d011682016040523d82523d6000602084013e61166c565b606091505b50915091507f8ebe82e5be42b667883a49114b153e27d7fbf05869a57c0778e7010c18cb7763600687815481106116a6576116a5614639565b5b906000526020600020906002020160000160009054906101000a900473ffffffffffffffffffffffffffffffffffffffff16600786815481106116ec576116eb614639565b5b9060005260206000200160009054906101000a900473ffffffffffffffffffffffffffffffffffffffff168885858860405161172d969594939291906151a4565b60405180910390a1505050808061174390614703565b91505061154e565b505050565b600060046000838152602001908152602001600020549050919050565b6060806060600060096000868152602001908152602001600020805480602002602001604051908101604052809291908181526020016000905b8282101561199c57838290600052602060002090600302016040518060600160405290816000820180546117da906147a9565b80601f0160208091040260200160405190810160405280929190818152602001828054611806906147a9565b80156118535780601f1061182857610100808354040283529160200191611853565b820191906000526020600020905b81548152906001019060200180831161183657829003601f168201915b5050505050815260200160018201805480602002602001604051908101604052809291908181526020016000905b8282101561192d5783829060005260206000200180546118a0906147a9565b80601f01602080910402602001604051908101604052809291908181526020018280546118cc906147a9565b80156119195780601f106118ee57610100808354040283529160200191611919565b820191906000526020600020905b8154815290600101906020018083116118fc57829003601f168201915b505050505081526020019060010190611881565b5050505081526020016002820180548060200260200160405190810160405280929190818152602001828054801561198457602002820191906000526020600020905b815481526020019060010190808311611970575b505050505081525050815260200190600101906117a7565b5050505090506000815167ffffffffffffffff8111156119bf576119be613694565b5b6040519080825280602002602001820160405280156119ed5781602001602082028036833780820191505090505b5090506000825167ffffffffffffffff811115611a0d57611a0c613694565b5b604051908082528060200260200182016040528015611a3b5781602001602082028036833780820191505090505b50905060005b8351811015611b8f576000600960008a81526020019081526020016000208281548110611a7157611a70614639565b5b9060005260206000209060030201600201805480602002602001604051908101604052809291908181526020018280548015611acc57602002820191906000526020600020905b815481526020019060010190808311611ab8575b5050505050905060008060005b8351811015611b385782848281518110611af657611af5614639565b5b60200260200101511115611b2557838181518110611b1757611b16614639565b5b602002602001015192508091505b8080611b3090614703565b915050611ad9565b5080868581518110611b4d57611b4c614639565b5b60200260200101818152505081858581518110611b6d57611b6c614639565b5b6020026020010181815250505050508080611b8790614703565b915050611a41565b508282829550955095505050509193909250565b611bac82610a13565b611bbd81611bb8611d7b565b611d83565b611bc783836124af565b505050565b6000600160008473ffffffffffffffffffffffffffffffffffffffff1673ffffffffffffffffffffffffffffffffffffffff16815260200190815260200160002060008373ffffffffffffffffffffffffffffffffffffffff1673ffffffffffffffffffffffffffffffffffffffff16815260200190815260200160002060009054906101000a900460ff16905092915050565b611c68611d7b565b73ffffffffffffffffffffffffffffffffffffffff168573ffffffffffffffffffffffffffffffffffffffff161480611cae5750611cad85611ca8611d7b565b611bcc565b5b611ced576040517f08c379a0000000000000000000000000000000000000000000000000000000008152600401611ce49061527e565b60405180910390fd5b611cfa8585858585611e3a565b5050505050565b60007f7965db0b000000000000000000000000000000000000000000000000000000007bffffffffffffffffffffffffffffffffffffffffffffffffffffffff1916827bffffffffffffffffffffffffffffffffffffffffffffffffffffffff19161480611d745750611d7382612892565b5b9050919050565b600033905090565b611d8d828261140f565b611e1c57611db28173ffffffffffffffffffffffffffffffffffffffff166014612974565b611dc08360001c6020612974565b604051602001611dd1929190615372565b6040516020818303038152906040526040517f08c379a0000000000000000000000000000000000000000000000000000000008152600401611e139190613a2e565b60405180910390fd5b5050565b8060029080519060200190611e369291906132f8565b5050565b600073ffffffffffffffffffffffffffffffffffffffff168473ffffffffffffffffffffffffffffffffffffffff1603611ea9576040517f08c379a0000000000000000000000000000000000000000000000000000000008152600401611ea09061541e565b60405180910390fd5b6000611eb3611d7b565b9050611ed3818787611ec488612bb0565b611ecd88612bb0565b87612c2a565b600080600086815260200190815260200160002060008873ffffffffffffffffffffffffffffffffffffffff1673ffffffffffffffffffffffffffffffffffffffff16815260200190815260200160002054905083811015611f6a576040517f08c379a0000000000000000000000000000000000000000000000000000000008152600401611f61906154b0565b60405180910390fd5b83810360008087815260200190815260200160002060008973ffffffffffffffffffffffffffffffffffffffff1673ffffffffffffffffffffffffffffffffffffffff168152602001908152602001600020819055508360008087815260200190815260200160002060008873ffffffffffffffffffffffffffffffffffffffff1673ffffffffffffffffffffffffffffffffffffffff168152602001908152602001600020600082825461201f9190614fb1565b925050819055508573ffffffffffffffffffffffffffffffffffffffff168773ffffffffffffffffffffffffffffffffffffffff168373ffffffffffffffffffffffffffffffffffffffff167fc3d58168c5ae7397731d063d5bbf3d657854427343f4c083240f7aacaa2d0f62888860405161209c9291906154d0565b60405180910390a46120b2828888888888612d4d565b50505050505050565b81518351146120ff576040517f08c379a00000000000000000000000000000000000000000000000000000000081526004016120f69061556b565b60405180910390fd5b600073ffffffffffffffffffffffffffffffffffffffff168473ffffffffffffffffffffffffffffffffffffffff160361216e576040517f08c379a00000000000000000000000000000000000000000000000000000000081526004016121659061541e565b60405180910390fd5b6000612178611d7b565b9050612188818787878787612c2a565b60005b84518110156123395760008582815181106121a9576121a8614639565b5b6020026020010151905060008583815181106121c8576121c7614639565b5b60200260200101519050600080600084815260200190815260200160002060008b73ffffffffffffffffffffffffffffffffffffffff1673ffffffffffffffffffffffffffffffffffffffff16815260200190815260200160002054905081811015612269576040517f08c379a0000000000000000000000000000000000000000000000000000000008152600401612260906154b0565b60405180910390fd5b81810360008085815260200190815260200160002060008c73ffffffffffffffffffffffffffffffffffffffff1673ffffffffffffffffffffffffffffffffffffffff168152602001908152602001600020819055508160008085815260200190815260200160002060008b73ffffffffffffffffffffffffffffffffffffffff1673ffffffffffffffffffffffffffffffffffffffff168152602001908152602001600020600082825461231e9190614fb1565b925050819055505050508061233290614703565b905061218b565b508473ffffffffffffffffffffffffffffffffffffffff168673ffffffffffffffffffffffffffffffffffffffff168273ffffffffffffffffffffffffffffffffffffffff167f4a39dc06d4c0dbc64b70af90fd698a233a518aa5d07e595d983b8c0526c8f7fb87876040516123b092919061558b565b60405180910390a46123c6818787878787612f24565b505050505050565b6123d8828261140f565b6124ab5760016003600084815260200190815260200160002060000160008373ffffffffffffffffffffffffffffffffffffffff1673ffffffffffffffffffffffffffffffffffffffff16815260200190815260200160002060006101000a81548160ff021916908315150217905550612450611d7b565b73ffffffffffffffffffffffffffffffffffffffff168173ffffffffffffffffffffffffffffffffffffffff16837f2f8788117e7eff1d82e926ec794901d17c78024a50270940304540a733656f0d60405160405180910390a45b5050565b6124b9828261140f565b1561258d5760006003600084815260200190815260200160002060000160008373ffffffffffffffffffffffffffffffffffffffff1673ffffffffffffffffffffffffffffffffffffffff16815260200190815260200160002060006101000a81548160ff021916908315150217905550612532611d7b565b73ffffffffffffffffffffffffffffffffffffffff168173ffffffffffffffffffffffffffffffffffffffff16837ff6391f5c32d9c69d2a47ea670b442974b53935d1edc7fd64eb21e047a839171b60405160405180910390a45b5050565b600073ffffffffffffffffffffffffffffffffffffffff168473ffffffffffffffffffffffffffffffffffffffff1603612600576040517f08c379a00000000000000000000000000000000000000000000000000000000081526004016125f790615634565b60405180910390fd5b600061260a611d7b565b905061262b8160008761261c88612bb0565b61262588612bb0565b87612c2a565b8260008086815260200190815260200160002060008773ffffffffffffffffffffffffffffffffffffffff1673ffffffffffffffffffffffffffffffffffffffff168152602001908152602001600020600082825461268a9190614fb1565b925050819055508473ffffffffffffffffffffffffffffffffffffffff16600073ffffffffffffffffffffffffffffffffffffffff168273ffffffffffffffffffffffffffffffffffffffff167fc3d58168c5ae7397731d063d5bbf3d657854427343f4c083240f7aacaa2d0f6287876040516127089291906154d0565b60405180910390a461271f81600087878787612d4d565b5050505050565b8173ffffffffffffffffffffffffffffffffffffffff168373ffffffffffffffffffffffffffffffffffffffff1603612794576040517f08c379a000000000000000000000000000000000000000000000000000000000815260040161278b906156c6565b60405180910390fd5b80600160008573ffffffffffffffffffffffffffffffffffffffff1673ffffffffffffffffffffffffffffffffffffffff16815260200190815260200160002060008473ffffffffffffffffffffffffffffffffffffffff1673ffffffffffffffffffffffffffffffffffffffff16815260200190815260200160002060006101000a81548160ff0219169083151502179055508173ffffffffffffffffffffffffffffffffffffffff168373ffffffffffffffffffffffffffffffffffffffff167f17307eab39ab6107e8899845ad3d59bd9653f200f220920489ca2b5937696c3183604051612885919061365e565b60405180910390a3505050565b60007fd9b67a26000000000000000000000000000000000000000000000000000000007bffffffffffffffffffffffffffffffffffffffffffffffffffffffff1916827bffffffffffffffffffffffffffffffffffffffffffffffffffffffff1916148061295d57507f0e89341c000000000000000000000000000000000000000000000000000000007bffffffffffffffffffffffffffffffffffffffffffffffffffffffff1916827bffffffffffffffffffffffffffffffffffffffffffffffffffffffff1916145b8061296d575061296c826130fb565b5b9050919050565b606060006002836002612987919061514a565b6129919190614fb1565b67ffffffffffffffff8111156129aa576129a9613694565b5b6040519080825280601f01601f1916602001820160405280156129dc5781602001600182028036833780820191505090505b5090507f300000000000000000000000000000000000000000000000000000000000000081600081518110612a1457612a13614639565b5b60200101907effffffffffffffffffffffffffffffffffffffffffffffffffffffffffffff1916908160001a9053507f780000000000000000000000000000000000000000000000000000000000000081600181518110612a7857612a77614639565b5b60200101907effffffffffffffffffffffffffffffffffffffffffffffffffffffffffffff1916908160001a90535060006001846002612ab8919061514a565b612ac29190614fb1565b90505b6001811115612b62577f3031323334353637383961626364656600000000000000000000000000000000600f861660108110612b0457612b03614639565b5b1a60f81b828281518110612b1b57612b1a614639565b5b60200101907effffffffffffffffffffffffffffffffffffffffffffffffffffffffffffff1916908160001a905350600485901c945080612b5b906156e6565b9050612ac5565b5060008414612ba6576040517f08c379a0000000000000000000000000000000000000000000000000000000008152600401612b9d9061575b565b60405180910390fd5b8091505092915050565b60606000600167ffffffffffffffff811115612bcf57612bce613694565b5b604051908082528060200260200182016040528015612bfd5781602001602082028036833780820191505090505b5090508281600081518110612c1557612c14614639565b5b60200260200101818152505080915050919050565b600860008573ffffffffffffffffffffffffffffffffffffffff1673ffffffffffffffffffffffffffffffffffffffff16815260200190815260200160002060009054906101000a900460ff16612d37576007849080600181540180825580915050600190039060005260206000200160009091909190916101000a81548173ffffffffffffffffffffffffffffffffffffffff021916908373ffffffffffffffffffffffffffffffffffffffff1602179055506001600860008673ffffffffffffffffffffffffffffffffffffffff1673ffffffffffffffffffffffffffffffffffffffff16815260200190815260200160002060006101000a81548160ff0219169083151502179055505b612d45868686868686613165565b505050505050565b612d6c8473ffffffffffffffffffffffffffffffffffffffff166132dd565b15612f1c578373ffffffffffffffffffffffffffffffffffffffff1663f23a6e6187878686866040518663ffffffff1660e01b8152600401612db295949392919061577b565b6020604051808303816000875af1925050508015612dee57506040513d601f19601f82011682018060405250810190612deb91906157ea565b60015b612e9357612dfa615824565b806308c379a003612e565750612e0e615846565b80612e195750612e58565b806040517f08c379a0000000000000000000000000000000000000000000000000000000008152600401612e4d9190613a2e565b60405180910390fd5b505b6040517f08c379a0000000000000000000000000000000000000000000000000000000008152600401612e8a90615948565b60405180910390fd5b63f23a6e6160e01b7bffffffffffffffffffffffffffffffffffffffffffffffffffffffff1916817bffffffffffffffffffffffffffffffffffffffffffffffffffffffff191614612f1a576040517f08c379a0000000000000000000000000000000000000000000000000000000008152600401612f11906159da565b60405180910390fd5b505b505050505050565b612f438473ffffffffffffffffffffffffffffffffffffffff166132dd565b156130f3578373ffffffffffffffffffffffffffffffffffffffff1663bc197c8187878686866040518663ffffffff1660e01b8152600401612f899594939291906159fa565b6020604051808303816000875af1925050508015612fc557506040513d601f19601f82011682018060405250810190612fc291906157ea565b60015b61306a57612fd1615824565b806308c379a00361302d5750612fe5615846565b80612ff0575061302f565b806040517f08c379a00000000000000000000000000000000000000000000000000000000081526004016130249190613a2e565b60405180910390fd5b505b6040517f08c379a000000000000000000000000000000000000000000000000000000000815260040161306190615948565b60405180910390fd5b63bc197c8160e01b7bffffffffffffffffffffffffffffffffffffffffffffffffffffffff1916817bffffffffffffffffffffffffffffffffffffffffffffffffffffffff1916146130f1576040517f08c379a00000000000000000000000000000000000000000000000000000000081526004016130e8906159da565b60405180910390fd5b505b505050505050565b60007f01ffc9a7000000000000000000000000000000000000000000000000000000007bffffffffffffffffffffffffffffffffffffffffffffffffffffffff1916827bffffffffffffffffffffffffffffffffffffffffffffffffffffffff1916149050919050565b6131738686868686866132f0565b600073ffffffffffffffffffffffffffffffffffffffff168573ffffffffffffffffffffffffffffffffffffffff16036132245760005b8351811015613222578281815181106131c6576131c5614639565b5b6020026020010151600460008684815181106131e5576131e4614639565b5b60200260200101518152602001908152602001600020600082825461320a9190614fb1565b925050819055508061321b90614703565b90506131aa565b505b600073ffffffffffffffffffffffffffffffffffffffff168473ffffffffffffffffffffffffffffffffffffffff16036132d55760005b83518110156132d35782818151811061327757613276614639565b5b60200260200101516004600086848151811061329657613295614639565b5b6020026020010151815260200190815260200160002060008282546132bb9190615a62565b92505081905550806132cc90614703565b905061325b565b505b505050505050565b600080823b905060008111915050919050565b505050505050565b828054613304906147a9565b90600052602060002090601f016020900481019282613326576000855561336d565b82601f1061333f57805160ff191683800117855561336d565b8280016001018555821561336d579182015b8281111561336c578251825591602001919060010190613351565b5b50905061337a919061342b565b5090565b8280548282559060005260206000209081019282156133cd579160200282015b828111156133cc5782518290805190602001906133bc9291906132f8565b509160200191906001019061339e565b5b5090506133da9190613448565b5090565b82805482825590600052602060002090810192821561341a579160200282015b828111156134195782518255916020019190600101906133fe565b5b509050613427919061342b565b5090565b5b8082111561344457600081600090555060010161342c565b5090565b5b80821115613468576000818161345f919061346c565b50600101613449565b5090565b508054613478906147a9565b6000825580601f1061348a57506134a9565b601f0160209004906000526020600020908101906134a8919061342b565b5b50565b6000604051905090565b600080fd5b600080fd5b600073ffffffffffffffffffffffffffffffffffffffff82169050919050565b60006134eb826134c0565b9050919050565b6134fb816134e0565b811461350657600080fd5b50565b600081359050613518816134f2565b92915050565b6000819050919050565b6135318161351e565b811461353c57600080fd5b50565b60008135905061354e81613528565b92915050565b6000806040838503121561356b5761356a6134b6565b5b600061357985828601613509565b925050602061358a8582860161353f565b9150509250929050565b61359d8161351e565b82525050565b60006020820190506135b86000830184613594565b92915050565b60007fffffffff0000000000000000000000000000000000000000000000000000000082169050919050565b6135f3816135be565b81146135fe57600080fd5b50565b600081359050613610816135ea565b92915050565b60006020828403121561362c5761362b6134b6565b5b600061363a84828501613601565b91505092915050565b60008115159050919050565b61365881613643565b82525050565b6000602082019050613673600083018461364f565b92915050565b600080fd5b600080fd5b6000601f19601f8301169050919050565b7f4e487b7100000000000000000000000000000000000000000000000000000000600052604160045260246000fd5b6136cc82613683565b810181811067ffffffffffffffff821117156136eb576136ea613694565b5b80604052505050565b60006136fe6134ac565b905061370a82826136c3565b919050565b600067ffffffffffffffff82111561372a57613729613694565b5b61373382613683565b9050602081019050919050565b82818337600083830152505050565b600061376261375d8461370f565b6136f4565b90508281526020810184848401111561377e5761377d61367e565b5b613789848285613740565b509392505050565b600082601f8301126137a6576137a5613679565b5b81356137b684826020860161374f565b91505092915050565b6000602082840312156137d5576137d46134b6565b5b600082013567ffffffffffffffff8111156137f3576137f26134bb565b5b6137ff84828501613791565b91505092915050565b600067ffffffffffffffff82111561382357613822613694565b5b602082029050602081019050919050565b600080fd5b600061384c61384784613808565b6136f4565b9050808382526020820190506020840283018581111561386f5761386e613834565b5b835b818110156138b657803567ffffffffffffffff81111561389457613893613679565b5b8086016138a18982613791565b85526020850194505050602081019050613871565b5050509392505050565b600082601f8301126138d5576138d4613679565b5b81356138e5848260208601613839565b91505092915050565b600080600060608486031215613907576139066134b6565b5b60006139158682870161353f565b935050602084013567ffffffffffffffff811115613936576139356134bb565b5b61394286828701613791565b925050604084013567ffffffffffffffff811115613963576139626134bb565b5b61396f868287016138c0565b9150509250925092565b60006020828403121561398f5761398e6134b6565b5b600061399d8482850161353f565b91505092915050565b600081519050919050565b600082825260208201905092915050565b60005b838110156139e05780820151818401526020810190506139c5565b838111156139ef576000848401525b50505050565b6000613a00826139a6565b613a0a81856139b1565b9350613a1a8185602086016139c2565b613a2381613683565b840191505092915050565b60006020820190508181036000830152613a4881846139f5565b905092915050565b6000819050919050565b613a6381613a50565b8114613a6e57600080fd5b50565b600081359050613a8081613a5a565b92915050565b600060208284031215613a9c57613a9b6134b6565b5b6000613aaa84828501613a71565b91505092915050565b613abc81613a50565b82525050565b6000602082019050613ad76000830184613ab3565b92915050565b600067ffffffffffffffff821115613af857613af7613694565b5b602082029050602081019050919050565b6000613b1c613b1784613add565b6136f4565b90508083825260208201905060208402830185811115613b3f57613b3e613834565b5b835b81811015613b685780613b54888261353f565b845260208401935050602081019050613b41565b5050509392505050565b600082601f830112613b8757613b86613679565b5b8135613b97848260208601613b09565b91505092915050565b600067ffffffffffffffff821115613bbb57613bba613694565b5b613bc482613683565b9050602081019050919050565b6000613be4613bdf84613ba0565b6136f4565b905082815260208101848484011115613c0057613bff61367e565b5b613c0b848285613740565b509392505050565b600082601f830112613c2857613c27613679565b5b8135613c38848260208601613bd1565b91505092915050565b600080600080600060a08688031215613c5d57613c5c6134b6565b5b6000613c6b88828901613509565b9550506020613c7c88828901613509565b945050604086013567ffffffffffffffff811115613c9d57613c9c6134bb565b5b613ca988828901613b72565b935050606086013567ffffffffffffffff811115613cca57613cc96134bb565b5b613cd688828901613b72565b925050608086013567ffffffffffffffff811115613cf757613cf66134bb565b5b613d0388828901613c13565b9150509295509295909350565b60008060408385031215613d2757613d266134b6565b5b6000613d3585828601613a71565b9250506020613d4685828601613509565b9150509250929050565b600067ffffffffffffffff821115613d6b57613d6a613694565b5b602082029050602081019050919050565b6000613d8f613d8a84613d50565b6136f4565b90508083825260208201905060208402830185811115613db257613db1613834565b5b835b81811015613ddb5780613dc78882613509565b845260208401935050602081019050613db4565b5050509392505050565b600082601f830112613dfa57613df9613679565b5b8135613e0a848260208601613d7c565b91505092915050565b60008060408385031215613e2a57613e296134b6565b5b600083013567ffffffffffffffff811115613e4857613e476134bb565b5b613e5485828601613de5565b925050602083013567ffffffffffffffff811115613e7557613e746134bb565b5b613e8185828601613b72565b9150509250929050565b600081519050919050565b600082825260208201905092915050565b6000819050602082019050919050565b613ec08161351e565b82525050565b6000613ed28383613eb7565b60208301905092915050565b6000602082019050919050565b6000613ef682613e8b565b613f008185613e96565b9350613f0b83613ea7565b8060005b83811015613f3c578151613f238882613ec6565b9750613f2e83613ede565b925050600181019050613f0f565b5085935050505092915050565b60006020820190508181036000830152613f638184613eeb565b905092915050565b6000613f76826134c0565b9050919050565b613f8681613f6b565b8114613f9157600080fd5b50565b600081359050613fa381613f7d565b92915050565b600080600060608486031215613fc257613fc16134b6565b5b6000613fd086828701613f94565b9350506020613fe18682870161353f565b9250506040613ff28682870161353f565b9150509250925092565b600080600080600080600060e0888a03121561401b5761401a6134b6565b5b60006140298a828b0161353f565b975050602088013567ffffffffffffffff81111561404a576140496134bb565b5b6140568a828b01613791565b96505060406140678a828b0161353f565b955050606088013567ffffffffffffffff811115614088576140876134bb565b5b6140948a828b01613791565b945050608088013567ffffffffffffffff8111156140b5576140b46134bb565b5b6140c18a828b01613791565b93505060a088013567ffffffffffffffff8111156140e2576140e16134bb565b5b6140ee8a828b01613791565b92505060c088013567ffffffffffffffff81111561410f5761410e6134bb565b5b61411b8a828b01613791565b91505092959891949750929550565b600080600060608486031215614143576141426134b6565b5b60006141518682870161353f565b93505060206141628682870161353f565b92505060406141738682870161353f565b9150509250925092565b61418681613643565b811461419157600080fd5b50565b6000813590506141a38161417d565b92915050565b600080604083850312156141c0576141bf6134b6565b5b60006141ce85828601613509565b92505060206141df85828601614194565b9150509250929050565b600081519050919050565b600082825260208201905092915050565b6000819050602082019050919050565b600082825260208201905092915050565b6000614231826139a6565b61423b8185614215565b935061424b8185602086016139c2565b61425481613683565b840191505092915050565b600081519050919050565b600082825260208201905092915050565b6000819050602082019050919050565b60006142978383614226565b905092915050565b6000602082019050919050565b60006142b78261425f565b6142c1818561426a565b9350836020820285016142d38561427b565b8060005b8581101561430f57848403895281516142f0858261428b565b94506142fb8361429f565b925060208a019950506001810190506142d7565b50829750879550505050505092915050565b600082825260208201905092915050565b600061433d82613e8b565b6143478185614321565b935061435283613ea7565b8060005b8381101561438357815161436a8882613ec6565b975061437583613ede565b925050600181019050614356565b5085935050505092915050565b600060608301600083015184820360008601526143ad8282614226565b915050602083015184820360208601526143c782826142ac565b915050604083015184820360408601526143e18282614332565b9150508091505092915050565b60006143fa8383614390565b905092915050565b6000602082019050919050565b600061441a826141e9565b61442481856141f4565b93508360208202850161443685614205565b8060005b85811015614472578484038952815161445385826143ee565b945061445e83614402565b925060208a0199505060018101905061443a565b50829750879550505050505092915050565b6000606082019050818103600083015261449e818661440f565b905081810360208301526144b28185613eeb565b905081810360408301526144c68184613eeb565b9050949350505050565b600080604083850312156144e7576144e66134b6565b5b60006144f585828601613509565b925050602061450685828601613509565b9150509250929050565b600080600080600060a0868803121561452c5761452b6134b6565b5b600061453a88828901613509565b955050602061454b88828901613509565b945050604061455c8882890161353f565b935050606061456d8882890161353f565b925050608086013567ffffffffffffffff81111561458e5761458d6134bb565b5b61459a88828901613c13565b9150509295509295909350565b7f455243313135353a2062616c616e636520717565727920666f7220746865207a60008201527f65726f2061646472657373000000000000000000000000000000000000000000602082015250565b6000614603602b836139b1565b915061460e826145a7565b604082019050919050565b60006020820190508181036000830152614632816145f6565b9050919050565b7f4e487b7100000000000000000000000000000000000000000000000000000000600052603260045260246000fd5b7f4e6f7420546f6b656e2041646d696e0000000000000000000000000000000000600082015250565b600061469e600f836139b1565b91506146a982614668565b602082019050919050565b600060208201905081810360008301526146cd81614691565b9050919050565b7f4e487b7100000000000000000000000000000000000000000000000000000000600052601160045260246000fd5b600061470e8261351e565b91507fffffffffffffffffffffffffffffffffffffffffffffffffffffffffffffffff82036147405761473f6146d4565b5b600182019050919050565b614754816134e0565b82525050565b600081549050919050565b60008190508160005260206000209050919050565b7f4e487b7100000000000000000000000000000000000000000000000000000000600052602260045260246000fd5b600060028204905060018216806147c157607f821691505b6020821081036147d4576147d361477a565b5b50919050565b60008190508160005260206000209050919050565b600081546147fc816147a9565b6148068186614215565b94506001821660008114614821576001811461483357614866565b60ff1983168652602086019350614866565b61483c856147da565b60005b8381101561485e5781548189015260018201915060208101905061483f565b808801955050505b50505092915050565b600081549050919050565b60008190508160005260206000209050919050565b600061489b83836147ef565b905092915050565b6000600182019050919050565b60006148bb8261486f565b6148c5818561426a565b9350836020820285016148d78561487a565b8060005b85811015614912578484038952816148f3858261488f565b94506148fe836148a3565b925060208a019950506001810190506148db565b50829750879550505050505092915050565b600081549050919050565b60008190508160005260206000209050919050565b60008160001c9050919050565b6000819050919050565b600061496e61496983614944565b614951565b9050919050565b6000614981825461495b565b9050919050565b6000600182019050919050565b60006149a082614924565b6149aa8185614321565b93506149b58361492f565b8060005b838110156149ed576149ca82614975565b6149d48882613ec6565b97506149df83614988565b9250506001810190506149b9565b5085935050505092915050565b60006060830160008084018583036000870152614a1783826147ef565b925050600184018583036020870152614a3083826148b0565b925050600284018583036040870152614a498382614995565b925050819250505092915050565b6000614a6383836149fa565b905092915050565b6000600382019050919050565b6000614a838261475a565b614a8d81856141f4565b935083602082028501614a9f85614765565b8060005b85811015614ada57848403895281614abb8582614a57565b9450614ac683614a6b565b925060208a01995050600181019050614aa3565b50829750879550505050505092915050565b6000606082019050614b01600083018661474b565b614b0e6020830185613594565b8181036040830152614b208184614a78565b9050949350505050565b7f546f6b656e20446f6573204e6f74204578697374000000000000000000000000600082015250565b6000614b606014836139b1565b9150614b6b82614b2a565b602082019050919050565b60006020820190508181036000830152614b8f81614b53565b9050919050565b600081905092915050565b50565b6000614bb1600083614b96565b9150614bbc82614ba1565b600082019050919050565b6000614bd282614ba4565b9150819050919050565b7f5472616e73616374696f6e206661696c65642100000000000000000000000000600082015250565b6000614c126013836139b1565b9150614c1d82614bdc565b602082019050919050565b60006020820190508181036000830152614c4181614c05565b9050919050565b7f4e487b7100000000000000000000000000000000000000000000000000000000600052601260045260246000fd5b6000614c828261351e565b9150614c8d8361351e565b925082614c9d57614c9c614c48565b5b828204905092915050565b6000819050919050565b6000614ccd614cc8614cc3846134c0565b614ca8565b6134c0565b9050919050565b6000614cdf82614cb2565b9050919050565b6000614cf182614cd4565b9050919050565b614d0181614ce6565b82525050565b600081519050919050565b600082825260208201905092915050565b6000614d2e82614d07565b614d388185614d12565b9350614d488185602086016139c2565b614d5181613683565b840191505092915050565b600060a082019050614d716000830188614cf8565b614d7e602083018761474b565b614d8b6040830186613594565b614d986060830185613594565b8181036080830152614daa8184614d23565b90509695505050505050565b7f455243313135353a207472616e736665722063616c6c6572206973206e6f742060008201527f6f776e6572206e6f7220617070726f7665640000000000000000000000000000602082015250565b6000614e126032836139b1565b9150614e1d82614db6565b604082019050919050565b60006020820190508181036000830152614e4181614e05565b9050919050565b7f416363657373436f6e74726f6c3a2063616e206f6e6c792072656e6f756e636560008201527f20726f6c657320666f722073656c660000000000000000000000000000000000602082015250565b6000614ea4602f836139b1565b9150614eaf82614e48565b604082019050919050565b60006020820190508181036000830152614ed381614e97565b9050919050565b7f455243313135353a206163636f756e747320616e6420696473206c656e67746860008201527f206d69736d617463680000000000000000000000000000000000000000000000602082015250565b6000614f366029836139b1565b9150614f4182614eda565b604082019050919050565b60006020820190508181036000830152614f6581614f29565b9050919050565b6000608082019050614f816000830187614cf8565b614f8e6020830186613594565b614f9b6040830185613594565b614fa86060830184613594565b95945050505050565b6000614fbc8261351e565b9150614fc78361351e565b9250827fffffffffffffffffffffffffffffffffffffffffffffffffffffffffffffffff03821115614ffc57614ffb6146d4565b5b828201905092915050565b600060e08201905061501c600083018a613594565b818103602083015261502e81896139f5565b905061503d6040830188613594565b818103606083015261504f81876139f5565b9050818103608083015261506381866139f5565b905081810360a083015261507781856139f5565b905081810360c083015261508b81846139f5565b905098975050505050505050565b7f416c726561647920766f74656400000000000000000000000000000000000000600082015250565b60006150cf600d836139b1565b91506150da82615099565b602082019050919050565b600060208201905081810360008301526150fe816150c2565b9050919050565b600060808201905061511a600083018761474b565b6151276020830186613594565b6151346040830185613594565b6151416060830184613594565b95945050505050565b60006151558261351e565b91506151608361351e565b9250817fffffffffffffffffffffffffffffffffffffffffffffffffffffffffffffffff0483118215151615615199576151986146d4565b5b828202905092915050565b600060c0820190506151b96000830189614cf8565b6151c6602083018861474b565b6151d36040830187613594565b6151e0606083018661364f565b81810360808301526151f28185614d23565b905061520160a0830184613594565b979650505050505050565b7f455243313135353a2063616c6c6572206973206e6f74206f776e6572206e6f7260008201527f20617070726f7665640000000000000000000000000000000000000000000000602082015250565b60006152686029836139b1565b91506152738261520c565b604082019050919050565b600060208201905081810360008301526152978161525b565b9050919050565b600081905092915050565b7f416363657373436f6e74726f6c3a206163636f756e7420000000000000000000600082015250565b60006152df60178361529e565b91506152ea826152a9565b601782019050919050565b6000615300826139a6565b61530a818561529e565b935061531a8185602086016139c2565b80840191505092915050565b7f206973206d697373696e6720726f6c6520000000000000000000000000000000600082015250565b600061535c60118361529e565b915061536782615326565b601182019050919050565b600061537d826152d2565b915061538982856152f5565b91506153948261534f565b91506153a082846152f5565b91508190509392505050565b7f455243313135353a207472616e7366657220746f20746865207a65726f20616460008201527f6472657373000000000000000000000000000000000000000000000000000000602082015250565b60006154086025836139b1565b9150615413826153ac565b604082019050919050565b60006020820190508181036000830152615437816153fb565b9050919050565b7f455243313135353a20696e73756666696369656e742062616c616e636520666f60008201527f72207472616e7366657200000000000000000000000000000000000000000000602082015250565b600061549a602a836139b1565b91506154a58261543e565b604082019050919050565b600060208201905081810360008301526154c98161548d565b9050919050565b60006040820190506154e56000830185613594565b6154f26020830184613594565b9392505050565b7f455243313135353a2069647320616e6420616d6f756e7473206c656e6774682060008201527f6d69736d61746368000000000000000000000000000000000000000000000000602082015250565b60006155556028836139b1565b9150615560826154f9565b604082019050919050565b6000602082019050818103600083015261558481615548565b9050919050565b600060408201905081810360008301526155a58185613eeb565b905081810360208301526155b98184613eeb565b90509392505050565b7f455243313135353a206d696e7420746f20746865207a65726f2061646472657360008201527f7300000000000000000000000000000000000000000000000000000000000000602082015250565b600061561e6021836139b1565b9150615629826155c2565b604082019050919050565b6000602082019050818103600083015261564d81615611565b9050919050565b7f455243313135353a2073657474696e6720617070726f76616c2073746174757360008201527f20666f722073656c660000000000000000000000000000000000000000000000602082015250565b60006156b06029836139b1565b91506156bb82615654565b604082019050919050565b600060208201905081810360008301526156df816156a3565b9050919050565b60006156f18261351e565b915060008203615704576157036146d4565b5b600182039050919050565b7f537472696e67733a20686578206c656e67746820696e73756666696369656e74600082015250565b60006157456020836139b1565b91506157508261570f565b602082019050919050565b6000602082019050818103600083015261577481615738565b9050919050565b600060a082019050615790600083018861474b565b61579d602083018761474b565b6157aa6040830186613594565b6157b76060830185613594565b81810360808301526157c98184614d23565b90509695505050505050565b6000815190506157e4816135ea565b92915050565b600060208284031215615800576157ff6134b6565b5b600061580e848285016157d5565b91505092915050565b60008160e01c9050919050565b600060033d11156158435760046000803e615840600051615817565b90505b90565b600060443d106158d3576158586134ac565b60043d036004823e80513d602482011167ffffffffffffffff821117156158805750506158d3565b808201805167ffffffffffffffff81111561589e57505050506158d3565b80602083010160043d0385018111156158bb5750505050506158d3565b6158ca826020018501866136c3565b82955050505050505b90565b7f455243313135353a207472616e7366657220746f206e6f6e204552433131353560008201527f526563656976657220696d706c656d656e746572000000000000000000000000602082015250565b60006159326034836139b1565b915061593d826158d6565b604082019050919050565b6000602082019050818103600083015261596181615925565b9050919050565b7f455243313135353a204552433131353552656365697665722072656a6563746560008201527f6420746f6b656e73000000000000000000000000000000000000000000000000602082015250565b60006159c46028836139b1565b91506159cf82615968565b604082019050919050565b600060208201905081810360008301526159f3816159b7565b9050919050565b600060a082019050615a0f600083018861474b565b615a1c602083018761474b565b8181036040830152615a2e8186613eeb565b90508181036060830152615a428185613eeb565b90508181036080830152615a568184614d23565b90509695505050505050565b6000615a6d8261351e565b9150615a788361351e565b925082821015615a8b57615a8a6146d4565b5b82820390509291505056fea2646970667358221220252450e5e308ec00a8a0f95f13e8c3e3a8599b90b423a42bb77eaaf9e13bbc3564736f6c634300080d0033",
  "immutableReferences": {},
  "source": "// SPDX-License-Identifier: MIT\r\npragma solidity ^0.8.2;\r\n\r\nimport \"@openzeppelin/contracts/token/ERC1155/ERC1155.sol\";\r\nimport \"@openzeppelin/contracts/access/AccessControl.sol\";\r\nimport \"@openzeppelin/contracts/token/ERC1155/extensions/ERC1155Supply.sol\";\r\n\r\n/// @custom:security-contact adityapatkar22@gmail.com, archeelparekh11@gmail.com\r\ncontract MyToken is ERC1155, AccessControl, ERC1155Supply {\r\n    bytes32 public constant URI_SETTER_ROLE = keccak256(\"URI_SETTER_ROLE\");\r\n\r\n    struct Token {\r\n        address payable tokenAdmin;\r\n        uint256 rate;\r\n    }\r\n    uint256 _currentTokenIndex = 0;\r\n    Token[] _tokens;\r\n    address[] private _tokenHolders;\r\n    mapping(address => bool) _tokenHoldersMapping;\r\n\r\n    struct Poll {\r\n        string question;\r\n        string[] options;\r\n        uint256[] votes;\r\n    }\r\n    mapping(uint256 => Poll[]) pollsMapping;\r\n    mapping(uint256 => mapping(uint256 => mapping(address => bool))) votedMapping;\r\n\r\n    event AddNewToken(\r\n        address tokenAdmin,\r\n        uint256 tokenID,\r\n        uint256 amount,\r\n        uint256 rate\r\n    );\r\n    event BuyToken(\r\n        address tokenAdmin,\r\n        address buyer,\r\n        uint256 tokenID,\r\n        uint256 amount,\r\n        bytes data\r\n    );\r\n    event Disburse(\r\n        address tokenAdmin,\r\n        address holder,\r\n        uint256 tokenID,\r\n        bool success,\r\n        bytes data,\r\n        uint256 amount\r\n    );\r\n    event CreatePoll(address tokenAdmin, uint256 tokenID, Poll[] polls);\r\n    event Vote(address Voter, uint256 tokenID, uint256 pollID, uint256 weight);\r\n    event BuyProduct(\r\n        uint256 tokenID,\r\n        string productId,\r\n        uint256 amount,\r\n        string deliveryAddress,\r\n        string mobileNumber,\r\n        string email,\r\n        string name\r\n    );\r\n\r\n    modifier tokenExists(uint256 tokenID) {\r\n        require(\r\n            _tokens[tokenID].tokenAdmin != address(0),\r\n            \"Token Does Not Exist\"\r\n        );\r\n        _;\r\n    }\r\n\r\n    modifier isTokenAdmin(uint256 tokenID) {\r\n        require(_tokens[tokenID].tokenAdmin == msg.sender, \"Not Token Admin\");\r\n        _;\r\n    }\r\n\r\n    modifier notVoted(uint256 tokenID, uint256 pollID) {\r\n        require(!votedMapping[tokenID][pollID][msg.sender], \"Already voted\");\r\n        _;\r\n    }\r\n\r\n    constructor() ERC1155(\"\") {\r\n        _grantRole(DEFAULT_ADMIN_ROLE, msg.sender);\r\n        _grantRole(URI_SETTER_ROLE, msg.sender);\r\n    }\r\n\r\n    function setURI(string memory newuri) public onlyRole(URI_SETTER_ROLE) {\r\n        _setURI(newuri);\r\n    }\r\n\r\n    // Adding a new token\r\n    function addNewToken(\r\n        address payable tokenAdmin,\r\n        uint256 amount,\r\n        uint256 rate\r\n    ) public onlyRole(DEFAULT_ADMIN_ROLE) {\r\n        _tokens.push(Token(tokenAdmin, rate));\r\n        _mint(tokenAdmin, _currentTokenIndex, amount, \"\");\r\n        emit AddNewToken(tokenAdmin, _currentTokenIndex, amount, rate);\r\n        _currentTokenIndex += 1;\r\n    }\r\n\r\n    // Buying a new token\r\n    function buyToken(uint256 tokenID) public payable tokenExists(tokenID) {\r\n        (bool success, bytes memory data) = _tokens[tokenID].tokenAdmin.call{\r\n            value: msg.value\r\n        }(\"\");\r\n        require(success, \"Transaction failed!\");\r\n        uint256 amount = msg.value / _tokens[tokenID].rate;\r\n        _safeTransferFrom(\r\n            _tokens[tokenID].tokenAdmin,\r\n            msg.sender,\r\n            tokenID,\r\n            amount,\r\n            data\r\n        );\r\n        emit BuyToken(\r\n            _tokens[tokenID].tokenAdmin,\r\n            msg.sender,\r\n            tokenID,\r\n            amount,\r\n            data\r\n        );\r\n    }\r\n\r\n    // Buying a product\r\n    function buyProduct(\r\n        uint256 tokenID,\r\n        string memory productId,\r\n        uint256 amount,\r\n        string memory deliveryAddress,\r\n        string memory mobileNumber,\r\n        string memory email,\r\n        string memory name\r\n    ) public tokenExists(tokenID) {\r\n        _safeTransferFrom(\r\n            msg.sender,\r\n            _tokens[tokenID].tokenAdmin,\r\n            tokenID,\r\n            amount,\r\n            \"\"\r\n        );\r\n        emit BuyProduct(\r\n            tokenID,\r\n            productId,\r\n            amount,\r\n            deliveryAddress,\r\n            mobileNumber,\r\n            email,\r\n            name\r\n        );\r\n    }\r\n\r\n    // Disburse to holders\r\n    function disburse(uint256 tokenID) public payable isTokenAdmin(tokenID) {\r\n        for (uint256 i = 0; i < _tokenHolders.length; i++) {\r\n            uint256 amount = (balanceOf(_tokenHolders[i], tokenID) *\r\n                msg.value) / totalSupply(tokenID);\r\n            (bool success, bytes memory data) = _tokenHolders[i].call{\r\n                value: amount\r\n            }(\"\");\r\n            emit Disburse(\r\n                _tokens[tokenID].tokenAdmin,\r\n                _tokenHolders[i],\r\n                tokenID,\r\n                success,\r\n                data,\r\n                amount\r\n            );\r\n        }\r\n    }\r\n\r\n    // Create a poll\r\n    function createPoll(\r\n        uint256 tokenID,\r\n        string memory question,\r\n        string[] memory options\r\n    ) public isTokenAdmin(tokenID) {\r\n        uint256[] memory newVotes = new uint256[](options.length);\r\n        for (uint256 i = 0; i < options.length; i++) {\r\n            newVotes[i] = 0;\r\n        }\r\n        pollsMapping[tokenID].push(Poll(question, options, newVotes));\r\n        emit CreatePoll(msg.sender, tokenID, pollsMapping[tokenID]);\r\n    }\r\n\r\n    // Get all polls\r\n    function getPolls(uint256 tokenID)\r\n        public\r\n        view\r\n        returns (\r\n            Poll[] memory,\r\n            uint256[] memory,\r\n            uint256[] memory\r\n        )\r\n    {\r\n        Poll[] memory allPolls = pollsMapping[tokenID];\r\n        uint256[] memory answers = new uint256[](allPolls.length);\r\n        uint256[] memory numberOfVotes = new uint256[](allPolls.length);\r\n        for (uint256 pollID = 0; pollID < allPolls.length; pollID++) {\r\n            uint256[] memory votesArray = pollsMapping[tokenID][pollID].votes;\r\n            uint256 largest = 0;\r\n            uint256 option = 0;\r\n\r\n            for (uint256 i = 0; i < votesArray.length; i++) {\r\n                if (votesArray[i] > largest) {\r\n                    largest = votesArray[i];\r\n                    option = i;\r\n                }\r\n            }\r\n            answers[pollID] = option;\r\n            numberOfVotes[pollID] = largest;\r\n        }\r\n        return (allPolls, answers, numberOfVotes);\r\n    }\r\n\r\n    // Vote on a poll\r\n    function vote(\r\n        uint256 tokenID,\r\n        uint256 pollID,\r\n        uint256 option\r\n    ) public notVoted(tokenID, pollID) {\r\n        uint256 balance = balanceOf(msg.sender, tokenID);\r\n        pollsMapping[tokenID][pollID].votes[option] += balance;\r\n        votedMapping[tokenID][pollID][msg.sender] = true;\r\n        emit Vote(msg.sender, tokenID, pollID, balance);\r\n    }\r\n\r\n    // The following functions are overrides required by Solidity.\r\n    function _beforeTokenTransfer(\r\n        address operator,\r\n        address from,\r\n        address to,\r\n        uint256[] memory ids,\r\n        uint256[] memory amounts,\r\n        bytes memory data\r\n    ) internal override(ERC1155, ERC1155Supply) {\r\n        if (!_tokenHoldersMapping[to]) {\r\n            _tokenHolders.push(to);\r\n            _tokenHoldersMapping[to] = true;\r\n        }\r\n        super._beforeTokenTransfer(operator, from, to, ids, amounts, data);\r\n    }\r\n\r\n    function supportsInterface(bytes4 interfaceId)\r\n        public\r\n        view\r\n        override(ERC1155, AccessControl)\r\n        returns (bool)\r\n    {\r\n        return super.supportsInterface(interfaceId);\r\n    }\r\n}\r\n",
  "sourcePath": "D:\\Archeel\\Final-Year-Project\\SmartContracts\\contracts\\MyToken.sol",
  "compiler": {
    "name": "solc",
    "version": "0.8.13+commit.abaa5c0e.Emscripten.clang"
  },
  "schemaVersion": "3.4.3",
  "updatedAt": "2022-03-21T11:33:55.769Z",
  "devdoc": {
    "custom:security-contact": "adityapatkar22@gmail.com, archeelparekh11@gmail.com",
    "kind": "dev",
    "methods": {
      "balanceOf(address,uint256)": {
        "details": "See {IERC1155-balanceOf}. Requirements: - `account` cannot be the zero address."
      },
      "balanceOfBatch(address[],uint256[])": {
        "details": "See {IERC1155-balanceOfBatch}. Requirements: - `accounts` and `ids` must have the same length."
      },
      "exists(uint256)": {
        "details": "Indicates whether any token exist with a given id, or not."
      },
      "getRoleAdmin(bytes32)": {
        "details": "Returns the admin role that controls `role`. See {grantRole} and {revokeRole}. To change a role's admin, use {_setRoleAdmin}."
      },
      "grantRole(bytes32,address)": {
        "details": "Grants `role` to `account`. If `account` had not been already granted `role`, emits a {RoleGranted} event. Requirements: - the caller must have ``role``'s admin role."
      },
      "hasRole(bytes32,address)": {
        "details": "Returns `true` if `account` has been granted `role`."
      },
      "isApprovedForAll(address,address)": {
        "details": "See {IERC1155-isApprovedForAll}."
      },
      "renounceRole(bytes32,address)": {
        "details": "Revokes `role` from the calling account. Roles are often managed via {grantRole} and {revokeRole}: this function's purpose is to provide a mechanism for accounts to lose their privileges if they are compromised (such as when a trusted device is misplaced). If the calling account had been revoked `role`, emits a {RoleRevoked} event. Requirements: - the caller must be `account`."
      },
      "revokeRole(bytes32,address)": {
        "details": "Revokes `role` from `account`. If `account` had been granted `role`, emits a {RoleRevoked} event. Requirements: - the caller must have ``role``'s admin role."
      },
      "safeBatchTransferFrom(address,address,uint256[],uint256[],bytes)": {
        "details": "See {IERC1155-safeBatchTransferFrom}."
      },
      "safeTransferFrom(address,address,uint256,uint256,bytes)": {
        "details": "See {IERC1155-safeTransferFrom}."
      },
      "setApprovalForAll(address,bool)": {
        "details": "See {IERC1155-setApprovalForAll}."
      },
      "totalSupply(uint256)": {
        "details": "Total amount of tokens in with a given id."
      },
      "uri(uint256)": {
        "details": "See {IERC1155MetadataURI-uri}. This implementation returns the same URI for *all* token types. It relies on the token type ID substitution mechanism https://eips.ethereum.org/EIPS/eip-1155#metadata[defined in the EIP]. Clients calling this function must replace the `\\{id\\}` substring with the actual token type ID."
      }
    },
    "version": 1
  },
  "userdoc": {
    "kind": "user",
    "methods": {},
    "version": 1
  }
}