{
  "contractName": "MyToken",
  "abi": [
    {
      "inputs": [],
      "stateMutability": "nonpayable",
      "type": "constructor"
    },
    {
      "anonymous": false,
      "inputs": [
        {
          "indexed": false,
          "internalType": "address",
          "name": "tokenAdmin",
          "type": "address"
        },
        {
          "indexed": false,
          "internalType": "uint256",
          "name": "tokenID",
          "type": "uint256"
        },
        {
          "indexed": false,
          "internalType": "uint256",
          "name": "amount",
          "type": "uint256"
        },
        {
          "indexed": false,
          "internalType": "uint256",
          "name": "rate",
          "type": "uint256"
        }
      ],
      "name": "AddNewToken",
      "type": "event"
    },
    {
      "anonymous": false,
      "inputs": [
        {
          "indexed": true,
          "internalType": "address",
          "name": "account",
          "type": "address"
        },
        {
          "indexed": true,
          "internalType": "address",
          "name": "operator",
          "type": "address"
        },
        {
          "indexed": false,
          "internalType": "bool",
          "name": "approved",
          "type": "bool"
        }
      ],
      "name": "ApprovalForAll",
      "type": "event"
    },
    {
      "anonymous": false,
      "inputs": [
        {
          "indexed": false,
          "internalType": "address",
          "name": "tokenAdmin",
          "type": "address"
        },
        {
          "indexed": false,
          "internalType": "address",
          "name": "buyer",
          "type": "address"
        },
        {
          "indexed": false,
          "internalType": "uint256",
          "name": "tokenID",
          "type": "uint256"
        },
        {
          "indexed": false,
          "internalType": "uint256",
          "name": "amount",
          "type": "uint256"
        },
        {
          "indexed": false,
          "internalType": "bytes",
          "name": "data",
          "type": "bytes"
        }
      ],
      "name": "BuyToken",
      "type": "event"
    },
    {
      "anonymous": false,
      "inputs": [
        {
          "indexed": false,
          "internalType": "address",
          "name": "tokenAdmin",
          "type": "address"
        },
        {
          "indexed": false,
          "internalType": "uint256",
          "name": "tokenID",
          "type": "uint256"
        },
        {
          "components": [
            {
              "internalType": "string",
              "name": "question",
              "type": "string"
            },
            {
              "internalType": "string[]",
              "name": "options",
              "type": "string[]"
            },
            {
              "internalType": "uint256[]",
              "name": "votes",
              "type": "uint256[]"
            }
          ],
          "indexed": false,
          "internalType": "struct MyToken.Poll[]",
          "name": "polls",
          "type": "tuple[]"
        }
      ],
      "name": "CreatePoll",
      "type": "event"
    },
    {
      "anonymous": false,
      "inputs": [
        {
          "indexed": false,
          "internalType": "address",
          "name": "tokenAdmin",
          "type": "address"
        },
        {
          "indexed": false,
          "internalType": "address",
          "name": "holder",
          "type": "address"
        },
        {
          "indexed": false,
          "internalType": "uint256",
          "name": "tokenID",
          "type": "uint256"
        },
        {
          "indexed": false,
          "internalType": "bool",
          "name": "success",
          "type": "bool"
        },
        {
          "indexed": false,
          "internalType": "bytes",
          "name": "data",
          "type": "bytes"
        },
        {
          "indexed": false,
          "internalType": "uint256",
          "name": "amount",
          "type": "uint256"
        }
      ],
      "name": "Disburse",
      "type": "event"
    },
    {
      "anonymous": false,
      "inputs": [
        {
          "indexed": true,
          "internalType": "bytes32",
          "name": "role",
          "type": "bytes32"
        },
        {
          "indexed": true,
          "internalType": "bytes32",
          "name": "previousAdminRole",
          "type": "bytes32"
        },
        {
          "indexed": true,
          "internalType": "bytes32",
          "name": "newAdminRole",
          "type": "bytes32"
        }
      ],
      "name": "RoleAdminChanged",
      "type": "event"
    },
    {
      "anonymous": false,
      "inputs": [
        {
          "indexed": true,
          "internalType": "bytes32",
          "name": "role",
          "type": "bytes32"
        },
        {
          "indexed": true,
          "internalType": "address",
          "name": "account",
          "type": "address"
        },
        {
          "indexed": true,
          "internalType": "address",
          "name": "sender",
          "type": "address"
        }
      ],
      "name": "RoleGranted",
      "type": "event"
    },
    {
      "anonymous": false,
      "inputs": [
        {
          "indexed": true,
          "internalType": "bytes32",
          "name": "role",
          "type": "bytes32"
        },
        {
          "indexed": true,
          "internalType": "address",
          "name": "account",
          "type": "address"
        },
        {
          "indexed": true,
          "internalType": "address",
          "name": "sender",
          "type": "address"
        }
      ],
      "name": "RoleRevoked",
      "type": "event"
    },
    {
      "anonymous": false,
      "inputs": [
        {
          "indexed": true,
          "internalType": "address",
          "name": "operator",
          "type": "address"
        },
        {
          "indexed": true,
          "internalType": "address",
          "name": "from",
          "type": "address"
        },
        {
          "indexed": true,
          "internalType": "address",
          "name": "to",
          "type": "address"
        },
        {
          "indexed": false,
          "internalType": "uint256[]",
          "name": "ids",
          "type": "uint256[]"
        },
        {
          "indexed": false,
          "internalType": "uint256[]",
          "name": "values",
          "type": "uint256[]"
        }
      ],
      "name": "TransferBatch",
      "type": "event"
    },
    {
      "anonymous": false,
      "inputs": [
        {
          "indexed": true,
          "internalType": "address",
          "name": "operator",
          "type": "address"
        },
        {
          "indexed": true,
          "internalType": "address",
          "name": "from",
          "type": "address"
        },
        {
          "indexed": true,
          "internalType": "address",
          "name": "to",
          "type": "address"
        },
        {
          "indexed": false,
          "internalType": "uint256",
          "name": "id",
          "type": "uint256"
        },
        {
          "indexed": false,
          "internalType": "uint256",
          "name": "value",
          "type": "uint256"
        }
      ],
      "name": "TransferSingle",
      "type": "event"
    },
    {
      "anonymous": false,
      "inputs": [
        {
          "indexed": false,
          "internalType": "string",
          "name": "value",
          "type": "string"
        },
        {
          "indexed": true,
          "internalType": "uint256",
          "name": "id",
          "type": "uint256"
        }
      ],
      "name": "URI",
      "type": "event"
    },
    {
      "anonymous": false,
      "inputs": [
        {
          "indexed": false,
          "internalType": "address",
          "name": "Voter",
          "type": "address"
        },
        {
          "indexed": false,
          "internalType": "uint256",
          "name": "tokenID",
          "type": "uint256"
        },
        {
          "indexed": false,
          "internalType": "uint256",
          "name": "pollID",
          "type": "uint256"
        },
        {
          "indexed": false,
          "internalType": "uint256",
          "name": "weight",
          "type": "uint256"
        }
      ],
      "name": "Vote",
      "type": "event"
    },
    {
      "inputs": [],
      "name": "DEFAULT_ADMIN_ROLE",
      "outputs": [
        {
          "internalType": "bytes32",
          "name": "",
          "type": "bytes32"
        }
      ],
      "stateMutability": "view",
      "type": "function"
    },
    {
      "inputs": [],
      "name": "URI_SETTER_ROLE",
      "outputs": [
        {
          "internalType": "bytes32",
          "name": "",
          "type": "bytes32"
        }
      ],
      "stateMutability": "view",
      "type": "function"
    },
    {
      "inputs": [
        {
          "internalType": "address",
          "name": "account",
          "type": "address"
        },
        {
          "internalType": "uint256",
          "name": "id",
          "type": "uint256"
        }
      ],
      "name": "balanceOf",
      "outputs": [
        {
          "internalType": "uint256",
          "name": "",
          "type": "uint256"
        }
      ],
      "stateMutability": "view",
      "type": "function"
    },
    {
      "inputs": [
        {
          "internalType": "address[]",
          "name": "accounts",
          "type": "address[]"
        },
        {
          "internalType": "uint256[]",
          "name": "ids",
          "type": "uint256[]"
        }
      ],
      "name": "balanceOfBatch",
      "outputs": [
        {
          "internalType": "uint256[]",
          "name": "",
          "type": "uint256[]"
        }
      ],
      "stateMutability": "view",
      "type": "function"
    },
    {
      "inputs": [
        {
          "internalType": "uint256",
          "name": "id",
          "type": "uint256"
        }
      ],
      "name": "exists",
      "outputs": [
        {
          "internalType": "bool",
          "name": "",
          "type": "bool"
        }
      ],
      "stateMutability": "view",
      "type": "function"
    },
    {
      "inputs": [
        {
          "internalType": "bytes32",
          "name": "role",
          "type": "bytes32"
        }
      ],
      "name": "getRoleAdmin",
      "outputs": [
        {
          "internalType": "bytes32",
          "name": "",
          "type": "bytes32"
        }
      ],
      "stateMutability": "view",
      "type": "function"
    },
    {
      "inputs": [
        {
          "internalType": "bytes32",
          "name": "role",
          "type": "bytes32"
        },
        {
          "internalType": "address",
          "name": "account",
          "type": "address"
        }
      ],
      "name": "grantRole",
      "outputs": [],
      "stateMutability": "nonpayable",
      "type": "function"
    },
    {
      "inputs": [
        {
          "internalType": "bytes32",
          "name": "role",
          "type": "bytes32"
        },
        {
          "internalType": "address",
          "name": "account",
          "type": "address"
        }
      ],
      "name": "hasRole",
      "outputs": [
        {
          "internalType": "bool",
          "name": "",
          "type": "bool"
        }
      ],
      "stateMutability": "view",
      "type": "function"
    },
    {
      "inputs": [
        {
          "internalType": "address",
          "name": "account",
          "type": "address"
        },
        {
          "internalType": "address",
          "name": "operator",
          "type": "address"
        }
      ],
      "name": "isApprovedForAll",
      "outputs": [
        {
          "internalType": "bool",
          "name": "",
          "type": "bool"
        }
      ],
      "stateMutability": "view",
      "type": "function"
    },
    {
      "inputs": [
        {
          "internalType": "bytes32",
          "name": "role",
          "type": "bytes32"
        },
        {
          "internalType": "address",
          "name": "account",
          "type": "address"
        }
      ],
      "name": "renounceRole",
      "outputs": [],
      "stateMutability": "nonpayable",
      "type": "function"
    },
    {
      "inputs": [
        {
          "internalType": "bytes32",
          "name": "role",
          "type": "bytes32"
        },
        {
          "internalType": "address",
          "name": "account",
          "type": "address"
        }
      ],
      "name": "revokeRole",
      "outputs": [],
      "stateMutability": "nonpayable",
      "type": "function"
    },
    {
      "inputs": [
        {
          "internalType": "address",
          "name": "from",
          "type": "address"
        },
        {
          "internalType": "address",
          "name": "to",
          "type": "address"
        },
        {
          "internalType": "uint256[]",
          "name": "ids",
          "type": "uint256[]"
        },
        {
          "internalType": "uint256[]",
          "name": "amounts",
          "type": "uint256[]"
        },
        {
          "internalType": "bytes",
          "name": "data",
          "type": "bytes"
        }
      ],
      "name": "safeBatchTransferFrom",
      "outputs": [],
      "stateMutability": "nonpayable",
      "type": "function"
    },
    {
      "inputs": [
        {
          "internalType": "address",
          "name": "from",
          "type": "address"
        },
        {
          "internalType": "address",
          "name": "to",
          "type": "address"
        },
        {
          "internalType": "uint256",
          "name": "id",
          "type": "uint256"
        },
        {
          "internalType": "uint256",
          "name": "amount",
          "type": "uint256"
        },
        {
          "internalType": "bytes",
          "name": "data",
          "type": "bytes"
        }
      ],
      "name": "safeTransferFrom",
      "outputs": [],
      "stateMutability": "nonpayable",
      "type": "function"
    },
    {
      "inputs": [
        {
          "internalType": "address",
          "name": "operator",
          "type": "address"
        },
        {
          "internalType": "bool",
          "name": "approved",
          "type": "bool"
        }
      ],
      "name": "setApprovalForAll",
      "outputs": [],
      "stateMutability": "nonpayable",
      "type": "function"
    },
    {
      "inputs": [
        {
          "internalType": "uint256",
          "name": "id",
          "type": "uint256"
        }
      ],
      "name": "totalSupply",
      "outputs": [
        {
          "internalType": "uint256",
          "name": "",
          "type": "uint256"
        }
      ],
      "stateMutability": "view",
      "type": "function"
    },
    {
      "inputs": [
        {
          "internalType": "uint256",
          "name": "",
          "type": "uint256"
        }
      ],
      "name": "uri",
      "outputs": [
        {
          "internalType": "string",
          "name": "",
          "type": "string"
        }
      ],
      "stateMutability": "view",
      "type": "function"
    },
    {
      "inputs": [
        {
          "internalType": "string",
          "name": "newuri",
          "type": "string"
        }
      ],
      "name": "setURI",
      "outputs": [],
      "stateMutability": "nonpayable",
      "type": "function"
    },
    {
      "inputs": [
        {
          "internalType": "address payable",
          "name": "tokenAdmin",
          "type": "address"
        },
        {
          "internalType": "uint256",
          "name": "amount",
          "type": "uint256"
        },
        {
          "internalType": "uint256",
          "name": "rate",
          "type": "uint256"
        }
      ],
      "name": "addNewToken",
      "outputs": [],
      "stateMutability": "nonpayable",
      "type": "function"
    },
    {
      "inputs": [
        {
          "internalType": "uint256",
          "name": "tokenID",
          "type": "uint256"
        }
      ],
      "name": "buyToken",
      "outputs": [],
      "stateMutability": "payable",
      "type": "function"
    },
    {
      "inputs": [
        {
          "internalType": "uint256",
          "name": "tokenID",
          "type": "uint256"
        }
      ],
      "name": "disburse",
      "outputs": [],
      "stateMutability": "payable",
      "type": "function"
    },
    {
      "inputs": [
        {
          "internalType": "uint256",
          "name": "tokenID",
          "type": "uint256"
        },
        {
          "internalType": "string",
          "name": "question",
          "type": "string"
        },
        {
          "internalType": "string[]",
          "name": "options",
          "type": "string[]"
        }
      ],
      "name": "createPoll",
      "outputs": [],
      "stateMutability": "nonpayable",
      "type": "function"
    },
    {
      "inputs": [
        {
          "internalType": "uint256",
          "name": "tokenID",
          "type": "uint256"
        }
      ],
      "name": "getPolls",
      "outputs": [
        {
          "components": [
            {
              "internalType": "string",
              "name": "question",
              "type": "string"
            },
            {
              "internalType": "string[]",
              "name": "options",
              "type": "string[]"
            },
            {
              "internalType": "uint256[]",
              "name": "votes",
              "type": "uint256[]"
            }
          ],
          "internalType": "struct MyToken.Poll[]",
          "name": "",
          "type": "tuple[]"
        }
      ],
      "stateMutability": "view",
      "type": "function"
    },
    {
      "inputs": [
        {
          "internalType": "uint256",
          "name": "tokenID",
          "type": "uint256"
        },
        {
          "internalType": "uint256",
          "name": "pollID",
          "type": "uint256"
        },
        {
          "internalType": "uint256",
          "name": "option",
          "type": "uint256"
        }
      ],
      "name": "vote",
      "outputs": [],
      "stateMutability": "nonpayable",
      "type": "function"
    },
    {
      "inputs": [
        {
          "internalType": "uint256",
          "name": "tokenID",
          "type": "uint256"
        },
        {
          "internalType": "uint256",
          "name": "pollID",
          "type": "uint256"
        }
      ],
      "name": "getPollResults",
      "outputs": [
        {
          "internalType": "string",
          "name": "",
          "type": "string"
        },
        {
          "internalType": "uint256",
          "name": "",
          "type": "uint256"
        }
      ],
      "stateMutability": "view",
      "type": "function"
    },
    {
      "inputs": [
        {
          "internalType": "bytes4",
          "name": "interfaceId",
          "type": "bytes4"
        }
      ],
      "name": "supportsInterface",
      "outputs": [
        {
          "internalType": "bool",
          "name": "",
          "type": "bool"
        }
      ],
      "stateMutability": "view",
      "type": "function"
    }
  ],
  "bytecode": "0x608060405260006005553480156200001657600080fd5b506040518060200160405280600081525062000038816200008660201b60201c565b506200004e6000801b33620000a260201b60201c565b620000807f7804d923f43a17d325d77e781528e0793b2edd9890ab45fc64efd7b4b427744c33620000a260201b60201c565b6200031c565b80600290805190602001906200009e92919062000207565b5050565b620000b482826200019460201b60201c565b620001905760016003600084815260200190815260200160002060000160008373ffffffffffffffffffffffffffffffffffffffff1673ffffffffffffffffffffffffffffffffffffffff16815260200190815260200160002060006101000a81548160ff02191690831515021790555062000135620001ff60201b60201c565b73ffffffffffffffffffffffffffffffffffffffff168173ffffffffffffffffffffffffffffffffffffffff16837f2f8788117e7eff1d82e926ec794901d17c78024a50270940304540a733656f0d60405160405180910390a45b5050565b60006003600084815260200190815260200160002060000160008373ffffffffffffffffffffffffffffffffffffffff1673ffffffffffffffffffffffffffffffffffffffff16815260200190815260200160002060009054906101000a900460ff16905092915050565b600033905090565b8280546200021590620002e6565b90600052602060002090601f01602090048101928262000239576000855562000285565b82601f106200025457805160ff191683800117855562000285565b8280016001018555821562000285579182015b828111156200028457825182559160200191906001019062000267565b5b50905062000294919062000298565b5090565b5b80821115620002b357600081600090555060010162000299565b5090565b7f4e487b7100000000000000000000000000000000000000000000000000000000600052602260045260246000fd5b60006002820490506001821680620002ff57607f821691505b60208210811415620003165762000315620002b7565b5b50919050565b6157fc806200032c6000396000f3fe6080604052600436106101655760003560e01c80634f558e79116100d1578063a22cb4651161008a578063ce2dee0511610064578063ce2dee0514610566578063d547741f146105a3578063e985e9c5146105cc578063f242432a1461060957610165565b8063a22cb465146104e4578063bd77ac2c1461050d578063bd85b0391461052957610165565b80634f558e79146103c2578063600a65df146103ff5780637f345710146104285780638a6655d61461045357806391d148541461047c578063a217fddf146104b957610165565b80632d296bf1116101235780632d296bf1146102b05780632eb2c2d6146102cc5780632f2ff15d146102f557806336568abe1461031e578063425cdbb5146103475780634e1273f41461038557610165565b8062fdd58e1461016a57806301ffc9a7146101a757806302fe5305146101e45780630c9ef9a21461020d5780630e89341c14610236578063248a9ca314610273575b600080fd5b34801561017657600080fd5b50610191600480360381019061018c91906133f5565b610632565b60405161019e9190613444565b60405180910390f35b3480156101b357600080fd5b506101ce60048036038101906101c991906134b7565b6106fb565b6040516101db91906134ff565b60405180910390f35b3480156101f057600080fd5b5061020b60048036038101906102069190613660565b61070d565b005b34801561021957600080fd5b50610234600480360381019061022f919061378f565b61074c565b005b34801561024257600080fd5b5061025d6004803603810190610258919061381a565b610993565b60405161026a91906138cf565b60405180910390f35b34801561027f57600080fd5b5061029a60048036038101906102959190613927565b610a27565b6040516102a79190613963565b60405180910390f35b6102ca60048036038101906102c5919061381a565b610a47565b005b3480156102d857600080fd5b506102f360048036038101906102ee9190613ae2565b610d02565b005b34801561030157600080fd5b5061031c60048036038101906103179190613bb1565b610da3565b005b34801561032a57600080fd5b5061034560048036038101906103409190613bb1565b610dcc565b005b34801561035357600080fd5b5061036e60048036038101906103699190613bf1565b610e4f565b60405161037c929190613c31565b60405180910390f35b34801561039157600080fd5b506103ac60048036038101906103a79190613d24565b611031565b6040516103b99190613e5a565b60405180910390f35b3480156103ce57600080fd5b506103e960048036038101906103e4919061381a565b61114a565b6040516103f691906134ff565b60405180910390f35b34801561040b57600080fd5b5061042660048036038101906104219190613eba565b61115e565b005b34801561043457600080fd5b5061043d611298565b60405161044a9190613963565b60405180910390f35b34801561045f57600080fd5b5061047a60048036038101906104759190613f0d565b6112bc565b005b34801561048857600080fd5b506104a3600480360381019061049e9190613bb1565b6114a3565b6040516104b091906134ff565b60405180910390f35b3480156104c557600080fd5b506104ce61150e565b6040516104db9190613963565b60405180910390f35b3480156104f057600080fd5b5061050b60048036038101906105069190613f8c565b611515565b005b6105276004803603810190610522919061381a565b61152b565b005b34801561053557600080fd5b50610550600480360381019061054b919061381a565b6117e4565b60405161055d9190613444565b60405180910390f35b34801561057257600080fd5b5061058d6004803603810190610588919061381a565b611801565b60405161059a9190614267565b60405180910390f35b3480156105af57600080fd5b506105ca60048036038101906105c59190613bb1565b611a3c565b005b3480156105d857600080fd5b506105f360048036038101906105ee9190614289565b611a65565b60405161060091906134ff565b60405180910390f35b34801561061557600080fd5b50610630600480360381019061062b91906142c9565b611af9565b005b60008073ffffffffffffffffffffffffffffffffffffffff168373ffffffffffffffffffffffffffffffffffffffff1614156106a3576040517f08c379a000000000000000000000000000000000000000000000000000000000815260040161069a906143d2565b60405180910390fd5b60008083815260200190815260200160002060008473ffffffffffffffffffffffffffffffffffffffff1673ffffffffffffffffffffffffffffffffffffffff16815260200190815260200160002054905092915050565b600061070682611b9a565b9050919050565b7f7804d923f43a17d325d77e781528e0793b2edd9890ab45fc64efd7b4b427744c61073f8161073a611c14565b611c1c565b61074882611cb9565b5050565b823373ffffffffffffffffffffffffffffffffffffffff1660068281548110610778576107776143f2565b5b906000526020600020906002020160000160009054906101000a900473ffffffffffffffffffffffffffffffffffffffff1673ffffffffffffffffffffffffffffffffffffffff1614610800576040517f08c379a00000000000000000000000000000000000000000000000000000000081526004016107f79061446d565b60405180910390fd5b6000825167ffffffffffffffff81111561081d5761081c613535565b5b60405190808252806020026020018201604052801561084b5781602001602082028036833780820191505090505b50905060005b835181101561088e57600082828151811061086f5761086e6143f2565b5b6020026020010181815250508080610886906144bc565b915050610851565b506009600086815260200190815260200160002060405180606001604052808681526020018581526020018381525090806001815401808255809150506001900390600052602060002090600302016000909190919091506000820151816000019080519060200190610902929190613199565b50602082015181600101908051906020019061091f92919061321f565b50604082015181600201908051906020019061093c92919061327f565b5050507f37d80bfa4cabc29501fdb25be0eb46ef12f14a245dcd8ac773935e6112406a42338660096000898152602001908152602001600020604051610984939291906148a7565b60405180910390a15050505050565b6060600280546109a290614563565b80601f01602080910402602001604051908101604052809291908181526020018280546109ce90614563565b8015610a1b5780601f106109f057610100808354040283529160200191610a1b565b820191906000526020600020905b8154815290600101906020018083116109fe57829003601f168201915b50505050509050919050565b600060036000838152602001908152602001600020600101549050919050565b80600073ffffffffffffffffffffffffffffffffffffffff1660068281548110610a7457610a736143f2565b5b906000526020600020906002020160000160009054906101000a900473ffffffffffffffffffffffffffffffffffffffff1673ffffffffffffffffffffffffffffffffffffffff161415610afd576040517f08c379a0000000000000000000000000000000000000000000000000000000008152600401610af490614931565b60405180910390fd5b60008060068481548110610b1457610b136143f2565b5b906000526020600020906002020160000160009054906101000a900473ffffffffffffffffffffffffffffffffffffffff1673ffffffffffffffffffffffffffffffffffffffff1634604051610b6990614982565b60006040518083038185875af1925050503d8060008114610ba6576040519150601f19603f3d011682016040523d82523d6000602084013e610bab565b606091505b509150915081610bf0576040517f08c379a0000000000000000000000000000000000000000000000000000000008152600401610be7906149e3565b60405180910390fd5b600060068581548110610c0657610c056143f2565b5b90600052602060002090600202016001015434610c239190614a32565b9050610c7760068681548110610c3c57610c3b6143f2565b5b906000526020600020906002020160000160009054906101000a900473ffffffffffffffffffffffffffffffffffffffff1633878486611cd3565b7f3138022358a8810b94b406356f325ea086dad47c99cf2a60890c8a321aca15d960068681548110610cac57610cab6143f2565b5b906000526020600020906002020160000160009054906101000a900473ffffffffffffffffffffffffffffffffffffffff1633878486604051610cf3959493929190614b17565b60405180910390a15050505050565b610d0a611c14565b73ffffffffffffffffffffffffffffffffffffffff168573ffffffffffffffffffffffffffffffffffffffff161480610d505750610d4f85610d4a611c14565b611a65565b5b610d8f576040517f08c379a0000000000000000000000000000000000000000000000000000000008152600401610d8690614be3565b60405180910390fd5b610d9c8585858585611f55565b5050505050565b610dac82610a27565b610dbd81610db8611c14565b611c1c565b610dc78383612269565b505050565b610dd4611c14565b73ffffffffffffffffffffffffffffffffffffffff168173ffffffffffffffffffffffffffffffffffffffff1614610e41576040517f08c379a0000000000000000000000000000000000000000000000000000000008152600401610e3890614c75565b60405180910390fd5b610e4b828261234a565b5050565b6060600080600960008681526020019081526020016000208481548110610e7957610e786143f2565b5b9060005260206000209060030201600201805480602002602001604051908101604052809291908181526020018280548015610ed457602002820191906000526020600020905b815481526020019060010190808311610ec0575b5050505050905060008060005b8351811015610f405782848281518110610efe57610efd6143f2565b5b60200260200101511115610f2d57838181518110610f1f57610f1e6143f2565b5b602002602001015192508091505b8080610f38906144bc565b915050610ee1565b506000600960008981526020019081526020016000208781548110610f6857610f676143f2565b5b90600052602060002090600302016001018281548110610f8b57610f8a6143f2565b5b906000526020600020018054610fa090614563565b80601f0160208091040260200160405190810160405280929190818152602001828054610fcc90614563565b80156110195780601f10610fee57610100808354040283529160200191611019565b820191906000526020600020905b815481529060010190602001808311610ffc57829003601f168201915b50505050509050808395509550505050509250929050565b60608151835114611077576040517f08c379a000000000000000000000000000000000000000000000000000000000815260040161106e90614d07565b60405180910390fd5b6000835167ffffffffffffffff81111561109457611093613535565b5b6040519080825280602002602001820160405280156110c25781602001602082028036833780820191505090505b50905060005b845181101561113f5761110f8582815181106110e7576110e66143f2565b5b6020026020010151858381518110611102576111016143f2565b5b6020026020010151610632565b828281518110611122576111216143f2565b5b60200260200101818152505080611138906144bc565b90506110c8565b508091505092915050565b600080611156836117e4565b119050919050565b6000801b6111738161116e611c14565b611c1c565b600660405180604001604052808673ffffffffffffffffffffffffffffffffffffffff16815260200184815250908060018154018082558091505060019003906000526020600020906002020160009091909190915060008201518160000160006101000a81548173ffffffffffffffffffffffffffffffffffffffff021916908373ffffffffffffffffffffffffffffffffffffffff16021790555060208201518160010155505061123984600554856040518060200160405280600081525061242c565b7fe9eb42f8ecbee1afc1aca5b0be2080f3718fe855ba1c1cdc22db679c7d2b170f8460055485856040516112709493929190614d27565b60405180910390a160016005600082825461128b9190614d6c565b9250508190555050505050565b7f7804d923f43a17d325d77e781528e0793b2edd9890ab45fc64efd7b4b427744c81565b8282600a6000838152602001908152602001600020600082815260200190815260200160002060003373ffffffffffffffffffffffffffffffffffffffff1673ffffffffffffffffffffffffffffffffffffffff16815260200190815260200160002060009054906101000a900460ff161561136d576040517f08c379a000000000000000000000000000000000000000000000000000000000815260040161136490614e0e565b60405180910390fd5b60006113793387610632565b9050806009600088815260200190815260200160002086815481106113a1576113a06143f2565b5b906000526020600020906003020160020185815481106113c4576113c36143f2565b5b9060005260206000200160008282546113dd9190614d6c565b925050819055506001600a6000888152602001908152602001600020600087815260200190815260200160002060003373ffffffffffffffffffffffffffffffffffffffff1673ffffffffffffffffffffffffffffffffffffffff16815260200190815260200160002060006101000a81548160ff0219169083151502179055507f6c7eb2743ec28489909706ea440d909129004996be657d36c6e9add778546abf338787846040516114939493929190614e2e565b60405180910390a1505050505050565b60006003600084815260200190815260200160002060000160008373ffffffffffffffffffffffffffffffffffffffff1673ffffffffffffffffffffffffffffffffffffffff16815260200190815260200160002060009054906101000a900460ff16905092915050565b6000801b81565b611527611520611c14565b83836125c2565b5050565b803373ffffffffffffffffffffffffffffffffffffffff1660068281548110611557576115566143f2565b5b906000526020600020906002020160000160009054906101000a900473ffffffffffffffffffffffffffffffffffffffff1673ffffffffffffffffffffffffffffffffffffffff16146115df576040517f08c379a00000000000000000000000000000000000000000000000000000000081526004016115d69061446d565b60405180910390fd5b60005b6007805490508110156117df5760006115fa846117e4565b3461164360078581548110611612576116116143f2565b5b9060005260206000200160009054906101000a900473ffffffffffffffffffffffffffffffffffffffff1687610632565b61164d9190614e73565b6116579190614a32565b9050600080600784815481106116705761166f6143f2565b5b9060005260206000200160009054906101000a900473ffffffffffffffffffffffffffffffffffffffff1673ffffffffffffffffffffffffffffffffffffffff16836040516116be90614982565b60006040518083038185875af1925050503d80600081146116fb576040519150601f19603f3d011682016040523d82523d6000602084013e611700565b606091505b50915091507f8ebe82e5be42b667883a49114b153e27d7fbf05869a57c0778e7010c18cb77636006878154811061173a576117396143f2565b5b906000526020600020906002020160000160009054906101000a900473ffffffffffffffffffffffffffffffffffffffff16600786815481106117805761177f6143f2565b5b9060005260206000200160009054906101000a900473ffffffffffffffffffffffffffffffffffffffff16888585886040516117c196959493929190614ecd565b60405180910390a150505080806117d7906144bc565b9150506115e2565b505050565b600060046000838152602001908152602001600020549050919050565b6060600060096000848152602001908152602001600020805480602002602001604051908101604052809291908181526020016000905b82821015611a2d578382906000526020600020906003020160405180606001604052908160008201805461186b90614563565b80601f016020809104026020016040519081016040528092919081815260200182805461189790614563565b80156118e45780601f106118b9576101008083540402835291602001916118e4565b820191906000526020600020905b8154815290600101906020018083116118c757829003601f168201915b5050505050815260200160018201805480602002602001604051908101604052809291908181526020016000905b828210156119be57838290600052602060002001805461193190614563565b80601f016020809104026020016040519081016040528092919081815260200182805461195d90614563565b80156119aa5780601f1061197f576101008083540402835291602001916119aa565b820191906000526020600020905b81548152906001019060200180831161198d57829003601f168201915b505050505081526020019060010190611912565b50505050815260200160028201805480602002602001604051908101604052809291908181526020018280548015611a1557602002820191906000526020600020905b815481526020019060010190808311611a01575b50505050508152505081526020019060010190611838565b50505050905080915050919050565b611a4582610a27565b611a5681611a51611c14565b611c1c565b611a60838361234a565b505050565b6000600160008473ffffffffffffffffffffffffffffffffffffffff1673ffffffffffffffffffffffffffffffffffffffff16815260200190815260200160002060008373ffffffffffffffffffffffffffffffffffffffff1673ffffffffffffffffffffffffffffffffffffffff16815260200190815260200160002060009054906101000a900460ff16905092915050565b611b01611c14565b73ffffffffffffffffffffffffffffffffffffffff168573ffffffffffffffffffffffffffffffffffffffff161480611b475750611b4685611b41611c14565b611a65565b5b611b86576040517f08c379a0000000000000000000000000000000000000000000000000000000008152600401611b7d90614fa7565b60405180910390fd5b611b938585858585611cd3565b5050505050565b60007f7965db0b000000000000000000000000000000000000000000000000000000007bffffffffffffffffffffffffffffffffffffffffffffffffffffffff1916827bffffffffffffffffffffffffffffffffffffffffffffffffffffffff19161480611c0d5750611c0c8261272f565b5b9050919050565b600033905090565b611c2682826114a3565b611cb557611c4b8173ffffffffffffffffffffffffffffffffffffffff166014612811565b611c598360001c6020612811565b604051602001611c6a92919061509b565b6040516020818303038152906040526040517f08c379a0000000000000000000000000000000000000000000000000000000008152600401611cac91906138cf565b60405180910390fd5b5050565b8060029080519060200190611ccf929190613199565b5050565b600073ffffffffffffffffffffffffffffffffffffffff168473ffffffffffffffffffffffffffffffffffffffff161415611d43576040517f08c379a0000000000000000000000000000000000000000000000000000000008152600401611d3a90615147565b60405180910390fd5b6000611d4d611c14565b9050611d6d818787611d5e88612a4d565b611d6788612a4d565b87612ac7565b600080600086815260200190815260200160002060008873ffffffffffffffffffffffffffffffffffffffff1673ffffffffffffffffffffffffffffffffffffffff16815260200190815260200160002054905083811015611e04576040517f08c379a0000000000000000000000000000000000000000000000000000000008152600401611dfb906151d9565b60405180910390fd5b83810360008087815260200190815260200160002060008973ffffffffffffffffffffffffffffffffffffffff1673ffffffffffffffffffffffffffffffffffffffff168152602001908152602001600020819055508360008087815260200190815260200160002060008873ffffffffffffffffffffffffffffffffffffffff1673ffffffffffffffffffffffffffffffffffffffff1681526020019081526020016000206000828254611eb99190614d6c565b925050819055508573ffffffffffffffffffffffffffffffffffffffff168773ffffffffffffffffffffffffffffffffffffffff168373ffffffffffffffffffffffffffffffffffffffff167fc3d58168c5ae7397731d063d5bbf3d657854427343f4c083240f7aacaa2d0f628888604051611f369291906151f9565b60405180910390a4611f4c828888888888612bea565b50505050505050565b8151835114611f99576040517f08c379a0000000000000000000000000000000000000000000000000000000008152600401611f9090615294565b60405180910390fd5b600073ffffffffffffffffffffffffffffffffffffffff168473ffffffffffffffffffffffffffffffffffffffff161415612009576040517f08c379a000000000000000000000000000000000000000000000000000000000815260040161200090615147565b60405180910390fd5b6000612013611c14565b9050612023818787878787612ac7565b60005b84518110156121d4576000858281518110612044576120436143f2565b5b602002602001015190506000858381518110612063576120626143f2565b5b60200260200101519050600080600084815260200190815260200160002060008b73ffffffffffffffffffffffffffffffffffffffff1673ffffffffffffffffffffffffffffffffffffffff16815260200190815260200160002054905081811015612104576040517f08c379a00000000000000000000000000000000000000000000000000000000081526004016120fb906151d9565b60405180910390fd5b81810360008085815260200190815260200160002060008c73ffffffffffffffffffffffffffffffffffffffff1673ffffffffffffffffffffffffffffffffffffffff168152602001908152602001600020819055508160008085815260200190815260200160002060008b73ffffffffffffffffffffffffffffffffffffffff1673ffffffffffffffffffffffffffffffffffffffff16815260200190815260200160002060008282546121b99190614d6c565b92505081905550505050806121cd906144bc565b9050612026565b508473ffffffffffffffffffffffffffffffffffffffff168673ffffffffffffffffffffffffffffffffffffffff168273ffffffffffffffffffffffffffffffffffffffff167f4a39dc06d4c0dbc64b70af90fd698a233a518aa5d07e595d983b8c0526c8f7fb878760405161224b9291906152b4565b60405180910390a4612261818787878787612dc2565b505050505050565b61227382826114a3565b6123465760016003600084815260200190815260200160002060000160008373ffffffffffffffffffffffffffffffffffffffff1673ffffffffffffffffffffffffffffffffffffffff16815260200190815260200160002060006101000a81548160ff0219169083151502179055506122eb611c14565b73ffffffffffffffffffffffffffffffffffffffff168173ffffffffffffffffffffffffffffffffffffffff16837f2f8788117e7eff1d82e926ec794901d17c78024a50270940304540a733656f0d60405160405180910390a45b5050565b61235482826114a3565b156124285760006003600084815260200190815260200160002060000160008373ffffffffffffffffffffffffffffffffffffffff1673ffffffffffffffffffffffffffffffffffffffff16815260200190815260200160002060006101000a81548160ff0219169083151502179055506123cd611c14565b73ffffffffffffffffffffffffffffffffffffffff168173ffffffffffffffffffffffffffffffffffffffff16837ff6391f5c32d9c69d2a47ea670b442974b53935d1edc7fd64eb21e047a839171b60405160405180910390a45b5050565b600073ffffffffffffffffffffffffffffffffffffffff168473ffffffffffffffffffffffffffffffffffffffff16141561249c576040517f08c379a00000000000000000000000000000000000000000000000000000000081526004016124939061535d565b60405180910390fd5b60006124a6611c14565b90506124c7816000876124b888612a4d565b6124c188612a4d565b87612ac7565b8260008086815260200190815260200160002060008773ffffffffffffffffffffffffffffffffffffffff1673ffffffffffffffffffffffffffffffffffffffff16815260200190815260200160002060008282546125269190614d6c565b925050819055508473ffffffffffffffffffffffffffffffffffffffff16600073ffffffffffffffffffffffffffffffffffffffff168273ffffffffffffffffffffffffffffffffffffffff167fc3d58168c5ae7397731d063d5bbf3d657854427343f4c083240f7aacaa2d0f6287876040516125a49291906151f9565b60405180910390a46125bb81600087878787612bea565b5050505050565b8173ffffffffffffffffffffffffffffffffffffffff168373ffffffffffffffffffffffffffffffffffffffff161415612631576040517f08c379a0000000000000000000000000000000000000000000000000000000008152600401612628906153ef565b60405180910390fd5b80600160008573ffffffffffffffffffffffffffffffffffffffff1673ffffffffffffffffffffffffffffffffffffffff16815260200190815260200160002060008473ffffffffffffffffffffffffffffffffffffffff1673ffffffffffffffffffffffffffffffffffffffff16815260200190815260200160002060006101000a81548160ff0219169083151502179055508173ffffffffffffffffffffffffffffffffffffffff168373ffffffffffffffffffffffffffffffffffffffff167f17307eab39ab6107e8899845ad3d59bd9653f200f220920489ca2b5937696c318360405161272291906134ff565b60405180910390a3505050565b60007fd9b67a26000000000000000000000000000000000000000000000000000000007bffffffffffffffffffffffffffffffffffffffffffffffffffffffff1916827bffffffffffffffffffffffffffffffffffffffffffffffffffffffff191614806127fa57507f0e89341c000000000000000000000000000000000000000000000000000000007bffffffffffffffffffffffffffffffffffffffffffffffffffffffff1916827bffffffffffffffffffffffffffffffffffffffffffffffffffffffff1916145b8061280a575061280982612f9a565b5b9050919050565b6060600060028360026128249190614e73565b61282e9190614d6c565b67ffffffffffffffff81111561284757612846613535565b5b6040519080825280601f01601f1916602001820160405280156128795781602001600182028036833780820191505090505b5090507f3000000000000000000000000000000000000000000000000000000000000000816000815181106128b1576128b06143f2565b5b60200101907effffffffffffffffffffffffffffffffffffffffffffffffffffffffffffff1916908160001a9053507f780000000000000000000000000000000000000000000000000000000000000081600181518110612915576129146143f2565b5b60200101907effffffffffffffffffffffffffffffffffffffffffffffffffffffffffffff1916908160001a905350600060018460026129559190614e73565b61295f9190614d6c565b90505b60018111156129ff577f3031323334353637383961626364656600000000000000000000000000000000600f8616601081106129a1576129a06143f2565b5b1a60f81b8282815181106129b8576129b76143f2565b5b60200101907effffffffffffffffffffffffffffffffffffffffffffffffffffffffffffff1916908160001a905350600485901c9450806129f89061540f565b9050612962565b5060008414612a43576040517f08c379a0000000000000000000000000000000000000000000000000000000008152600401612a3a90615485565b60405180910390fd5b8091505092915050565b60606000600167ffffffffffffffff811115612a6c57612a6b613535565b5b604051908082528060200260200182016040528015612a9a5781602001602082028036833780820191505090505b5090508281600081518110612ab257612ab16143f2565b5b60200260200101818152505080915050919050565b600860008573ffffffffffffffffffffffffffffffffffffffff1673ffffffffffffffffffffffffffffffffffffffff16815260200190815260200160002060009054906101000a900460ff16612bd4576007849080600181540180825580915050600190039060005260206000200160009091909190916101000a81548173ffffffffffffffffffffffffffffffffffffffff021916908373ffffffffffffffffffffffffffffffffffffffff1602179055506001600860008673ffffffffffffffffffffffffffffffffffffffff1673ffffffffffffffffffffffffffffffffffffffff16815260200190815260200160002060006101000a81548160ff0219169083151502179055505b612be2868686868686613004565b505050505050565b612c098473ffffffffffffffffffffffffffffffffffffffff1661317e565b15612dba578373ffffffffffffffffffffffffffffffffffffffff1663f23a6e6187878686866040518663ffffffff1660e01b8152600401612c4f9594939291906154a5565b6020604051808303816000875af1925050508015612c8b57506040513d601f19601f82011682018060405250810190612c889190615514565b60015b612d3157612c9761554e565b806308c379a01415612cf45750612cac615570565b80612cb75750612cf6565b806040517f08c379a0000000000000000000000000000000000000000000000000000000008152600401612ceb91906138cf565b60405180910390fd5b505b6040517f08c379a0000000000000000000000000000000000000000000000000000000008152600401612d2890615678565b60405180910390fd5b63f23a6e6160e01b7bffffffffffffffffffffffffffffffffffffffffffffffffffffffff1916817bffffffffffffffffffffffffffffffffffffffffffffffffffffffff191614612db8576040517f08c379a0000000000000000000000000000000000000000000000000000000008152600401612daf9061570a565b60405180910390fd5b505b505050505050565b612de18473ffffffffffffffffffffffffffffffffffffffff1661317e565b15612f92578373ffffffffffffffffffffffffffffffffffffffff1663bc197c8187878686866040518663ffffffff1660e01b8152600401612e2795949392919061572a565b6020604051808303816000875af1925050508015612e6357506040513d601f19601f82011682018060405250810190612e609190615514565b60015b612f0957612e6f61554e565b806308c379a01415612ecc5750612e84615570565b80612e8f5750612ece565b806040517f08c379a0000000000000000000000000000000000000000000000000000000008152600401612ec391906138cf565b60405180910390fd5b505b6040517f08c379a0000000000000000000000000000000000000000000000000000000008152600401612f0090615678565b60405180910390fd5b63bc197c8160e01b7bffffffffffffffffffffffffffffffffffffffffffffffffffffffff1916817bffffffffffffffffffffffffffffffffffffffffffffffffffffffff191614612f90576040517f08c379a0000000000000000000000000000000000000000000000000000000008152600401612f879061570a565b60405180910390fd5b505b505050505050565b60007f01ffc9a7000000000000000000000000000000000000000000000000000000007bffffffffffffffffffffffffffffffffffffffffffffffffffffffff1916827bffffffffffffffffffffffffffffffffffffffffffffffffffffffff1916149050919050565b613012868686868686613191565b600073ffffffffffffffffffffffffffffffffffffffff168573ffffffffffffffffffffffffffffffffffffffff1614156130c45760005b83518110156130c257828181518110613066576130656143f2565b5b602002602001015160046000868481518110613085576130846143f2565b5b6020026020010151815260200190815260200160002060008282546130aa9190614d6c565b92505081905550806130bb906144bc565b905061304a565b505b600073ffffffffffffffffffffffffffffffffffffffff168473ffffffffffffffffffffffffffffffffffffffff1614156131765760005b835181101561317457828181518110613118576131176143f2565b5b602002602001015160046000868481518110613137576131366143f2565b5b60200260200101518152602001908152602001600020600082825461315c9190615792565b925050819055508061316d906144bc565b90506130fc565b505b505050505050565b600080823b905060008111915050919050565b505050505050565b8280546131a590614563565b90600052602060002090601f0160209004810192826131c7576000855561320e565b82601f106131e057805160ff191683800117855561320e565b8280016001018555821561320e579182015b8281111561320d5782518255916020019190600101906131f2565b5b50905061321b91906132cc565b5090565b82805482825590600052602060002090810192821561326e579160200282015b8281111561326d57825182908051906020019061325d929190613199565b509160200191906001019061323f565b5b50905061327b91906132e9565b5090565b8280548282559060005260206000209081019282156132bb579160200282015b828111156132ba57825182559160200191906001019061329f565b5b5090506132c891906132cc565b5090565b5b808211156132e55760008160009055506001016132cd565b5090565b5b808211156133095760008181613300919061330d565b506001016132ea565b5090565b50805461331990614563565b6000825580601f1061332b575061334a565b601f01602090049060005260206000209081019061334991906132cc565b5b50565b6000604051905090565b600080fd5b600080fd5b600073ffffffffffffffffffffffffffffffffffffffff82169050919050565b600061338c82613361565b9050919050565b61339c81613381565b81146133a757600080fd5b50565b6000813590506133b981613393565b92915050565b6000819050919050565b6133d2816133bf565b81146133dd57600080fd5b50565b6000813590506133ef816133c9565b92915050565b6000806040838503121561340c5761340b613357565b5b600061341a858286016133aa565b925050602061342b858286016133e0565b9150509250929050565b61343e816133bf565b82525050565b60006020820190506134596000830184613435565b92915050565b60007fffffffff0000000000000000000000000000000000000000000000000000000082169050919050565b6134948161345f565b811461349f57600080fd5b50565b6000813590506134b18161348b565b92915050565b6000602082840312156134cd576134cc613357565b5b60006134db848285016134a2565b91505092915050565b60008115159050919050565b6134f9816134e4565b82525050565b600060208201905061351460008301846134f0565b92915050565b600080fd5b600080fd5b6000601f19601f8301169050919050565b7f4e487b7100000000000000000000000000000000000000000000000000000000600052604160045260246000fd5b61356d82613524565b810181811067ffffffffffffffff8211171561358c5761358b613535565b5b80604052505050565b600061359f61334d565b90506135ab8282613564565b919050565b600067ffffffffffffffff8211156135cb576135ca613535565b5b6135d482613524565b9050602081019050919050565b82818337600083830152505050565b60006136036135fe846135b0565b613595565b90508281526020810184848401111561361f5761361e61351f565b5b61362a8482856135e1565b509392505050565b600082601f8301126136475761364661351a565b5b81356136578482602086016135f0565b91505092915050565b60006020828403121561367657613675613357565b5b600082013567ffffffffffffffff8111156136945761369361335c565b5b6136a084828501613632565b91505092915050565b600067ffffffffffffffff8211156136c4576136c3613535565b5b602082029050602081019050919050565b600080fd5b60006136ed6136e8846136a9565b613595565b905080838252602082019050602084028301858111156137105761370f6136d5565b5b835b8181101561375757803567ffffffffffffffff8111156137355761373461351a565b5b8086016137428982613632565b85526020850194505050602081019050613712565b5050509392505050565b600082601f8301126137765761377561351a565b5b81356137868482602086016136da565b91505092915050565b6000806000606084860312156137a8576137a7613357565b5b60006137b6868287016133e0565b935050602084013567ffffffffffffffff8111156137d7576137d661335c565b5b6137e386828701613632565b925050604084013567ffffffffffffffff8111156138045761380361335c565b5b61381086828701613761565b9150509250925092565b6000602082840312156138305761382f613357565b5b600061383e848285016133e0565b91505092915050565b600081519050919050565b600082825260208201905092915050565b60005b83811015613881578082015181840152602081019050613866565b83811115613890576000848401525b50505050565b60006138a182613847565b6138ab8185613852565b93506138bb818560208601613863565b6138c481613524565b840191505092915050565b600060208201905081810360008301526138e98184613896565b905092915050565b6000819050919050565b613904816138f1565b811461390f57600080fd5b50565b600081359050613921816138fb565b92915050565b60006020828403121561393d5761393c613357565b5b600061394b84828501613912565b91505092915050565b61395d816138f1565b82525050565b60006020820190506139786000830184613954565b92915050565b600067ffffffffffffffff82111561399957613998613535565b5b602082029050602081019050919050565b60006139bd6139b88461397e565b613595565b905080838252602082019050602084028301858111156139e0576139df6136d5565b5b835b81811015613a0957806139f588826133e0565b8452602084019350506020810190506139e2565b5050509392505050565b600082601f830112613a2857613a2761351a565b5b8135613a388482602086016139aa565b91505092915050565b600067ffffffffffffffff821115613a5c57613a5b613535565b5b613a6582613524565b9050602081019050919050565b6000613a85613a8084613a41565b613595565b905082815260208101848484011115613aa157613aa061351f565b5b613aac8482856135e1565b509392505050565b600082601f830112613ac957613ac861351a565b5b8135613ad9848260208601613a72565b91505092915050565b600080600080600060a08688031215613afe57613afd613357565b5b6000613b0c888289016133aa565b9550506020613b1d888289016133aa565b945050604086013567ffffffffffffffff811115613b3e57613b3d61335c565b5b613b4a88828901613a13565b935050606086013567ffffffffffffffff811115613b6b57613b6a61335c565b5b613b7788828901613a13565b925050608086013567ffffffffffffffff811115613b9857613b9761335c565b5b613ba488828901613ab4565b9150509295509295909350565b60008060408385031215613bc857613bc7613357565b5b6000613bd685828601613912565b9250506020613be7858286016133aa565b9150509250929050565b60008060408385031215613c0857613c07613357565b5b6000613c16858286016133e0565b9250506020613c27858286016133e0565b9150509250929050565b60006040820190508181036000830152613c4b8185613896565b9050613c5a6020830184613435565b9392505050565b600067ffffffffffffffff821115613c7c57613c7b613535565b5b602082029050602081019050919050565b6000613ca0613c9b84613c61565b613595565b90508083825260208201905060208402830185811115613cc357613cc26136d5565b5b835b81811015613cec5780613cd888826133aa565b845260208401935050602081019050613cc5565b5050509392505050565b600082601f830112613d0b57613d0a61351a565b5b8135613d1b848260208601613c8d565b91505092915050565b60008060408385031215613d3b57613d3a613357565b5b600083013567ffffffffffffffff811115613d5957613d5861335c565b5b613d6585828601613cf6565b925050602083013567ffffffffffffffff811115613d8657613d8561335c565b5b613d9285828601613a13565b9150509250929050565b600081519050919050565b600082825260208201905092915050565b6000819050602082019050919050565b613dd1816133bf565b82525050565b6000613de38383613dc8565b60208301905092915050565b6000602082019050919050565b6000613e0782613d9c565b613e118185613da7565b9350613e1c83613db8565b8060005b83811015613e4d578151613e348882613dd7565b9750613e3f83613def565b925050600181019050613e20565b5085935050505092915050565b60006020820190508181036000830152613e748184613dfc565b905092915050565b6000613e8782613361565b9050919050565b613e9781613e7c565b8114613ea257600080fd5b50565b600081359050613eb481613e8e565b92915050565b600080600060608486031215613ed357613ed2613357565b5b6000613ee186828701613ea5565b9350506020613ef2868287016133e0565b9250506040613f03868287016133e0565b9150509250925092565b600080600060608486031215613f2657613f25613357565b5b6000613f34868287016133e0565b9350506020613f45868287016133e0565b9250506040613f56868287016133e0565b9150509250925092565b613f69816134e4565b8114613f7457600080fd5b50565b600081359050613f8681613f60565b92915050565b60008060408385031215613fa357613fa2613357565b5b6000613fb1858286016133aa565b9250506020613fc285828601613f77565b9150509250929050565b600081519050919050565b600082825260208201905092915050565b6000819050602082019050919050565b600082825260208201905092915050565b600061401482613847565b61401e8185613ff8565b935061402e818560208601613863565b61403781613524565b840191505092915050565b600081519050919050565b600082825260208201905092915050565b6000819050602082019050919050565b600061407a8383614009565b905092915050565b6000602082019050919050565b600061409a82614042565b6140a4818561404d565b9350836020820285016140b68561405e565b8060005b858110156140f257848403895281516140d3858261406e565b94506140de83614082565b925060208a019950506001810190506140ba565b50829750879550505050505092915050565b600082825260208201905092915050565b600061412082613d9c565b61412a8185614104565b935061413583613db8565b8060005b8381101561416657815161414d8882613dd7565b975061415883613def565b925050600181019050614139565b5085935050505092915050565b600060608301600083015184820360008601526141908282614009565b915050602083015184820360208601526141aa828261408f565b915050604083015184820360408601526141c48282614115565b9150508091505092915050565b60006141dd8383614173565b905092915050565b6000602082019050919050565b60006141fd82613fcc565b6142078185613fd7565b93508360208202850161421985613fe8565b8060005b85811015614255578484038952815161423685826141d1565b9450614241836141e5565b925060208a0199505060018101905061421d565b50829750879550505050505092915050565b6000602082019050818103600083015261428181846141f2565b905092915050565b600080604083850312156142a05761429f613357565b5b60006142ae858286016133aa565b92505060206142bf858286016133aa565b9150509250929050565b600080600080600060a086880312156142e5576142e4613357565b5b60006142f3888289016133aa565b9550506020614304888289016133aa565b9450506040614315888289016133e0565b9350506060614326888289016133e0565b925050608086013567ffffffffffffffff8111156143475761434661335c565b5b61435388828901613ab4565b9150509295509295909350565b7f455243313135353a2062616c616e636520717565727920666f7220746865207a60008201527f65726f2061646472657373000000000000000000000000000000000000000000602082015250565b60006143bc602b83613852565b91506143c782614360565b604082019050919050565b600060208201905081810360008301526143eb816143af565b9050919050565b7f4e487b7100000000000000000000000000000000000000000000000000000000600052603260045260246000fd5b7f4e6f7420546f6b656e2041646d696e0000000000000000000000000000000000600082015250565b6000614457600f83613852565b915061446282614421565b602082019050919050565b600060208201905081810360008301526144868161444a565b9050919050565b7f4e487b7100000000000000000000000000000000000000000000000000000000600052601160045260246000fd5b60006144c7826133bf565b91507fffffffffffffffffffffffffffffffffffffffffffffffffffffffffffffffff8214156144fa576144f961448d565b5b600182019050919050565b61450e81613381565b82525050565b600081549050919050565b60008190508160005260206000209050919050565b7f4e487b7100000000000000000000000000000000000000000000000000000000600052602260045260246000fd5b6000600282049050600182168061457b57607f821691505b6020821081141561458f5761458e614534565b5b50919050565b60008190508160005260206000209050919050565b600081546145b781614563565b6145c18186613ff8565b945060018216600081146145dc57600181146145ee57614621565b60ff1983168652602086019350614621565b6145f785614595565b60005b83811015614619578154818901526001820191506020810190506145fa565b808801955050505b50505092915050565b600081549050919050565b60008190508160005260206000209050919050565b600061465683836145aa565b905092915050565b6000600182019050919050565b60006146768261462a565b614680818561404d565b93508360208202850161469285614635565b8060005b858110156146cd578484038952816146ae858261464a565b94506146b98361465e565b925060208a01995050600181019050614696565b50829750879550505050505092915050565b600081549050919050565b60008190508160005260206000209050919050565b60008160001c9050919050565b6000819050919050565b6000614729614724836146ff565b61470c565b9050919050565b600061473c8254614716565b9050919050565b6000600182019050919050565b600061475b826146df565b6147658185614104565b9350614770836146ea565b8060005b838110156147a85761478582614730565b61478f8882613dd7565b975061479a83614743565b925050600181019050614774565b5085935050505092915050565b600060608301600080840185830360008701526147d283826145aa565b9250506001840185830360208701526147eb838261466b565b9250506002840185830360408701526148048382614750565b925050819250505092915050565b600061481e83836147b5565b905092915050565b6000600382019050919050565b600061483e82614514565b6148488185613fd7565b93508360208202850161485a8561451f565b8060005b85811015614895578484038952816148768582614812565b945061488183614826565b925060208a0199505060018101905061485e565b50829750879550505050505092915050565b60006060820190506148bc6000830186614505565b6148c96020830185613435565b81810360408301526148db8184614833565b9050949350505050565b7f546f6b656e20446f6573204e6f74204578697374000000000000000000000000600082015250565b600061491b601483613852565b9150614926826148e5565b602082019050919050565b6000602082019050818103600083015261494a8161490e565b9050919050565b600081905092915050565b50565b600061496c600083614951565b91506149778261495c565b600082019050919050565b600061498d8261495f565b9150819050919050565b7f5472616e73616374696f6e206661696c65642100000000000000000000000000600082015250565b60006149cd601383613852565b91506149d882614997565b602082019050919050565b600060208201905081810360008301526149fc816149c0565b9050919050565b7f4e487b7100000000000000000000000000000000000000000000000000000000600052601260045260246000fd5b6000614a3d826133bf565b9150614a48836133bf565b925082614a5857614a57614a03565b5b828204905092915050565b6000819050919050565b6000614a88614a83614a7e84613361565b614a63565b613361565b9050919050565b6000614a9a82614a6d565b9050919050565b6000614aac82614a8f565b9050919050565b614abc81614aa1565b82525050565b600081519050919050565b600082825260208201905092915050565b6000614ae982614ac2565b614af38185614acd565b9350614b03818560208601613863565b614b0c81613524565b840191505092915050565b600060a082019050614b2c6000830188614ab3565b614b396020830187614505565b614b466040830186613435565b614b536060830185613435565b8181036080830152614b658184614ade565b90509695505050505050565b7f455243313135353a207472616e736665722063616c6c6572206973206e6f742060008201527f6f776e6572206e6f7220617070726f7665640000000000000000000000000000602082015250565b6000614bcd603283613852565b9150614bd882614b71565b604082019050919050565b60006020820190508181036000830152614bfc81614bc0565b9050919050565b7f416363657373436f6e74726f6c3a2063616e206f6e6c792072656e6f756e636560008201527f20726f6c657320666f722073656c660000000000000000000000000000000000602082015250565b6000614c5f602f83613852565b9150614c6a82614c03565b604082019050919050565b60006020820190508181036000830152614c8e81614c52565b9050919050565b7f455243313135353a206163636f756e747320616e6420696473206c656e67746860008201527f206d69736d617463680000000000000000000000000000000000000000000000602082015250565b6000614cf1602983613852565b9150614cfc82614c95565b604082019050919050565b60006020820190508181036000830152614d2081614ce4565b9050919050565b6000608082019050614d3c6000830187614ab3565b614d496020830186613435565b614d566040830185613435565b614d636060830184613435565b95945050505050565b6000614d77826133bf565b9150614d82836133bf565b9250827fffffffffffffffffffffffffffffffffffffffffffffffffffffffffffffffff03821115614db757614db661448d565b5b828201905092915050565b7f416c726561647920766f74656400000000000000000000000000000000000000600082015250565b6000614df8600d83613852565b9150614e0382614dc2565b602082019050919050565b60006020820190508181036000830152614e2781614deb565b9050919050565b6000608082019050614e436000830187614505565b614e506020830186613435565b614e5d6040830185613435565b614e6a6060830184613435565b95945050505050565b6000614e7e826133bf565b9150614e89836133bf565b9250817fffffffffffffffffffffffffffffffffffffffffffffffffffffffffffffffff0483118215151615614ec257614ec161448d565b5b828202905092915050565b600060c082019050614ee26000830189614ab3565b614eef6020830188614505565b614efc6040830187613435565b614f0960608301866134f0565b8181036080830152614f1b8185614ade565b9050614f2a60a0830184613435565b979650505050505050565b7f455243313135353a2063616c6c6572206973206e6f74206f776e6572206e6f7260008201527f20617070726f7665640000000000000000000000000000000000000000000000602082015250565b6000614f91602983613852565b9150614f9c82614f35565b604082019050919050565b60006020820190508181036000830152614fc081614f84565b9050919050565b600081905092915050565b7f416363657373436f6e74726f6c3a206163636f756e7420000000000000000000600082015250565b6000615008601783614fc7565b915061501382614fd2565b601782019050919050565b600061502982613847565b6150338185614fc7565b9350615043818560208601613863565b80840191505092915050565b7f206973206d697373696e6720726f6c6520000000000000000000000000000000600082015250565b6000615085601183614fc7565b91506150908261504f565b601182019050919050565b60006150a682614ffb565b91506150b2828561501e565b91506150bd82615078565b91506150c9828461501e565b91508190509392505050565b7f455243313135353a207472616e7366657220746f20746865207a65726f20616460008201527f6472657373000000000000000000000000000000000000000000000000000000602082015250565b6000615131602583613852565b915061513c826150d5565b604082019050919050565b6000602082019050818103600083015261516081615124565b9050919050565b7f455243313135353a20696e73756666696369656e742062616c616e636520666f60008201527f72207472616e7366657200000000000000000000000000000000000000000000602082015250565b60006151c3602a83613852565b91506151ce82615167565b604082019050919050565b600060208201905081810360008301526151f2816151b6565b9050919050565b600060408201905061520e6000830185613435565b61521b6020830184613435565b9392505050565b7f455243313135353a2069647320616e6420616d6f756e7473206c656e6774682060008201527f6d69736d61746368000000000000000000000000000000000000000000000000602082015250565b600061527e602883613852565b915061528982615222565b604082019050919050565b600060208201905081810360008301526152ad81615271565b9050919050565b600060408201905081810360008301526152ce8185613dfc565b905081810360208301526152e28184613dfc565b90509392505050565b7f455243313135353a206d696e7420746f20746865207a65726f2061646472657360008201527f7300000000000000000000000000000000000000000000000000000000000000602082015250565b6000615347602183613852565b9150615352826152eb565b604082019050919050565b600060208201905081810360008301526153768161533a565b9050919050565b7f455243313135353a2073657474696e6720617070726f76616c2073746174757360008201527f20666f722073656c660000000000000000000000000000000000000000000000602082015250565b60006153d9602983613852565b91506153e48261537d565b604082019050919050565b60006020820190508181036000830152615408816153cc565b9050919050565b600061541a826133bf565b9150600082141561542e5761542d61448d565b5b600182039050919050565b7f537472696e67733a20686578206c656e67746820696e73756666696369656e74600082015250565b600061546f602083613852565b915061547a82615439565b602082019050919050565b6000602082019050818103600083015261549e81615462565b9050919050565b600060a0820190506154ba6000830188614505565b6154c76020830187614505565b6154d46040830186613435565b6154e16060830185613435565b81810360808301526154f38184614ade565b90509695505050505050565b60008151905061550e8161348b565b92915050565b60006020828403121561552a57615529613357565b5b6000615538848285016154ff565b91505092915050565b60008160e01c9050919050565b600060033d111561556d5760046000803e61556a600051615541565b90505b90565b600060443d101561558057615603565b61558861334d565b60043d036004823e80513d602482011167ffffffffffffffff821117156155b0575050615603565b808201805167ffffffffffffffff8111156155ce5750505050615603565b80602083010160043d0385018111156155eb575050505050615603565b6155fa82602001850186613564565b82955050505050505b90565b7f455243313135353a207472616e7366657220746f206e6f6e204552433131353560008201527f526563656976657220696d706c656d656e746572000000000000000000000000602082015250565b6000615662603483613852565b915061566d82615606565b604082019050919050565b6000602082019050818103600083015261569181615655565b9050919050565b7f455243313135353a204552433131353552656365697665722072656a6563746560008201527f6420746f6b656e73000000000000000000000000000000000000000000000000602082015250565b60006156f4602883613852565b91506156ff82615698565b604082019050919050565b60006020820190508181036000830152615723816156e7565b9050919050565b600060a08201905061573f6000830188614505565b61574c6020830187614505565b818103604083015261575e8186613dfc565b905081810360608301526157728185613dfc565b905081810360808301526157868184614ade565b90509695505050505050565b600061579d826133bf565b91506157a8836133bf565b9250828210156157bb576157ba61448d565b5b82820390509291505056fea2646970667358221220747c15779c3de25d70524ad9f2cdc9f0160dd32f01e842167c7830403a00783564736f6c634300080a0033",
  "immutableReferences": {},
  "source": "// SPDX-License-Identifier: MIT\r\npragma solidity ^0.8.2;\r\n\r\nimport \"@openzeppelin/contracts/token/ERC1155/ERC1155.sol\";\r\nimport \"@openzeppelin/contracts/access/AccessControl.sol\";\r\nimport \"@openzeppelin/contracts/token/ERC1155/extensions/ERC1155Supply.sol\";\r\n\r\n/// @custom:security-contact adityapatkar22@gmail.com, archeelparekh11@gmail.com\r\ncontract MyToken is ERC1155, AccessControl, ERC1155Supply {\r\n    bytes32 public constant URI_SETTER_ROLE = keccak256(\"URI_SETTER_ROLE\");\r\n\r\n    struct Token {\r\n        address payable tokenAdmin;\r\n        uint256 rate;\r\n    }\r\n    uint256 _currentTokenIndex = 0;\r\n    Token[] _tokens;\r\n    address[] private _tokenHolders;\r\n    mapping(address => bool) _tokenHoldersMapping;\r\n\r\n    struct Poll {\r\n        string question;\r\n        string[] options;\r\n        uint256[] votes;\r\n    }\r\n    mapping(uint256 => Poll[]) pollsMapping;\r\n    mapping(uint256 => mapping(uint256 => mapping(address => bool))) votedMapping;\r\n\r\n    event AddNewToken(\r\n        address tokenAdmin,\r\n        uint256 tokenID,\r\n        uint256 amount,\r\n        uint256 rate\r\n    );\r\n    event BuyToken(\r\n        address tokenAdmin,\r\n        address buyer,\r\n        uint256 tokenID,\r\n        uint256 amount,\r\n        bytes data\r\n    );\r\n    event Disburse(\r\n        address tokenAdmin,\r\n        address holder,\r\n        uint256 tokenID,\r\n        bool success,\r\n        bytes data,\r\n        uint256 amount\r\n    );\r\n    event CreatePoll(address tokenAdmin, uint256 tokenID, Poll[] polls);\r\n    event Vote(address Voter, uint256 tokenID, uint256 pollID, uint256 weight);\r\n\r\n    modifier tokenExists(uint256 tokenID) {\r\n        require(\r\n            _tokens[tokenID].tokenAdmin != address(0),\r\n            \"Token Does Not Exist\"\r\n        );\r\n        _;\r\n    }\r\n\r\n    modifier isTokenAdmin(uint256 tokenID) {\r\n        require(_tokens[tokenID].tokenAdmin == msg.sender, \"Not Token Admin\");\r\n        _;\r\n    }\r\n\r\n    modifier notVoted(uint256 tokenID, uint256 pollID) {\r\n        require(!votedMapping[tokenID][pollID][msg.sender], \"Already voted\");\r\n        _;\r\n    }\r\n\r\n    constructor() ERC1155(\"\") {\r\n        _grantRole(DEFAULT_ADMIN_ROLE, msg.sender);\r\n        _grantRole(URI_SETTER_ROLE, msg.sender);\r\n    }\r\n\r\n    function setURI(string memory newuri) public onlyRole(URI_SETTER_ROLE) {\r\n        _setURI(newuri);\r\n    }\r\n\r\n    // Adding a new token\r\n    function addNewToken(\r\n        address payable tokenAdmin,\r\n        uint256 amount,\r\n        uint256 rate\r\n    ) public onlyRole(DEFAULT_ADMIN_ROLE) {\r\n        _tokens.push(Token(tokenAdmin, rate));\r\n        _mint(tokenAdmin, _currentTokenIndex, amount, \"\");\r\n        emit AddNewToken(tokenAdmin, _currentTokenIndex, amount, rate);\r\n        _currentTokenIndex += 1;\r\n    }\r\n\r\n    // Buying a new token\r\n    function buyToken(uint256 tokenID) public payable tokenExists(tokenID) {\r\n        (bool success, bytes memory data) = _tokens[tokenID].tokenAdmin.call{\r\n            value: msg.value\r\n        }(\"\");\r\n        require(success, \"Transaction failed!\");\r\n        uint256 amount = msg.value / _tokens[tokenID].rate;\r\n        _safeTransferFrom(\r\n            _tokens[tokenID].tokenAdmin,\r\n            msg.sender,\r\n            tokenID,\r\n            amount,\r\n            data\r\n        );\r\n        emit BuyToken(\r\n            _tokens[tokenID].tokenAdmin,\r\n            msg.sender,\r\n            tokenID,\r\n            amount,\r\n            data\r\n        );\r\n    }\r\n\r\n    // Disburse to holders\r\n    function disburse(uint256 tokenID) public payable isTokenAdmin(tokenID) {\r\n        for (uint256 i = 0; i < _tokenHolders.length; i++) {\r\n            uint256 amount = (balanceOf(_tokenHolders[i], tokenID) *\r\n                msg.value) / totalSupply(tokenID);\r\n            (bool success, bytes memory data) = _tokenHolders[i].call{\r\n                value: amount\r\n            }(\"\");\r\n            emit Disburse(\r\n                _tokens[tokenID].tokenAdmin,\r\n                _tokenHolders[i],\r\n                tokenID,\r\n                success,\r\n                data,\r\n                amount\r\n            );\r\n        }\r\n    }\r\n\r\n    // Create a poll\r\n    function createPoll(\r\n        uint256 tokenID,\r\n        string memory question,\r\n        string[] memory options\r\n    ) public isTokenAdmin(tokenID) {\r\n        uint256[] memory newVotes = new uint256[](options.length);\r\n        for (uint256 i = 0; i < options.length; i++) {\r\n            newVotes[i] = 0;\r\n        }\r\n        pollsMapping[tokenID].push(Poll(question, options, newVotes));\r\n        emit CreatePoll(msg.sender, tokenID, pollsMapping[tokenID]);\r\n    }\r\n\r\n    // Get all polls\r\n    function getPolls(uint256 tokenID) public view returns (Poll[] memory) {\r\n        Poll[] memory allPolls = pollsMapping[tokenID];\r\n        return allPolls;\r\n    }\r\n\r\n    // Vote on a poll\r\n    function vote(\r\n        uint256 tokenID,\r\n        uint256 pollID,\r\n        uint256 option\r\n    ) public notVoted(tokenID, pollID) {\r\n        uint256 balance = balanceOf(msg.sender, tokenID);\r\n        pollsMapping[tokenID][pollID].votes[option] += balance;\r\n        votedMapping[tokenID][pollID][msg.sender] = true;\r\n        emit Vote(msg.sender, tokenID, pollID, balance);\r\n    }\r\n\r\n    // Get Poll results\r\n    function getPollResults(uint256 tokenID, uint256 pollID)\r\n        public\r\n        view\r\n        returns (string memory, uint256)\r\n    {\r\n        uint256[] memory votesArray = pollsMapping[tokenID][pollID].votes;\r\n        uint256 largest = 0;\r\n        uint256 option = 0;\r\n\r\n        for (uint256 i = 0; i < votesArray.length; i++) {\r\n            if (votesArray[i] > largest) {\r\n                largest = votesArray[i];\r\n                option = i;\r\n            }\r\n        }\r\n        string memory answer = pollsMapping[tokenID][pollID].options[option];\r\n        return (answer, largest);\r\n    }\r\n\r\n    // The following functions are overrides required by Solidity.\r\n    function _beforeTokenTransfer(\r\n        address operator,\r\n        address from,\r\n        address to,\r\n        uint256[] memory ids,\r\n        uint256[] memory amounts,\r\n        bytes memory data\r\n    ) internal override(ERC1155, ERC1155Supply) {\r\n        if (!_tokenHoldersMapping[to]) {\r\n            _tokenHolders.push(to);\r\n            _tokenHoldersMapping[to] = true;\r\n        }\r\n        super._beforeTokenTransfer(operator, from, to, ids, amounts, data);\r\n    }\r\n\r\n    function supportsInterface(bytes4 interfaceId)\r\n        public\r\n        view\r\n        override(ERC1155, AccessControl)\r\n        returns (bool)\r\n    {\r\n        return super.supportsInterface(interfaceId);\r\n    }\r\n}\r\n",
  "sourcePath": "D:\\Archeel\\Final-Year-Project\\SmartContracts\\contracts\\MyToken.sol",
  "compiler": {
    "name": "solc",
    "version": "0.8.10+commit.fc410830.Emscripten.clang"
  },
  "schemaVersion": "3.4.3",
  "updatedAt": "2021-12-07T16:02:53.659Z",
  "devdoc": {
    "custom:security-contact": "adityapatkar22@gmail.com, archeelparekh11@gmail.com",
    "kind": "dev",
    "methods": {
      "balanceOf(address,uint256)": {
        "details": "See {IERC1155-balanceOf}. Requirements: - `account` cannot be the zero address."
      },
      "balanceOfBatch(address[],uint256[])": {
        "details": "See {IERC1155-balanceOfBatch}. Requirements: - `accounts` and `ids` must have the same length."
      },
      "exists(uint256)": {
        "details": "Indicates whether any token exist with a given id, or not."
      },
      "getRoleAdmin(bytes32)": {
        "details": "Returns the admin role that controls `role`. See {grantRole} and {revokeRole}. To change a role's admin, use {_setRoleAdmin}."
      },
      "grantRole(bytes32,address)": {
        "details": "Grants `role` to `account`. If `account` had not been already granted `role`, emits a {RoleGranted} event. Requirements: - the caller must have ``role``'s admin role."
      },
      "hasRole(bytes32,address)": {
        "details": "Returns `true` if `account` has been granted `role`."
      },
      "isApprovedForAll(address,address)": {
        "details": "See {IERC1155-isApprovedForAll}."
      },
      "renounceRole(bytes32,address)": {
        "details": "Revokes `role` from the calling account. Roles are often managed via {grantRole} and {revokeRole}: this function's purpose is to provide a mechanism for accounts to lose their privileges if they are compromised (such as when a trusted device is misplaced). If the calling account had been revoked `role`, emits a {RoleRevoked} event. Requirements: - the caller must be `account`."
      },
      "revokeRole(bytes32,address)": {
        "details": "Revokes `role` from `account`. If `account` had been granted `role`, emits a {RoleRevoked} event. Requirements: - the caller must have ``role``'s admin role."
      },
      "safeBatchTransferFrom(address,address,uint256[],uint256[],bytes)": {
        "details": "See {IERC1155-safeBatchTransferFrom}."
      },
      "safeTransferFrom(address,address,uint256,uint256,bytes)": {
        "details": "See {IERC1155-safeTransferFrom}."
      },
      "setApprovalForAll(address,bool)": {
        "details": "See {IERC1155-setApprovalForAll}."
      },
      "totalSupply(uint256)": {
        "details": "Total amount of tokens in with a given id."
      },
      "uri(uint256)": {
        "details": "See {IERC1155MetadataURI-uri}. This implementation returns the same URI for *all* token types. It relies on the token type ID substitution mechanism https://eips.ethereum.org/EIPS/eip-1155#metadata[defined in the EIP]. Clients calling this function must replace the `\\{id\\}` substring with the actual token type ID."
      }
    },
    "version": 1
  },
  "userdoc": {
    "kind": "user",
    "methods": {},
    "version": 1
  }
}