{
  "contractName": "MyToken",
  "abi": [
    {
      "inputs": [],
      "stateMutability": "nonpayable",
      "type": "constructor"
    },
    {
      "anonymous": false,
      "inputs": [
        {
          "indexed": false,
          "internalType": "address",
          "name": "tokenAdmin",
          "type": "address"
        },
        {
          "indexed": false,
          "internalType": "uint256",
          "name": "tokenID",
          "type": "uint256"
        },
        {
          "indexed": false,
          "internalType": "uint256",
          "name": "amount",
          "type": "uint256"
        },
        {
          "indexed": false,
          "internalType": "uint256",
          "name": "rate",
          "type": "uint256"
        }
      ],
      "name": "AddNewToken",
      "type": "event"
    },
    {
      "anonymous": false,
      "inputs": [
        {
          "indexed": true,
          "internalType": "address",
          "name": "account",
          "type": "address"
        },
        {
          "indexed": true,
          "internalType": "address",
          "name": "operator",
          "type": "address"
        },
        {
          "indexed": false,
          "internalType": "bool",
          "name": "approved",
          "type": "bool"
        }
      ],
      "name": "ApprovalForAll",
      "type": "event"
    },
    {
      "anonymous": false,
      "inputs": [
        {
          "indexed": false,
          "internalType": "address",
          "name": "tokenAdmin",
          "type": "address"
        },
        {
          "indexed": false,
          "internalType": "address",
          "name": "buyer",
          "type": "address"
        },
        {
          "indexed": false,
          "internalType": "uint256",
          "name": "tokenID",
          "type": "uint256"
        },
        {
          "indexed": false,
          "internalType": "uint256",
          "name": "amount",
          "type": "uint256"
        },
        {
          "indexed": false,
          "internalType": "bytes",
          "name": "data",
          "type": "bytes"
        }
      ],
      "name": "BuyToken",
      "type": "event"
    },
    {
      "anonymous": false,
      "inputs": [
        {
          "indexed": false,
          "internalType": "address",
          "name": "tokenAdmin",
          "type": "address"
        },
        {
          "indexed": false,
          "internalType": "uint256",
          "name": "tokenID",
          "type": "uint256"
        },
        {
          "components": [
            {
              "internalType": "string",
              "name": "question",
              "type": "string"
            },
            {
              "internalType": "string[]",
              "name": "options",
              "type": "string[]"
            },
            {
              "internalType": "uint256[]",
              "name": "votes",
              "type": "uint256[]"
            }
          ],
          "indexed": false,
          "internalType": "struct MyToken.Poll[]",
          "name": "polls",
          "type": "tuple[]"
        }
      ],
      "name": "CreatePoll",
      "type": "event"
    },
    {
      "anonymous": false,
      "inputs": [
        {
          "indexed": false,
          "internalType": "address",
          "name": "tokenAdmin",
          "type": "address"
        },
        {
          "indexed": false,
          "internalType": "address",
          "name": "holder",
          "type": "address"
        },
        {
          "indexed": false,
          "internalType": "uint256",
          "name": "tokenID",
          "type": "uint256"
        },
        {
          "indexed": false,
          "internalType": "bool",
          "name": "success",
          "type": "bool"
        },
        {
          "indexed": false,
          "internalType": "bytes",
          "name": "data",
          "type": "bytes"
        },
        {
          "indexed": false,
          "internalType": "uint256",
          "name": "amount",
          "type": "uint256"
        }
      ],
      "name": "Disburse",
      "type": "event"
    },
    {
      "anonymous": false,
      "inputs": [
        {
          "indexed": true,
          "internalType": "bytes32",
          "name": "role",
          "type": "bytes32"
        },
        {
          "indexed": true,
          "internalType": "bytes32",
          "name": "previousAdminRole",
          "type": "bytes32"
        },
        {
          "indexed": true,
          "internalType": "bytes32",
          "name": "newAdminRole",
          "type": "bytes32"
        }
      ],
      "name": "RoleAdminChanged",
      "type": "event"
    },
    {
      "anonymous": false,
      "inputs": [
        {
          "indexed": true,
          "internalType": "bytes32",
          "name": "role",
          "type": "bytes32"
        },
        {
          "indexed": true,
          "internalType": "address",
          "name": "account",
          "type": "address"
        },
        {
          "indexed": true,
          "internalType": "address",
          "name": "sender",
          "type": "address"
        }
      ],
      "name": "RoleGranted",
      "type": "event"
    },
    {
      "anonymous": false,
      "inputs": [
        {
          "indexed": true,
          "internalType": "bytes32",
          "name": "role",
          "type": "bytes32"
        },
        {
          "indexed": true,
          "internalType": "address",
          "name": "account",
          "type": "address"
        },
        {
          "indexed": true,
          "internalType": "address",
          "name": "sender",
          "type": "address"
        }
      ],
      "name": "RoleRevoked",
      "type": "event"
    },
    {
      "anonymous": false,
      "inputs": [
        {
          "indexed": true,
          "internalType": "address",
          "name": "operator",
          "type": "address"
        },
        {
          "indexed": true,
          "internalType": "address",
          "name": "from",
          "type": "address"
        },
        {
          "indexed": true,
          "internalType": "address",
          "name": "to",
          "type": "address"
        },
        {
          "indexed": false,
          "internalType": "uint256[]",
          "name": "ids",
          "type": "uint256[]"
        },
        {
          "indexed": false,
          "internalType": "uint256[]",
          "name": "values",
          "type": "uint256[]"
        }
      ],
      "name": "TransferBatch",
      "type": "event"
    },
    {
      "anonymous": false,
      "inputs": [
        {
          "indexed": true,
          "internalType": "address",
          "name": "operator",
          "type": "address"
        },
        {
          "indexed": true,
          "internalType": "address",
          "name": "from",
          "type": "address"
        },
        {
          "indexed": true,
          "internalType": "address",
          "name": "to",
          "type": "address"
        },
        {
          "indexed": false,
          "internalType": "uint256",
          "name": "id",
          "type": "uint256"
        },
        {
          "indexed": false,
          "internalType": "uint256",
          "name": "value",
          "type": "uint256"
        }
      ],
      "name": "TransferSingle",
      "type": "event"
    },
    {
      "anonymous": false,
      "inputs": [
        {
          "indexed": false,
          "internalType": "string",
          "name": "value",
          "type": "string"
        },
        {
          "indexed": true,
          "internalType": "uint256",
          "name": "id",
          "type": "uint256"
        }
      ],
      "name": "URI",
      "type": "event"
    },
    {
      "anonymous": false,
      "inputs": [
        {
          "indexed": false,
          "internalType": "address",
          "name": "Voter",
          "type": "address"
        },
        {
          "indexed": false,
          "internalType": "uint256",
          "name": "tokenID",
          "type": "uint256"
        },
        {
          "indexed": false,
          "internalType": "uint256",
          "name": "pollID",
          "type": "uint256"
        },
        {
          "indexed": false,
          "internalType": "uint256",
          "name": "weight",
          "type": "uint256"
        }
      ],
      "name": "Vote",
      "type": "event"
    },
    {
      "inputs": [],
      "name": "DEFAULT_ADMIN_ROLE",
      "outputs": [
        {
          "internalType": "bytes32",
          "name": "",
          "type": "bytes32"
        }
      ],
      "stateMutability": "view",
      "type": "function"
    },
    {
      "inputs": [],
      "name": "URI_SETTER_ROLE",
      "outputs": [
        {
          "internalType": "bytes32",
          "name": "",
          "type": "bytes32"
        }
      ],
      "stateMutability": "view",
      "type": "function"
    },
    {
      "inputs": [
        {
          "internalType": "address",
          "name": "account",
          "type": "address"
        },
        {
          "internalType": "uint256",
          "name": "id",
          "type": "uint256"
        }
      ],
      "name": "balanceOf",
      "outputs": [
        {
          "internalType": "uint256",
          "name": "",
          "type": "uint256"
        }
      ],
      "stateMutability": "view",
      "type": "function"
    },
    {
      "inputs": [
        {
          "internalType": "address[]",
          "name": "accounts",
          "type": "address[]"
        },
        {
          "internalType": "uint256[]",
          "name": "ids",
          "type": "uint256[]"
        }
      ],
      "name": "balanceOfBatch",
      "outputs": [
        {
          "internalType": "uint256[]",
          "name": "",
          "type": "uint256[]"
        }
      ],
      "stateMutability": "view",
      "type": "function"
    },
    {
      "inputs": [
        {
          "internalType": "address",
          "name": "account",
          "type": "address"
        },
        {
          "internalType": "uint256",
          "name": "id",
          "type": "uint256"
        },
        {
          "internalType": "uint256",
          "name": "value",
          "type": "uint256"
        }
      ],
      "name": "burn",
      "outputs": [],
      "stateMutability": "nonpayable",
      "type": "function"
    },
    {
      "inputs": [
        {
          "internalType": "address",
          "name": "account",
          "type": "address"
        },
        {
          "internalType": "uint256[]",
          "name": "ids",
          "type": "uint256[]"
        },
        {
          "internalType": "uint256[]",
          "name": "values",
          "type": "uint256[]"
        }
      ],
      "name": "burnBatch",
      "outputs": [],
      "stateMutability": "nonpayable",
      "type": "function"
    },
    {
      "inputs": [
        {
          "internalType": "uint256",
          "name": "id",
          "type": "uint256"
        }
      ],
      "name": "exists",
      "outputs": [
        {
          "internalType": "bool",
          "name": "",
          "type": "bool"
        }
      ],
      "stateMutability": "view",
      "type": "function"
    },
    {
      "inputs": [
        {
          "internalType": "bytes32",
          "name": "role",
          "type": "bytes32"
        }
      ],
      "name": "getRoleAdmin",
      "outputs": [
        {
          "internalType": "bytes32",
          "name": "",
          "type": "bytes32"
        }
      ],
      "stateMutability": "view",
      "type": "function"
    },
    {
      "inputs": [
        {
          "internalType": "bytes32",
          "name": "role",
          "type": "bytes32"
        },
        {
          "internalType": "address",
          "name": "account",
          "type": "address"
        }
      ],
      "name": "grantRole",
      "outputs": [],
      "stateMutability": "nonpayable",
      "type": "function"
    },
    {
      "inputs": [
        {
          "internalType": "bytes32",
          "name": "role",
          "type": "bytes32"
        },
        {
          "internalType": "address",
          "name": "account",
          "type": "address"
        }
      ],
      "name": "hasRole",
      "outputs": [
        {
          "internalType": "bool",
          "name": "",
          "type": "bool"
        }
      ],
      "stateMutability": "view",
      "type": "function"
    },
    {
      "inputs": [
        {
          "internalType": "address",
          "name": "account",
          "type": "address"
        },
        {
          "internalType": "address",
          "name": "operator",
          "type": "address"
        }
      ],
      "name": "isApprovedForAll",
      "outputs": [
        {
          "internalType": "bool",
          "name": "",
          "type": "bool"
        }
      ],
      "stateMutability": "view",
      "type": "function"
    },
    {
      "inputs": [
        {
          "internalType": "bytes32",
          "name": "role",
          "type": "bytes32"
        },
        {
          "internalType": "address",
          "name": "account",
          "type": "address"
        }
      ],
      "name": "renounceRole",
      "outputs": [],
      "stateMutability": "nonpayable",
      "type": "function"
    },
    {
      "inputs": [
        {
          "internalType": "bytes32",
          "name": "role",
          "type": "bytes32"
        },
        {
          "internalType": "address",
          "name": "account",
          "type": "address"
        }
      ],
      "name": "revokeRole",
      "outputs": [],
      "stateMutability": "nonpayable",
      "type": "function"
    },
    {
      "inputs": [
        {
          "internalType": "address",
          "name": "from",
          "type": "address"
        },
        {
          "internalType": "address",
          "name": "to",
          "type": "address"
        },
        {
          "internalType": "uint256[]",
          "name": "ids",
          "type": "uint256[]"
        },
        {
          "internalType": "uint256[]",
          "name": "amounts",
          "type": "uint256[]"
        },
        {
          "internalType": "bytes",
          "name": "data",
          "type": "bytes"
        }
      ],
      "name": "safeBatchTransferFrom",
      "outputs": [],
      "stateMutability": "nonpayable",
      "type": "function"
    },
    {
      "inputs": [
        {
          "internalType": "address",
          "name": "from",
          "type": "address"
        },
        {
          "internalType": "address",
          "name": "to",
          "type": "address"
        },
        {
          "internalType": "uint256",
          "name": "id",
          "type": "uint256"
        },
        {
          "internalType": "uint256",
          "name": "amount",
          "type": "uint256"
        },
        {
          "internalType": "bytes",
          "name": "data",
          "type": "bytes"
        }
      ],
      "name": "safeTransferFrom",
      "outputs": [],
      "stateMutability": "nonpayable",
      "type": "function"
    },
    {
      "inputs": [
        {
          "internalType": "address",
          "name": "operator",
          "type": "address"
        },
        {
          "internalType": "bool",
          "name": "approved",
          "type": "bool"
        }
      ],
      "name": "setApprovalForAll",
      "outputs": [],
      "stateMutability": "nonpayable",
      "type": "function"
    },
    {
      "inputs": [
        {
          "internalType": "uint256",
          "name": "id",
          "type": "uint256"
        }
      ],
      "name": "totalSupply",
      "outputs": [
        {
          "internalType": "uint256",
          "name": "",
          "type": "uint256"
        }
      ],
      "stateMutability": "view",
      "type": "function"
    },
    {
      "inputs": [
        {
          "internalType": "uint256",
          "name": "",
          "type": "uint256"
        }
      ],
      "name": "uri",
      "outputs": [
        {
          "internalType": "string",
          "name": "",
          "type": "string"
        }
      ],
      "stateMutability": "view",
      "type": "function"
    },
    {
      "inputs": [
        {
          "internalType": "string",
          "name": "newuri",
          "type": "string"
        }
      ],
      "name": "setURI",
      "outputs": [],
      "stateMutability": "nonpayable",
      "type": "function"
    },
    {
      "inputs": [
        {
          "internalType": "address payable",
          "name": "tokenAdmin",
          "type": "address"
        },
        {
          "internalType": "uint256",
          "name": "amount",
          "type": "uint256"
        },
        {
          "internalType": "uint256",
          "name": "rate",
          "type": "uint256"
        }
      ],
      "name": "addNewToken",
      "outputs": [],
      "stateMutability": "nonpayable",
      "type": "function"
    },
    {
      "inputs": [
        {
          "internalType": "uint256",
          "name": "tokenID",
          "type": "uint256"
        }
      ],
      "name": "buyToken",
      "outputs": [],
      "stateMutability": "payable",
      "type": "function"
    },
    {
      "inputs": [
        {
          "internalType": "uint256",
          "name": "tokenID",
          "type": "uint256"
        }
      ],
      "name": "disburse",
      "outputs": [],
      "stateMutability": "payable",
      "type": "function"
    },
    {
      "inputs": [
        {
          "internalType": "uint256",
          "name": "tokenID",
          "type": "uint256"
        },
        {
          "internalType": "string",
          "name": "question",
          "type": "string"
        },
        {
          "internalType": "string[]",
          "name": "options",
          "type": "string[]"
        }
      ],
      "name": "createPoll",
      "outputs": [],
      "stateMutability": "nonpayable",
      "type": "function"
    },
    {
      "inputs": [
        {
          "internalType": "uint256",
          "name": "tokenID",
          "type": "uint256"
        }
      ],
      "name": "getPolls",
      "outputs": [
        {
          "components": [
            {
              "internalType": "string",
              "name": "question",
              "type": "string"
            },
            {
              "internalType": "string[]",
              "name": "options",
              "type": "string[]"
            },
            {
              "internalType": "uint256[]",
              "name": "votes",
              "type": "uint256[]"
            }
          ],
          "internalType": "struct MyToken.Poll[]",
          "name": "",
          "type": "tuple[]"
        }
      ],
      "stateMutability": "view",
      "type": "function"
    },
    {
      "inputs": [
        {
          "internalType": "uint256",
          "name": "tokenID",
          "type": "uint256"
        },
        {
          "internalType": "uint256",
          "name": "pollID",
          "type": "uint256"
        },
        {
          "internalType": "uint256",
          "name": "option",
          "type": "uint256"
        }
      ],
      "name": "vote",
      "outputs": [],
      "stateMutability": "nonpayable",
      "type": "function"
    },
    {
      "inputs": [
        {
          "internalType": "uint256",
          "name": "tokenID",
          "type": "uint256"
        },
        {
          "internalType": "uint256",
          "name": "pollID",
          "type": "uint256"
        }
      ],
      "name": "getPollResults",
      "outputs": [
        {
          "internalType": "string",
          "name": "",
          "type": "string"
        },
        {
          "internalType": "uint256",
          "name": "",
          "type": "uint256"
        }
      ],
      "stateMutability": "view",
      "type": "function"
    },
    {
      "inputs": [
        {
          "internalType": "bytes4",
          "name": "interfaceId",
          "type": "bytes4"
        }
      ],
      "name": "supportsInterface",
      "outputs": [
        {
          "internalType": "bool",
          "name": "",
          "type": "bool"
        }
      ],
      "stateMutability": "view",
      "type": "function"
    }
  ],
  "bytecode": "0x608060405260006005553480156200001657600080fd5b506040518060200160405280600081525062000038816200008660201b60201c565b506200004e6000801b33620000a260201b60201c565b620000807f7804d923f43a17d325d77e781528e0793b2edd9890ab45fc64efd7b4b427744c33620000a260201b60201c565b6200031c565b80600290805190602001906200009e92919062000207565b5050565b620000b482826200019460201b60201c565b620001905760016003600084815260200190815260200160002060000160008373ffffffffffffffffffffffffffffffffffffffff1673ffffffffffffffffffffffffffffffffffffffff16815260200190815260200160002060006101000a81548160ff02191690831515021790555062000135620001ff60201b60201c565b73ffffffffffffffffffffffffffffffffffffffff168173ffffffffffffffffffffffffffffffffffffffff16837f2f8788117e7eff1d82e926ec794901d17c78024a50270940304540a733656f0d60405160405180910390a45b5050565b60006003600084815260200190815260200160002060000160008373ffffffffffffffffffffffffffffffffffffffff1673ffffffffffffffffffffffffffffffffffffffff16815260200190815260200160002060009054906101000a900460ff16905092915050565b600033905090565b8280546200021590620002e6565b90600052602060002090601f01602090048101928262000239576000855562000285565b82601f106200025457805160ff191683800117855562000285565b8280016001018555821562000285579182015b828111156200028457825182559160200191906001019062000267565b5b50905062000294919062000298565b5090565b5b80821115620002b357600081600090555060010162000299565b5090565b7f4e487b7100000000000000000000000000000000000000000000000000000000600052602260045260246000fd5b60006002820490506001821680620002ff57607f821691505b60208210811415620003165762000315620002b7565b5b50919050565b61608e806200032c6000396000f3fe60806040526004361061019b5760003560e01c8063600a65df116100ec578063bd77ac2c1161008a578063d547741f11610064578063d547741f14610602578063e985e9c51461062b578063f242432a14610668578063f5298aca146106915761019b565b8063bd77ac2c1461056c578063bd85b03914610588578063ce2dee05146105c55761019b565b80638a6655d6116100c65780638a6655d6146104b257806391d14854146104db578063a217fddf14610518578063a22cb465146105435761019b565b8063600a65df146104355780636b20c4541461045e5780637f345710146104875761019b565b80632d296bf11161015957806336568abe1161013357806336568abe14610354578063425cdbb51461037d5780634e1273f4146103bb5780634f558e79146103f85761019b565b80632d296bf1146102e65780632eb2c2d6146103025780632f2ff15d1461032b5761019b565b8062fdd58e146101a057806301ffc9a7146101dd57806302fe53051461021a5780630c9ef9a2146102435780630e89341c1461026c578063248a9ca3146102a9575b600080fd5b3480156101ac57600080fd5b506101c760048036038101906101c29190613a85565b6106ba565b6040516101d49190613ad4565b60405180910390f35b3480156101e957600080fd5b5061020460048036038101906101ff9190613b47565b610783565b6040516102119190613b8f565b60405180910390f35b34801561022657600080fd5b50610241600480360381019061023c9190613cf0565b610795565b005b34801561024f57600080fd5b5061026a60048036038101906102659190613e1f565b6107d4565b005b34801561027857600080fd5b50610293600480360381019061028e9190613eaa565b610a1b565b6040516102a09190613f5f565b60405180910390f35b3480156102b557600080fd5b506102d060048036038101906102cb9190613fb7565b610aaf565b6040516102dd9190613ff3565b60405180910390f35b61030060048036038101906102fb9190613eaa565b610acf565b005b34801561030e57600080fd5b5061032960048036038101906103249190614172565b610d8a565b005b34801561033757600080fd5b50610352600480360381019061034d9190614241565b610e2b565b005b34801561036057600080fd5b5061037b60048036038101906103769190614241565b610e54565b005b34801561038957600080fd5b506103a4600480360381019061039f9190614281565b610ed7565b6040516103b29291906142c1565b60405180910390f35b3480156103c757600080fd5b506103e260048036038101906103dd91906143b4565b6110b9565b6040516103ef91906144ea565b60405180910390f35b34801561040457600080fd5b5061041f600480360381019061041a9190613eaa565b6111d2565b60405161042c9190613b8f565b60405180910390f35b34801561044157600080fd5b5061045c6004803603810190610457919061454a565b6111e6565b005b34801561046a57600080fd5b506104856004803603810190610480919061459d565b611320565b005b34801561049357600080fd5b5061049c6113bd565b6040516104a99190613ff3565b60405180910390f35b3480156104be57600080fd5b506104d960048036038101906104d49190614628565b6113e1565b005b3480156104e757600080fd5b5061050260048036038101906104fd9190614241565b6115c8565b60405161050f9190613b8f565b60405180910390f35b34801561052457600080fd5b5061052d611633565b60405161053a9190613ff3565b60405180910390f35b34801561054f57600080fd5b5061056a600480360381019061056591906146a7565b61163a565b005b61058660048036038101906105819190613eaa565b611650565b005b34801561059457600080fd5b506105af60048036038101906105aa9190613eaa565b611909565b6040516105bc9190613ad4565b60405180910390f35b3480156105d157600080fd5b506105ec60048036038101906105e79190613eaa565b611926565b6040516105f99190614982565b60405180910390f35b34801561060e57600080fd5b5061062960048036038101906106249190614241565b611b61565b005b34801561063757600080fd5b50610652600480360381019061064d91906149a4565b611b8a565b60405161065f9190613b8f565b60405180910390f35b34801561067457600080fd5b5061068f600480360381019061068a91906149e4565b611c1e565b005b34801561069d57600080fd5b506106b860048036038101906106b39190614a7b565b611cbf565b005b60008073ffffffffffffffffffffffffffffffffffffffff168373ffffffffffffffffffffffffffffffffffffffff16141561072b576040517f08c379a000000000000000000000000000000000000000000000000000000000815260040161072290614b40565b60405180910390fd5b60008083815260200190815260200160002060008473ffffffffffffffffffffffffffffffffffffffff1673ffffffffffffffffffffffffffffffffffffffff16815260200190815260200160002054905092915050565b600061078e82611d5c565b9050919050565b7f7804d923f43a17d325d77e781528e0793b2edd9890ab45fc64efd7b4b427744c6107c7816107c2611dd6565b611dde565b6107d082611e7b565b5050565b823373ffffffffffffffffffffffffffffffffffffffff1660068281548110610800576107ff614b60565b5b906000526020600020906002020160000160009054906101000a900473ffffffffffffffffffffffffffffffffffffffff1673ffffffffffffffffffffffffffffffffffffffff1614610888576040517f08c379a000000000000000000000000000000000000000000000000000000000815260040161087f90614bdb565b60405180910390fd5b6000825167ffffffffffffffff8111156108a5576108a4613bc5565b5b6040519080825280602002602001820160405280156108d35781602001602082028036833780820191505090505b50905060005b83518110156109165760008282815181106108f7576108f6614b60565b5b602002602001018181525050808061090e90614c2a565b9150506108d9565b50600960008681526020019081526020016000206040518060600160405280868152602001858152602001838152509080600181540180825580915050600190039060005260206000209060030201600090919091909150600082015181600001908051906020019061098a929190613829565b5060208201518160010190805190602001906109a79291906138af565b5060408201518160020190805190602001906109c492919061390f565b5050507f37d80bfa4cabc29501fdb25be0eb46ef12f14a245dcd8ac773935e6112406a42338660096000898152602001908152602001600020604051610a0c93929190615015565b60405180910390a15050505050565b606060028054610a2a90614cd1565b80601f0160208091040260200160405190810160405280929190818152602001828054610a5690614cd1565b8015610aa35780601f10610a7857610100808354040283529160200191610aa3565b820191906000526020600020905b815481529060010190602001808311610a8657829003601f168201915b50505050509050919050565b600060036000838152602001908152602001600020600101549050919050565b80600073ffffffffffffffffffffffffffffffffffffffff1660068281548110610afc57610afb614b60565b5b906000526020600020906002020160000160009054906101000a900473ffffffffffffffffffffffffffffffffffffffff1673ffffffffffffffffffffffffffffffffffffffff161415610b85576040517f08c379a0000000000000000000000000000000000000000000000000000000008152600401610b7c9061509f565b60405180910390fd5b60008060068481548110610b9c57610b9b614b60565b5b906000526020600020906002020160000160009054906101000a900473ffffffffffffffffffffffffffffffffffffffff1673ffffffffffffffffffffffffffffffffffffffff1634604051610bf1906150f0565b60006040518083038185875af1925050503d8060008114610c2e576040519150601f19603f3d011682016040523d82523d6000602084013e610c33565b606091505b509150915081610c78576040517f08c379a0000000000000000000000000000000000000000000000000000000008152600401610c6f90615151565b60405180910390fd5b600060068581548110610c8e57610c8d614b60565b5b90600052602060002090600202016001015434610cab91906151a0565b9050610cff60068681548110610cc457610cc3614b60565b5b906000526020600020906002020160000160009054906101000a900473ffffffffffffffffffffffffffffffffffffffff1633878486611e95565b7f3138022358a8810b94b406356f325ea086dad47c99cf2a60890c8a321aca15d960068681548110610d3457610d33614b60565b5b906000526020600020906002020160000160009054906101000a900473ffffffffffffffffffffffffffffffffffffffff1633878486604051610d7b959493929190615285565b60405180910390a15050505050565b610d92611dd6565b73ffffffffffffffffffffffffffffffffffffffff168573ffffffffffffffffffffffffffffffffffffffff161480610dd85750610dd785610dd2611dd6565b611b8a565b5b610e17576040517f08c379a0000000000000000000000000000000000000000000000000000000008152600401610e0e90615351565b60405180910390fd5b610e248585858585612117565b5050505050565b610e3482610aaf565b610e4581610e40611dd6565b611dde565b610e4f838361242b565b505050565b610e5c611dd6565b73ffffffffffffffffffffffffffffffffffffffff168173ffffffffffffffffffffffffffffffffffffffff1614610ec9576040517f08c379a0000000000000000000000000000000000000000000000000000000008152600401610ec0906153e3565b60405180910390fd5b610ed3828261250c565b5050565b6060600080600960008681526020019081526020016000208481548110610f0157610f00614b60565b5b9060005260206000209060030201600201805480602002602001604051908101604052809291908181526020018280548015610f5c57602002820191906000526020600020905b815481526020019060010190808311610f48575b5050505050905060008060005b8351811015610fc85782848281518110610f8657610f85614b60565b5b60200260200101511115610fb557838181518110610fa757610fa6614b60565b5b602002602001015192508091505b8080610fc090614c2a565b915050610f69565b506000600960008981526020019081526020016000208781548110610ff057610fef614b60565b5b9060005260206000209060030201600101828154811061101357611012614b60565b5b90600052602060002001805461102890614cd1565b80601f016020809104026020016040519081016040528092919081815260200182805461105490614cd1565b80156110a15780601f10611076576101008083540402835291602001916110a1565b820191906000526020600020905b81548152906001019060200180831161108457829003601f168201915b50505050509050808395509550505050509250929050565b606081518351146110ff576040517f08c379a00000000000000000000000000000000000000000000000000000000081526004016110f690615475565b60405180910390fd5b6000835167ffffffffffffffff81111561111c5761111b613bc5565b5b60405190808252806020026020018201604052801561114a5781602001602082028036833780820191505090505b50905060005b84518110156111c75761119785828151811061116f5761116e614b60565b5b602002602001015185838151811061118a57611189614b60565b5b60200260200101516106ba565b8282815181106111aa576111a9614b60565b5b602002602001018181525050806111c090614c2a565b9050611150565b508091505092915050565b6000806111de83611909565b119050919050565b6000801b6111fb816111f6611dd6565b611dde565b600660405180604001604052808673ffffffffffffffffffffffffffffffffffffffff16815260200184815250908060018154018082558091505060019003906000526020600020906002020160009091909190915060008201518160000160006101000a81548173ffffffffffffffffffffffffffffffffffffffff021916908373ffffffffffffffffffffffffffffffffffffffff1602179055506020820151816001015550506112c18460055485604051806020016040528060008152506125ee565b7fe9eb42f8ecbee1afc1aca5b0be2080f3718fe855ba1c1cdc22db679c7d2b170f8460055485856040516112f89493929190615495565b60405180910390a160016005600082825461131391906154da565b9250508190555050505050565b611328611dd6565b73ffffffffffffffffffffffffffffffffffffffff168373ffffffffffffffffffffffffffffffffffffffff16148061136e575061136d83611368611dd6565b611b8a565b5b6113ad576040517f08c379a00000000000000000000000000000000000000000000000000000000081526004016113a4906155a2565b60405180910390fd5b6113b8838383612784565b505050565b7f7804d923f43a17d325d77e781528e0793b2edd9890ab45fc64efd7b4b427744c81565b8282600a6000838152602001908152602001600020600082815260200190815260200160002060003373ffffffffffffffffffffffffffffffffffffffff1673ffffffffffffffffffffffffffffffffffffffff16815260200190815260200160002060009054906101000a900460ff1615611492576040517f08c379a00000000000000000000000000000000000000000000000000000000081526004016114899061560e565b60405180910390fd5b600061149e33876106ba565b9050806009600088815260200190815260200160002086815481106114c6576114c5614b60565b5b906000526020600020906003020160020185815481106114e9576114e8614b60565b5b90600052602060002001600082825461150291906154da565b925050819055506001600a6000888152602001908152602001600020600087815260200190815260200160002060003373ffffffffffffffffffffffffffffffffffffffff1673ffffffffffffffffffffffffffffffffffffffff16815260200190815260200160002060006101000a81548160ff0219169083151502179055507f6c7eb2743ec28489909706ea440d909129004996be657d36c6e9add778546abf338787846040516115b8949392919061562e565b60405180910390a1505050505050565b60006003600084815260200190815260200160002060000160008373ffffffffffffffffffffffffffffffffffffffff1673ffffffffffffffffffffffffffffffffffffffff16815260200190815260200160002060009054906101000a900460ff16905092915050565b6000801b81565b61164c611645611dd6565b8383612a35565b5050565b803373ffffffffffffffffffffffffffffffffffffffff166006828154811061167c5761167b614b60565b5b906000526020600020906002020160000160009054906101000a900473ffffffffffffffffffffffffffffffffffffffff1673ffffffffffffffffffffffffffffffffffffffff1614611704576040517f08c379a00000000000000000000000000000000000000000000000000000000081526004016116fb90614bdb565b60405180910390fd5b60005b60078054905081101561190457600061171f84611909565b346117686007858154811061173757611736614b60565b5b9060005260206000200160009054906101000a900473ffffffffffffffffffffffffffffffffffffffff16876106ba565b6117729190615673565b61177c91906151a0565b90506000806007848154811061179557611794614b60565b5b9060005260206000200160009054906101000a900473ffffffffffffffffffffffffffffffffffffffff1673ffffffffffffffffffffffffffffffffffffffff16836040516117e3906150f0565b60006040518083038185875af1925050503d8060008114611820576040519150601f19603f3d011682016040523d82523d6000602084013e611825565b606091505b50915091507f8ebe82e5be42b667883a49114b153e27d7fbf05869a57c0778e7010c18cb77636006878154811061185f5761185e614b60565b5b906000526020600020906002020160000160009054906101000a900473ffffffffffffffffffffffffffffffffffffffff16600786815481106118a5576118a4614b60565b5b9060005260206000200160009054906101000a900473ffffffffffffffffffffffffffffffffffffffff16888585886040516118e6969594939291906156cd565b60405180910390a150505080806118fc90614c2a565b915050611707565b505050565b600060046000838152602001908152602001600020549050919050565b6060600060096000848152602001908152602001600020805480602002602001604051908101604052809291908181526020016000905b82821015611b52578382906000526020600020906003020160405180606001604052908160008201805461199090614cd1565b80601f01602080910402602001604051908101604052809291908181526020018280546119bc90614cd1565b8015611a095780601f106119de57610100808354040283529160200191611a09565b820191906000526020600020905b8154815290600101906020018083116119ec57829003601f168201915b5050505050815260200160018201805480602002602001604051908101604052809291908181526020016000905b82821015611ae3578382906000526020600020018054611a5690614cd1565b80601f0160208091040260200160405190810160405280929190818152602001828054611a8290614cd1565b8015611acf5780601f10611aa457610100808354040283529160200191611acf565b820191906000526020600020905b815481529060010190602001808311611ab257829003601f168201915b505050505081526020019060010190611a37565b50505050815260200160028201805480602002602001604051908101604052809291908181526020018280548015611b3a57602002820191906000526020600020905b815481526020019060010190808311611b26575b5050505050815250508152602001906001019061195d565b50505050905080915050919050565b611b6a82610aaf565b611b7b81611b76611dd6565b611dde565b611b85838361250c565b505050565b6000600160008473ffffffffffffffffffffffffffffffffffffffff1673ffffffffffffffffffffffffffffffffffffffff16815260200190815260200160002060008373ffffffffffffffffffffffffffffffffffffffff1673ffffffffffffffffffffffffffffffffffffffff16815260200190815260200160002060009054906101000a900460ff16905092915050565b611c26611dd6565b73ffffffffffffffffffffffffffffffffffffffff168573ffffffffffffffffffffffffffffffffffffffff161480611c6c5750611c6b85611c66611dd6565b611b8a565b5b611cab576040517f08c379a0000000000000000000000000000000000000000000000000000000008152600401611ca2906155a2565b60405180910390fd5b611cb88585858585611e95565b5050505050565b611cc7611dd6565b73ffffffffffffffffffffffffffffffffffffffff168373ffffffffffffffffffffffffffffffffffffffff161480611d0d5750611d0c83611d07611dd6565b611b8a565b5b611d4c576040517f08c379a0000000000000000000000000000000000000000000000000000000008152600401611d43906155a2565b60405180910390fd5b611d57838383612ba2565b505050565b60007f7965db0b000000000000000000000000000000000000000000000000000000007bffffffffffffffffffffffffffffffffffffffffffffffffffffffff1916827bffffffffffffffffffffffffffffffffffffffffffffffffffffffff19161480611dcf5750611dce82612dbf565b5b9050919050565b600033905090565b611de882826115c8565b611e7757611e0d8173ffffffffffffffffffffffffffffffffffffffff166014612ea1565b611e1b8360001c6020612ea1565b604051602001611e2c929190615809565b6040516020818303038152906040526040517f08c379a0000000000000000000000000000000000000000000000000000000008152600401611e6e9190613f5f565b60405180910390fd5b5050565b8060029080519060200190611e91929190613829565b5050565b600073ffffffffffffffffffffffffffffffffffffffff168473ffffffffffffffffffffffffffffffffffffffff161415611f05576040517f08c379a0000000000000000000000000000000000000000000000000000000008152600401611efc906158b5565b60405180910390fd5b6000611f0f611dd6565b9050611f2f818787611f20886130dd565b611f29886130dd565b87613157565b600080600086815260200190815260200160002060008873ffffffffffffffffffffffffffffffffffffffff1673ffffffffffffffffffffffffffffffffffffffff16815260200190815260200160002054905083811015611fc6576040517f08c379a0000000000000000000000000000000000000000000000000000000008152600401611fbd90615947565b60405180910390fd5b83810360008087815260200190815260200160002060008973ffffffffffffffffffffffffffffffffffffffff1673ffffffffffffffffffffffffffffffffffffffff168152602001908152602001600020819055508360008087815260200190815260200160002060008873ffffffffffffffffffffffffffffffffffffffff1673ffffffffffffffffffffffffffffffffffffffff168152602001908152602001600020600082825461207b91906154da565b925050819055508573ffffffffffffffffffffffffffffffffffffffff168773ffffffffffffffffffffffffffffffffffffffff168373ffffffffffffffffffffffffffffffffffffffff167fc3d58168c5ae7397731d063d5bbf3d657854427343f4c083240f7aacaa2d0f6288886040516120f8929190615967565b60405180910390a461210e82888888888861327a565b50505050505050565b815183511461215b576040517f08c379a000000000000000000000000000000000000000000000000000000000815260040161215290615a02565b60405180910390fd5b600073ffffffffffffffffffffffffffffffffffffffff168473ffffffffffffffffffffffffffffffffffffffff1614156121cb576040517f08c379a00000000000000000000000000000000000000000000000000000000081526004016121c2906158b5565b60405180910390fd5b60006121d5611dd6565b90506121e5818787878787613157565b60005b845181101561239657600085828151811061220657612205614b60565b5b60200260200101519050600085838151811061222557612224614b60565b5b60200260200101519050600080600084815260200190815260200160002060008b73ffffffffffffffffffffffffffffffffffffffff1673ffffffffffffffffffffffffffffffffffffffff168152602001908152602001600020549050818110156122c6576040517f08c379a00000000000000000000000000000000000000000000000000000000081526004016122bd90615947565b60405180910390fd5b81810360008085815260200190815260200160002060008c73ffffffffffffffffffffffffffffffffffffffff1673ffffffffffffffffffffffffffffffffffffffff168152602001908152602001600020819055508160008085815260200190815260200160002060008b73ffffffffffffffffffffffffffffffffffffffff1673ffffffffffffffffffffffffffffffffffffffff168152602001908152602001600020600082825461237b91906154da565b925050819055505050508061238f90614c2a565b90506121e8565b508473ffffffffffffffffffffffffffffffffffffffff168673ffffffffffffffffffffffffffffffffffffffff168273ffffffffffffffffffffffffffffffffffffffff167f4a39dc06d4c0dbc64b70af90fd698a233a518aa5d07e595d983b8c0526c8f7fb878760405161240d929190615a22565b60405180910390a4612423818787878787613452565b505050505050565b61243582826115c8565b6125085760016003600084815260200190815260200160002060000160008373ffffffffffffffffffffffffffffffffffffffff1673ffffffffffffffffffffffffffffffffffffffff16815260200190815260200160002060006101000a81548160ff0219169083151502179055506124ad611dd6565b73ffffffffffffffffffffffffffffffffffffffff168173ffffffffffffffffffffffffffffffffffffffff16837f2f8788117e7eff1d82e926ec794901d17c78024a50270940304540a733656f0d60405160405180910390a45b5050565b61251682826115c8565b156125ea5760006003600084815260200190815260200160002060000160008373ffffffffffffffffffffffffffffffffffffffff1673ffffffffffffffffffffffffffffffffffffffff16815260200190815260200160002060006101000a81548160ff02191690831515021790555061258f611dd6565b73ffffffffffffffffffffffffffffffffffffffff168173ffffffffffffffffffffffffffffffffffffffff16837ff6391f5c32d9c69d2a47ea670b442974b53935d1edc7fd64eb21e047a839171b60405160405180910390a45b5050565b600073ffffffffffffffffffffffffffffffffffffffff168473ffffffffffffffffffffffffffffffffffffffff16141561265e576040517f08c379a000000000000000000000000000000000000000000000000000000000815260040161265590615acb565b60405180910390fd5b6000612668611dd6565b90506126898160008761267a886130dd565b612683886130dd565b87613157565b8260008086815260200190815260200160002060008773ffffffffffffffffffffffffffffffffffffffff1673ffffffffffffffffffffffffffffffffffffffff16815260200190815260200160002060008282546126e891906154da565b925050819055508473ffffffffffffffffffffffffffffffffffffffff16600073ffffffffffffffffffffffffffffffffffffffff168273ffffffffffffffffffffffffffffffffffffffff167fc3d58168c5ae7397731d063d5bbf3d657854427343f4c083240f7aacaa2d0f628787604051612766929190615967565b60405180910390a461277d8160008787878761327a565b5050505050565b600073ffffffffffffffffffffffffffffffffffffffff168373ffffffffffffffffffffffffffffffffffffffff1614156127f4576040517f08c379a00000000000000000000000000000000000000000000000000000000081526004016127eb90615b5d565b60405180910390fd5b8051825114612838576040517f08c379a000000000000000000000000000000000000000000000000000000000815260040161282f90615a02565b60405180910390fd5b6000612842611dd6565b905061286281856000868660405180602001604052806000815250613157565b60005b83518110156129af57600084828151811061288357612882614b60565b5b6020026020010151905060008483815181106128a2576128a1614b60565b5b60200260200101519050600080600084815260200190815260200160002060008973ffffffffffffffffffffffffffffffffffffffff1673ffffffffffffffffffffffffffffffffffffffff16815260200190815260200160002054905081811015612943576040517f08c379a000000000000000000000000000000000000000000000000000000000815260040161293a90615bef565b60405180910390fd5b81810360008085815260200190815260200160002060008a73ffffffffffffffffffffffffffffffffffffffff1673ffffffffffffffffffffffffffffffffffffffff1681526020019081526020016000208190555050505080806129a790614c2a565b915050612865565b50600073ffffffffffffffffffffffffffffffffffffffff168473ffffffffffffffffffffffffffffffffffffffff168273ffffffffffffffffffffffffffffffffffffffff167f4a39dc06d4c0dbc64b70af90fd698a233a518aa5d07e595d983b8c0526c8f7fb8686604051612a27929190615a22565b60405180910390a450505050565b8173ffffffffffffffffffffffffffffffffffffffff168373ffffffffffffffffffffffffffffffffffffffff161415612aa4576040517f08c379a0000000000000000000000000000000000000000000000000000000008152600401612a9b90615c81565b60405180910390fd5b80600160008573ffffffffffffffffffffffffffffffffffffffff1673ffffffffffffffffffffffffffffffffffffffff16815260200190815260200160002060008473ffffffffffffffffffffffffffffffffffffffff1673ffffffffffffffffffffffffffffffffffffffff16815260200190815260200160002060006101000a81548160ff0219169083151502179055508173ffffffffffffffffffffffffffffffffffffffff168373ffffffffffffffffffffffffffffffffffffffff167f17307eab39ab6107e8899845ad3d59bd9653f200f220920489ca2b5937696c3183604051612b959190613b8f565b60405180910390a3505050565b600073ffffffffffffffffffffffffffffffffffffffff168373ffffffffffffffffffffffffffffffffffffffff161415612c12576040517f08c379a0000000000000000000000000000000000000000000000000000000008152600401612c0990615b5d565b60405180910390fd5b6000612c1c611dd6565b9050612c4c81856000612c2e876130dd565b612c37876130dd565b60405180602001604052806000815250613157565b600080600085815260200190815260200160002060008673ffffffffffffffffffffffffffffffffffffffff1673ffffffffffffffffffffffffffffffffffffffff16815260200190815260200160002054905082811015612ce3576040517f08c379a0000000000000000000000000000000000000000000000000000000008152600401612cda90615bef565b60405180910390fd5b82810360008086815260200190815260200160002060008773ffffffffffffffffffffffffffffffffffffffff1673ffffffffffffffffffffffffffffffffffffffff16815260200190815260200160002081905550600073ffffffffffffffffffffffffffffffffffffffff168573ffffffffffffffffffffffffffffffffffffffff168373ffffffffffffffffffffffffffffffffffffffff167fc3d58168c5ae7397731d063d5bbf3d657854427343f4c083240f7aacaa2d0f628787604051612db0929190615967565b60405180910390a45050505050565b60007fd9b67a26000000000000000000000000000000000000000000000000000000007bffffffffffffffffffffffffffffffffffffffffffffffffffffffff1916827bffffffffffffffffffffffffffffffffffffffffffffffffffffffff19161480612e8a57507f0e89341c000000000000000000000000000000000000000000000000000000007bffffffffffffffffffffffffffffffffffffffffffffffffffffffff1916827bffffffffffffffffffffffffffffffffffffffffffffffffffffffff1916145b80612e9a5750612e998261362a565b5b9050919050565b606060006002836002612eb49190615673565b612ebe91906154da565b67ffffffffffffffff811115612ed757612ed6613bc5565b5b6040519080825280601f01601f191660200182016040528015612f095781602001600182028036833780820191505090505b5090507f300000000000000000000000000000000000000000000000000000000000000081600081518110612f4157612f40614b60565b5b60200101907effffffffffffffffffffffffffffffffffffffffffffffffffffffffffffff1916908160001a9053507f780000000000000000000000000000000000000000000000000000000000000081600181518110612fa557612fa4614b60565b5b60200101907effffffffffffffffffffffffffffffffffffffffffffffffffffffffffffff1916908160001a90535060006001846002612fe59190615673565b612fef91906154da565b90505b600181111561308f577f3031323334353637383961626364656600000000000000000000000000000000600f86166010811061303157613030614b60565b5b1a60f81b82828151811061304857613047614b60565b5b60200101907effffffffffffffffffffffffffffffffffffffffffffffffffffffffffffff1916908160001a905350600485901c94508061308890615ca1565b9050612ff2565b50600084146130d3576040517f08c379a00000000000000000000000000000000000000000000000000000000081526004016130ca90615d17565b60405180910390fd5b8091505092915050565b60606000600167ffffffffffffffff8111156130fc576130fb613bc5565b5b60405190808252806020026020018201604052801561312a5781602001602082028036833780820191505090505b509050828160008151811061314257613141614b60565b5b60200260200101818152505080915050919050565b600860008573ffffffffffffffffffffffffffffffffffffffff1673ffffffffffffffffffffffffffffffffffffffff16815260200190815260200160002060009054906101000a900460ff16613264576007849080600181540180825580915050600190039060005260206000200160009091909190916101000a81548173ffffffffffffffffffffffffffffffffffffffff021916908373ffffffffffffffffffffffffffffffffffffffff1602179055506001600860008673ffffffffffffffffffffffffffffffffffffffff1673ffffffffffffffffffffffffffffffffffffffff16815260200190815260200160002060006101000a81548160ff0219169083151502179055505b613272868686868686613694565b505050505050565b6132998473ffffffffffffffffffffffffffffffffffffffff1661380e565b1561344a578373ffffffffffffffffffffffffffffffffffffffff1663f23a6e6187878686866040518663ffffffff1660e01b81526004016132df959493929190615d37565b6020604051808303816000875af192505050801561331b57506040513d601f19601f820116820180604052508101906133189190615da6565b60015b6133c157613327615de0565b806308c379a01415613384575061333c615e02565b806133475750613386565b806040517f08c379a000000000000000000000000000000000000000000000000000000000815260040161337b9190613f5f565b60405180910390fd5b505b6040517f08c379a00000000000000000000000000000000000000000000000000000000081526004016133b890615f0a565b60405180910390fd5b63f23a6e6160e01b7bffffffffffffffffffffffffffffffffffffffffffffffffffffffff1916817bffffffffffffffffffffffffffffffffffffffffffffffffffffffff191614613448576040517f08c379a000000000000000000000000000000000000000000000000000000000815260040161343f90615f9c565b60405180910390fd5b505b505050505050565b6134718473ffffffffffffffffffffffffffffffffffffffff1661380e565b15613622578373ffffffffffffffffffffffffffffffffffffffff1663bc197c8187878686866040518663ffffffff1660e01b81526004016134b7959493929190615fbc565b6020604051808303816000875af19250505080156134f357506040513d601f19601f820116820180604052508101906134f09190615da6565b60015b613599576134ff615de0565b806308c379a0141561355c5750613514615e02565b8061351f575061355e565b806040517f08c379a00000000000000000000000000000000000000000000000000000000081526004016135539190613f5f565b60405180910390fd5b505b6040517f08c379a000000000000000000000000000000000000000000000000000000000815260040161359090615f0a565b60405180910390fd5b63bc197c8160e01b7bffffffffffffffffffffffffffffffffffffffffffffffffffffffff1916817bffffffffffffffffffffffffffffffffffffffffffffffffffffffff191614613620576040517f08c379a000000000000000000000000000000000000000000000000000000000815260040161361790615f9c565b60405180910390fd5b505b505050505050565b60007f01ffc9a7000000000000000000000000000000000000000000000000000000007bffffffffffffffffffffffffffffffffffffffffffffffffffffffff1916827bffffffffffffffffffffffffffffffffffffffffffffffffffffffff1916149050919050565b6136a2868686868686613821565b600073ffffffffffffffffffffffffffffffffffffffff168573ffffffffffffffffffffffffffffffffffffffff1614156137545760005b8351811015613752578281815181106136f6576136f5614b60565b5b60200260200101516004600086848151811061371557613714614b60565b5b60200260200101518152602001908152602001600020600082825461373a91906154da565b925050819055508061374b90614c2a565b90506136da565b505b600073ffffffffffffffffffffffffffffffffffffffff168473ffffffffffffffffffffffffffffffffffffffff1614156138065760005b8351811015613804578281815181106137a8576137a7614b60565b5b6020026020010151600460008684815181106137c7576137c6614b60565b5b6020026020010151815260200190815260200160002060008282546137ec9190616024565b92505081905550806137fd90614c2a565b905061378c565b505b505050505050565b600080823b905060008111915050919050565b505050505050565b82805461383590614cd1565b90600052602060002090601f016020900481019282613857576000855561389e565b82601f1061387057805160ff191683800117855561389e565b8280016001018555821561389e579182015b8281111561389d578251825591602001919060010190613882565b5b5090506138ab919061395c565b5090565b8280548282559060005260206000209081019282156138fe579160200282015b828111156138fd5782518290805190602001906138ed929190613829565b50916020019190600101906138cf565b5b50905061390b9190613979565b5090565b82805482825590600052602060002090810192821561394b579160200282015b8281111561394a57825182559160200191906001019061392f565b5b509050613958919061395c565b5090565b5b8082111561397557600081600090555060010161395d565b5090565b5b808211156139995760008181613990919061399d565b5060010161397a565b5090565b5080546139a990614cd1565b6000825580601f106139bb57506139da565b601f0160209004906000526020600020908101906139d9919061395c565b5b50565b6000604051905090565b600080fd5b600080fd5b600073ffffffffffffffffffffffffffffffffffffffff82169050919050565b6000613a1c826139f1565b9050919050565b613a2c81613a11565b8114613a3757600080fd5b50565b600081359050613a4981613a23565b92915050565b6000819050919050565b613a6281613a4f565b8114613a6d57600080fd5b50565b600081359050613a7f81613a59565b92915050565b60008060408385031215613a9c57613a9b6139e7565b5b6000613aaa85828601613a3a565b9250506020613abb85828601613a70565b9150509250929050565b613ace81613a4f565b82525050565b6000602082019050613ae96000830184613ac5565b92915050565b60007fffffffff0000000000000000000000000000000000000000000000000000000082169050919050565b613b2481613aef565b8114613b2f57600080fd5b50565b600081359050613b4181613b1b565b92915050565b600060208284031215613b5d57613b5c6139e7565b5b6000613b6b84828501613b32565b91505092915050565b60008115159050919050565b613b8981613b74565b82525050565b6000602082019050613ba46000830184613b80565b92915050565b600080fd5b600080fd5b6000601f19601f8301169050919050565b7f4e487b7100000000000000000000000000000000000000000000000000000000600052604160045260246000fd5b613bfd82613bb4565b810181811067ffffffffffffffff82111715613c1c57613c1b613bc5565b5b80604052505050565b6000613c2f6139dd565b9050613c3b8282613bf4565b919050565b600067ffffffffffffffff821115613c5b57613c5a613bc5565b5b613c6482613bb4565b9050602081019050919050565b82818337600083830152505050565b6000613c93613c8e84613c40565b613c25565b905082815260208101848484011115613caf57613cae613baf565b5b613cba848285613c71565b509392505050565b600082601f830112613cd757613cd6613baa565b5b8135613ce7848260208601613c80565b91505092915050565b600060208284031215613d0657613d056139e7565b5b600082013567ffffffffffffffff811115613d2457613d236139ec565b5b613d3084828501613cc2565b91505092915050565b600067ffffffffffffffff821115613d5457613d53613bc5565b5b602082029050602081019050919050565b600080fd5b6000613d7d613d7884613d39565b613c25565b90508083825260208201905060208402830185811115613da057613d9f613d65565b5b835b81811015613de757803567ffffffffffffffff811115613dc557613dc4613baa565b5b808601613dd28982613cc2565b85526020850194505050602081019050613da2565b5050509392505050565b600082601f830112613e0657613e05613baa565b5b8135613e16848260208601613d6a565b91505092915050565b600080600060608486031215613e3857613e376139e7565b5b6000613e4686828701613a70565b935050602084013567ffffffffffffffff811115613e6757613e666139ec565b5b613e7386828701613cc2565b925050604084013567ffffffffffffffff811115613e9457613e936139ec565b5b613ea086828701613df1565b9150509250925092565b600060208284031215613ec057613ebf6139e7565b5b6000613ece84828501613a70565b91505092915050565b600081519050919050565b600082825260208201905092915050565b60005b83811015613f11578082015181840152602081019050613ef6565b83811115613f20576000848401525b50505050565b6000613f3182613ed7565b613f3b8185613ee2565b9350613f4b818560208601613ef3565b613f5481613bb4565b840191505092915050565b60006020820190508181036000830152613f798184613f26565b905092915050565b6000819050919050565b613f9481613f81565b8114613f9f57600080fd5b50565b600081359050613fb181613f8b565b92915050565b600060208284031215613fcd57613fcc6139e7565b5b6000613fdb84828501613fa2565b91505092915050565b613fed81613f81565b82525050565b60006020820190506140086000830184613fe4565b92915050565b600067ffffffffffffffff82111561402957614028613bc5565b5b602082029050602081019050919050565b600061404d6140488461400e565b613c25565b905080838252602082019050602084028301858111156140705761406f613d65565b5b835b8181101561409957806140858882613a70565b845260208401935050602081019050614072565b5050509392505050565b600082601f8301126140b8576140b7613baa565b5b81356140c884826020860161403a565b91505092915050565b600067ffffffffffffffff8211156140ec576140eb613bc5565b5b6140f582613bb4565b9050602081019050919050565b6000614115614110846140d1565b613c25565b90508281526020810184848401111561413157614130613baf565b5b61413c848285613c71565b509392505050565b600082601f83011261415957614158613baa565b5b8135614169848260208601614102565b91505092915050565b600080600080600060a0868803121561418e5761418d6139e7565b5b600061419c88828901613a3a565b95505060206141ad88828901613a3a565b945050604086013567ffffffffffffffff8111156141ce576141cd6139ec565b5b6141da888289016140a3565b935050606086013567ffffffffffffffff8111156141fb576141fa6139ec565b5b614207888289016140a3565b925050608086013567ffffffffffffffff811115614228576142276139ec565b5b61423488828901614144565b9150509295509295909350565b60008060408385031215614258576142576139e7565b5b600061426685828601613fa2565b925050602061427785828601613a3a565b9150509250929050565b60008060408385031215614298576142976139e7565b5b60006142a685828601613a70565b92505060206142b785828601613a70565b9150509250929050565b600060408201905081810360008301526142db8185613f26565b90506142ea6020830184613ac5565b9392505050565b600067ffffffffffffffff82111561430c5761430b613bc5565b5b602082029050602081019050919050565b600061433061432b846142f1565b613c25565b9050808382526020820190506020840283018581111561435357614352613d65565b5b835b8181101561437c57806143688882613a3a565b845260208401935050602081019050614355565b5050509392505050565b600082601f83011261439b5761439a613baa565b5b81356143ab84826020860161431d565b91505092915050565b600080604083850312156143cb576143ca6139e7565b5b600083013567ffffffffffffffff8111156143e9576143e86139ec565b5b6143f585828601614386565b925050602083013567ffffffffffffffff811115614416576144156139ec565b5b614422858286016140a3565b9150509250929050565b600081519050919050565b600082825260208201905092915050565b6000819050602082019050919050565b61446181613a4f565b82525050565b60006144738383614458565b60208301905092915050565b6000602082019050919050565b60006144978261442c565b6144a18185614437565b93506144ac83614448565b8060005b838110156144dd5781516144c48882614467565b97506144cf8361447f565b9250506001810190506144b0565b5085935050505092915050565b60006020820190508181036000830152614504818461448c565b905092915050565b6000614517826139f1565b9050919050565b6145278161450c565b811461453257600080fd5b50565b6000813590506145448161451e565b92915050565b600080600060608486031215614563576145626139e7565b5b600061457186828701614535565b935050602061458286828701613a70565b925050604061459386828701613a70565b9150509250925092565b6000806000606084860312156145b6576145b56139e7565b5b60006145c486828701613a3a565b935050602084013567ffffffffffffffff8111156145e5576145e46139ec565b5b6145f1868287016140a3565b925050604084013567ffffffffffffffff811115614612576146116139ec565b5b61461e868287016140a3565b9150509250925092565b600080600060608486031215614641576146406139e7565b5b600061464f86828701613a70565b935050602061466086828701613a70565b925050604061467186828701613a70565b9150509250925092565b61468481613b74565b811461468f57600080fd5b50565b6000813590506146a18161467b565b92915050565b600080604083850312156146be576146bd6139e7565b5b60006146cc85828601613a3a565b92505060206146dd85828601614692565b9150509250929050565b600081519050919050565b600082825260208201905092915050565b6000819050602082019050919050565b600082825260208201905092915050565b600061472f82613ed7565b6147398185614713565b9350614749818560208601613ef3565b61475281613bb4565b840191505092915050565b600081519050919050565b600082825260208201905092915050565b6000819050602082019050919050565b60006147958383614724565b905092915050565b6000602082019050919050565b60006147b58261475d565b6147bf8185614768565b9350836020820285016147d185614779565b8060005b8581101561480d57848403895281516147ee8582614789565b94506147f98361479d565b925060208a019950506001810190506147d5565b50829750879550505050505092915050565b600082825260208201905092915050565b600061483b8261442c565b614845818561481f565b935061485083614448565b8060005b838110156148815781516148688882614467565b97506148738361447f565b925050600181019050614854565b5085935050505092915050565b600060608301600083015184820360008601526148ab8282614724565b915050602083015184820360208601526148c582826147aa565b915050604083015184820360408601526148df8282614830565b9150508091505092915050565b60006148f8838361488e565b905092915050565b6000602082019050919050565b6000614918826146e7565b61492281856146f2565b93508360208202850161493485614703565b8060005b85811015614970578484038952815161495185826148ec565b945061495c83614900565b925060208a01995050600181019050614938565b50829750879550505050505092915050565b6000602082019050818103600083015261499c818461490d565b905092915050565b600080604083850312156149bb576149ba6139e7565b5b60006149c985828601613a3a565b92505060206149da85828601613a3a565b9150509250929050565b600080600080600060a08688031215614a00576149ff6139e7565b5b6000614a0e88828901613a3a565b9550506020614a1f88828901613a3a565b9450506040614a3088828901613a70565b9350506060614a4188828901613a70565b925050608086013567ffffffffffffffff811115614a6257614a616139ec565b5b614a6e88828901614144565b9150509295509295909350565b600080600060608486031215614a9457614a936139e7565b5b6000614aa286828701613a3a565b9350506020614ab386828701613a70565b9250506040614ac486828701613a70565b9150509250925092565b7f455243313135353a2062616c616e636520717565727920666f7220746865207a60008201527f65726f2061646472657373000000000000000000000000000000000000000000602082015250565b6000614b2a602b83613ee2565b9150614b3582614ace565b604082019050919050565b60006020820190508181036000830152614b5981614b1d565b9050919050565b7f4e487b7100000000000000000000000000000000000000000000000000000000600052603260045260246000fd5b7f4e6f7420546f6b656e2041646d696e0000000000000000000000000000000000600082015250565b6000614bc5600f83613ee2565b9150614bd082614b8f565b602082019050919050565b60006020820190508181036000830152614bf481614bb8565b9050919050565b7f4e487b7100000000000000000000000000000000000000000000000000000000600052601160045260246000fd5b6000614c3582613a4f565b91507fffffffffffffffffffffffffffffffffffffffffffffffffffffffffffffffff821415614c6857614c67614bfb565b5b600182019050919050565b614c7c81613a11565b82525050565b600081549050919050565b60008190508160005260206000209050919050565b7f4e487b7100000000000000000000000000000000000000000000000000000000600052602260045260246000fd5b60006002820490506001821680614ce957607f821691505b60208210811415614cfd57614cfc614ca2565b5b50919050565b60008190508160005260206000209050919050565b60008154614d2581614cd1565b614d2f8186614713565b94506001821660008114614d4a5760018114614d5c57614d8f565b60ff1983168652602086019350614d8f565b614d6585614d03565b60005b83811015614d8757815481890152600182019150602081019050614d68565b808801955050505b50505092915050565b600081549050919050565b60008190508160005260206000209050919050565b6000614dc48383614d18565b905092915050565b6000600182019050919050565b6000614de482614d98565b614dee8185614768565b935083602082028501614e0085614da3565b8060005b85811015614e3b57848403895281614e1c8582614db8565b9450614e2783614dcc565b925060208a01995050600181019050614e04565b50829750879550505050505092915050565b600081549050919050565b60008190508160005260206000209050919050565b60008160001c9050919050565b6000819050919050565b6000614e97614e9283614e6d565b614e7a565b9050919050565b6000614eaa8254614e84565b9050919050565b6000600182019050919050565b6000614ec982614e4d565b614ed3818561481f565b9350614ede83614e58565b8060005b83811015614f1657614ef382614e9e565b614efd8882614467565b9750614f0883614eb1565b925050600181019050614ee2565b5085935050505092915050565b60006060830160008084018583036000870152614f408382614d18565b925050600184018583036020870152614f598382614dd9565b925050600284018583036040870152614f728382614ebe565b925050819250505092915050565b6000614f8c8383614f23565b905092915050565b6000600382019050919050565b6000614fac82614c82565b614fb681856146f2565b935083602082028501614fc885614c8d565b8060005b8581101561500357848403895281614fe48582614f80565b9450614fef83614f94565b925060208a01995050600181019050614fcc565b50829750879550505050505092915050565b600060608201905061502a6000830186614c73565b6150376020830185613ac5565b81810360408301526150498184614fa1565b9050949350505050565b7f546f6b656e20446f6573204e6f74204578697374000000000000000000000000600082015250565b6000615089601483613ee2565b915061509482615053565b602082019050919050565b600060208201905081810360008301526150b88161507c565b9050919050565b600081905092915050565b50565b60006150da6000836150bf565b91506150e5826150ca565b600082019050919050565b60006150fb826150cd565b9150819050919050565b7f5472616e73616374696f6e206661696c65642100000000000000000000000000600082015250565b600061513b601383613ee2565b915061514682615105565b602082019050919050565b6000602082019050818103600083015261516a8161512e565b9050919050565b7f4e487b7100000000000000000000000000000000000000000000000000000000600052601260045260246000fd5b60006151ab82613a4f565b91506151b683613a4f565b9250826151c6576151c5615171565b5b828204905092915050565b6000819050919050565b60006151f66151f16151ec846139f1565b6151d1565b6139f1565b9050919050565b6000615208826151db565b9050919050565b600061521a826151fd565b9050919050565b61522a8161520f565b82525050565b600081519050919050565b600082825260208201905092915050565b600061525782615230565b615261818561523b565b9350615271818560208601613ef3565b61527a81613bb4565b840191505092915050565b600060a08201905061529a6000830188615221565b6152a76020830187614c73565b6152b46040830186613ac5565b6152c16060830185613ac5565b81810360808301526152d3818461524c565b90509695505050505050565b7f455243313135353a207472616e736665722063616c6c6572206973206e6f742060008201527f6f776e6572206e6f7220617070726f7665640000000000000000000000000000602082015250565b600061533b603283613ee2565b9150615346826152df565b604082019050919050565b6000602082019050818103600083015261536a8161532e565b9050919050565b7f416363657373436f6e74726f6c3a2063616e206f6e6c792072656e6f756e636560008201527f20726f6c657320666f722073656c660000000000000000000000000000000000602082015250565b60006153cd602f83613ee2565b91506153d882615371565b604082019050919050565b600060208201905081810360008301526153fc816153c0565b9050919050565b7f455243313135353a206163636f756e747320616e6420696473206c656e67746860008201527f206d69736d617463680000000000000000000000000000000000000000000000602082015250565b600061545f602983613ee2565b915061546a82615403565b604082019050919050565b6000602082019050818103600083015261548e81615452565b9050919050565b60006080820190506154aa6000830187615221565b6154b76020830186613ac5565b6154c46040830185613ac5565b6154d16060830184613ac5565b95945050505050565b60006154e582613a4f565b91506154f083613a4f565b9250827fffffffffffffffffffffffffffffffffffffffffffffffffffffffffffffffff0382111561552557615524614bfb565b5b828201905092915050565b7f455243313135353a2063616c6c6572206973206e6f74206f776e6572206e6f7260008201527f20617070726f7665640000000000000000000000000000000000000000000000602082015250565b600061558c602983613ee2565b915061559782615530565b604082019050919050565b600060208201905081810360008301526155bb8161557f565b9050919050565b7f416c726561647920766f74656400000000000000000000000000000000000000600082015250565b60006155f8600d83613ee2565b9150615603826155c2565b602082019050919050565b60006020820190508181036000830152615627816155eb565b9050919050565b60006080820190506156436000830187614c73565b6156506020830186613ac5565b61565d6040830185613ac5565b61566a6060830184613ac5565b95945050505050565b600061567e82613a4f565b915061568983613a4f565b9250817fffffffffffffffffffffffffffffffffffffffffffffffffffffffffffffffff04831182151516156156c2576156c1614bfb565b5b828202905092915050565b600060c0820190506156e26000830189615221565b6156ef6020830188614c73565b6156fc6040830187613ac5565b6157096060830186613b80565b818103608083015261571b818561524c565b905061572a60a0830184613ac5565b979650505050505050565b600081905092915050565b7f416363657373436f6e74726f6c3a206163636f756e7420000000000000000000600082015250565b6000615776601783615735565b915061578182615740565b601782019050919050565b600061579782613ed7565b6157a18185615735565b93506157b1818560208601613ef3565b80840191505092915050565b7f206973206d697373696e6720726f6c6520000000000000000000000000000000600082015250565b60006157f3601183615735565b91506157fe826157bd565b601182019050919050565b600061581482615769565b9150615820828561578c565b915061582b826157e6565b9150615837828461578c565b91508190509392505050565b7f455243313135353a207472616e7366657220746f20746865207a65726f20616460008201527f6472657373000000000000000000000000000000000000000000000000000000602082015250565b600061589f602583613ee2565b91506158aa82615843565b604082019050919050565b600060208201905081810360008301526158ce81615892565b9050919050565b7f455243313135353a20696e73756666696369656e742062616c616e636520666f60008201527f72207472616e7366657200000000000000000000000000000000000000000000602082015250565b6000615931602a83613ee2565b915061593c826158d5565b604082019050919050565b6000602082019050818103600083015261596081615924565b9050919050565b600060408201905061597c6000830185613ac5565b6159896020830184613ac5565b9392505050565b7f455243313135353a2069647320616e6420616d6f756e7473206c656e6774682060008201527f6d69736d61746368000000000000000000000000000000000000000000000000602082015250565b60006159ec602883613ee2565b91506159f782615990565b604082019050919050565b60006020820190508181036000830152615a1b816159df565b9050919050565b60006040820190508181036000830152615a3c818561448c565b90508181036020830152615a50818461448c565b90509392505050565b7f455243313135353a206d696e7420746f20746865207a65726f2061646472657360008201527f7300000000000000000000000000000000000000000000000000000000000000602082015250565b6000615ab5602183613ee2565b9150615ac082615a59565b604082019050919050565b60006020820190508181036000830152615ae481615aa8565b9050919050565b7f455243313135353a206275726e2066726f6d20746865207a65726f206164647260008201527f6573730000000000000000000000000000000000000000000000000000000000602082015250565b6000615b47602383613ee2565b9150615b5282615aeb565b604082019050919050565b60006020820190508181036000830152615b7681615b3a565b9050919050565b7f455243313135353a206275726e20616d6f756e7420657863656564732062616c60008201527f616e636500000000000000000000000000000000000000000000000000000000602082015250565b6000615bd9602483613ee2565b9150615be482615b7d565b604082019050919050565b60006020820190508181036000830152615c0881615bcc565b9050919050565b7f455243313135353a2073657474696e6720617070726f76616c2073746174757360008201527f20666f722073656c660000000000000000000000000000000000000000000000602082015250565b6000615c6b602983613ee2565b9150615c7682615c0f565b604082019050919050565b60006020820190508181036000830152615c9a81615c5e565b9050919050565b6000615cac82613a4f565b91506000821415615cc057615cbf614bfb565b5b600182039050919050565b7f537472696e67733a20686578206c656e67746820696e73756666696369656e74600082015250565b6000615d01602083613ee2565b9150615d0c82615ccb565b602082019050919050565b60006020820190508181036000830152615d3081615cf4565b9050919050565b600060a082019050615d4c6000830188614c73565b615d596020830187614c73565b615d666040830186613ac5565b615d736060830185613ac5565b8181036080830152615d85818461524c565b90509695505050505050565b600081519050615da081613b1b565b92915050565b600060208284031215615dbc57615dbb6139e7565b5b6000615dca84828501615d91565b91505092915050565b60008160e01c9050919050565b600060033d1115615dff5760046000803e615dfc600051615dd3565b90505b90565b600060443d1015615e1257615e95565b615e1a6139dd565b60043d036004823e80513d602482011167ffffffffffffffff82111715615e42575050615e95565b808201805167ffffffffffffffff811115615e605750505050615e95565b80602083010160043d038501811115615e7d575050505050615e95565b615e8c82602001850186613bf4565b82955050505050505b90565b7f455243313135353a207472616e7366657220746f206e6f6e204552433131353560008201527f526563656976657220696d706c656d656e746572000000000000000000000000602082015250565b6000615ef4603483613ee2565b9150615eff82615e98565b604082019050919050565b60006020820190508181036000830152615f2381615ee7565b9050919050565b7f455243313135353a204552433131353552656365697665722072656a6563746560008201527f6420746f6b656e73000000000000000000000000000000000000000000000000602082015250565b6000615f86602883613ee2565b9150615f9182615f2a565b604082019050919050565b60006020820190508181036000830152615fb581615f79565b9050919050565b600060a082019050615fd16000830188614c73565b615fde6020830187614c73565b8181036040830152615ff0818661448c565b90508181036060830152616004818561448c565b90508181036080830152616018818461524c565b90509695505050505050565b600061602f82613a4f565b915061603a83613a4f565b92508282101561604d5761604c614bfb565b5b82820390509291505056fea26469706673582212204ca53bb43900a4b65ca7fd69c2233acd8e72b56d4f1a19017f2a7a9223004f0f64736f6c634300080a0033",
  "immutableReferences": {},
  "source": "// SPDX-License-Identifier: MIT\r\npragma solidity ^0.8.2;\r\n\r\nimport \"@openzeppelin/contracts/token/ERC1155/ERC1155.sol\";\r\nimport \"@openzeppelin/contracts/access/AccessControl.sol\";\r\nimport \"@openzeppelin/contracts/token/ERC1155/extensions/ERC1155Supply.sol\";\r\nimport \"@openzeppelin/contracts/token/ERC1155/extensions/ERC1155Burnable.sol\";\r\n\r\n/// @custom:security-contact adityapatkar22@gmail.com, archeelparekh11@gmail.com\r\ncontract MyToken is ERC1155, AccessControl, ERC1155Supply, ERC1155Burnable {\r\n    bytes32 public constant URI_SETTER_ROLE = keccak256(\"URI_SETTER_ROLE\");\r\n\r\n    struct Token {\r\n        address payable tokenAdmin;\r\n        uint256 rate;\r\n    }\r\n    uint256 _currentTokenIndex = 0;\r\n    Token[] _tokens;\r\n    address[] private _tokenHolders;\r\n    mapping(address => bool) _tokenHoldersMapping;\r\n\r\n    struct Poll {\r\n        string question;\r\n        string[] options;\r\n        uint256[] votes;\r\n    }\r\n    mapping(uint256 => Poll[]) pollsMapping;\r\n    mapping(uint256 => mapping(uint256 => mapping(address => bool))) votedMapping;\r\n\r\n    event AddNewToken(\r\n        address tokenAdmin,\r\n        uint256 tokenID,\r\n        uint256 amount,\r\n        uint256 rate\r\n    );\r\n    event BuyToken(\r\n        address tokenAdmin,\r\n        address buyer,\r\n        uint256 tokenID,\r\n        uint256 amount,\r\n        bytes data\r\n    );\r\n    event Disburse(\r\n        address tokenAdmin,\r\n        address holder,\r\n        uint256 tokenID,\r\n        bool success,\r\n        bytes data,\r\n        uint256 amount\r\n    );\r\n    event CreatePoll(address tokenAdmin, uint256 tokenID, Poll[] polls);\r\n    event Vote(address Voter, uint256 tokenID, uint256 pollID, uint256 weight);\r\n\r\n    modifier tokenExists(uint256 tokenID) {\r\n        require(\r\n            _tokens[tokenID].tokenAdmin != address(0),\r\n            \"Token Does Not Exist\"\r\n        );\r\n        _;\r\n    }\r\n\r\n    modifier isTokenAdmin(uint256 tokenID) {\r\n        require(_tokens[tokenID].tokenAdmin == msg.sender, \"Not Token Admin\");\r\n        _;\r\n    }\r\n\r\n    modifier notVoted(uint256 tokenID, uint256 pollID) {\r\n        require(!votedMapping[tokenID][pollID][msg.sender], \"Already voted\");\r\n        _;\r\n    }\r\n\r\n    constructor() ERC1155(\"\") {\r\n        _grantRole(DEFAULT_ADMIN_ROLE, msg.sender);\r\n        _grantRole(URI_SETTER_ROLE, msg.sender);\r\n    }\r\n\r\n    function setURI(string memory newuri) public onlyRole(URI_SETTER_ROLE) {\r\n        _setURI(newuri);\r\n    }\r\n\r\n    // Adding a new token\r\n    function addNewToken(\r\n        address payable tokenAdmin,\r\n        uint256 amount,\r\n        uint256 rate\r\n    ) public onlyRole(DEFAULT_ADMIN_ROLE) {\r\n        _tokens.push(Token(tokenAdmin, rate));\r\n        _mint(tokenAdmin, _currentTokenIndex, amount, \"\");\r\n        emit AddNewToken(tokenAdmin, _currentTokenIndex, amount, rate);\r\n        _currentTokenIndex += 1;\r\n    }\r\n\r\n    // Buying a new token\r\n    function buyToken(uint256 tokenID) public payable tokenExists(tokenID) {\r\n        (bool success, bytes memory data) = _tokens[tokenID].tokenAdmin.call{\r\n            value: msg.value\r\n        }(\"\");\r\n        require(success, \"Transaction failed!\");\r\n        uint256 amount = msg.value / _tokens[tokenID].rate;\r\n        _safeTransferFrom(\r\n            _tokens[tokenID].tokenAdmin,\r\n            msg.sender,\r\n            tokenID,\r\n            amount,\r\n            data\r\n        );\r\n        emit BuyToken(\r\n            _tokens[tokenID].tokenAdmin,\r\n            msg.sender,\r\n            tokenID,\r\n            amount,\r\n            data\r\n        );\r\n    }\r\n\r\n    // Disburse to holders\r\n    function disburse(uint256 tokenID) public payable isTokenAdmin(tokenID) {\r\n        for (uint256 i = 0; i < _tokenHolders.length; i++) {\r\n            uint256 amount = (balanceOf(_tokenHolders[i], tokenID) *\r\n                msg.value) / totalSupply(tokenID);\r\n            (bool success, bytes memory data) = _tokenHolders[i].call{\r\n                value: amount\r\n            }(\"\");\r\n            emit Disburse(\r\n                _tokens[tokenID].tokenAdmin,\r\n                _tokenHolders[i],\r\n                tokenID,\r\n                success,\r\n                data,\r\n                amount\r\n            );\r\n        }\r\n    }\r\n\r\n    // Create a poll\r\n    function createPoll(\r\n        uint256 tokenID,\r\n        string memory question,\r\n        string[] memory options\r\n    ) public isTokenAdmin(tokenID) {\r\n        uint256[] memory newVotes = new uint256[](options.length);\r\n        for (uint256 i = 0; i < options.length; i++) {\r\n            newVotes[i] = 0;\r\n        }\r\n        pollsMapping[tokenID].push(Poll(question, options, newVotes));\r\n        emit CreatePoll(msg.sender, tokenID, pollsMapping[tokenID]);\r\n    }\r\n\r\n    // Get all polls\r\n    function getPolls(uint256 tokenID) public view returns (Poll[] memory) {\r\n        Poll[] memory allPolls = pollsMapping[tokenID];\r\n        return allPolls;\r\n    }\r\n\r\n    // Vote on a poll\r\n    function vote(\r\n        uint256 tokenID,\r\n        uint256 pollID,\r\n        uint256 option\r\n    ) public notVoted(tokenID, pollID) {\r\n        uint256 balance = balanceOf(msg.sender, tokenID);\r\n        pollsMapping[tokenID][pollID].votes[option] += balance;\r\n        votedMapping[tokenID][pollID][msg.sender] = true;\r\n        emit Vote(msg.sender, tokenID, pollID, balance);\r\n    }\r\n\r\n    // Get Poll results\r\n    function getPollResults(uint256 tokenID, uint256 pollID)\r\n        public\r\n        view\r\n        returns (string memory, uint256)\r\n    {\r\n        uint256[] memory votesArray = pollsMapping[tokenID][pollID].votes;\r\n        uint256 largest = 0;\r\n        uint256 option = 0;\r\n\r\n        for (uint256 i = 0; i < votesArray.length; i++) {\r\n            if (votesArray[i] > largest) {\r\n                largest = votesArray[i];\r\n                option = i;\r\n            }\r\n        }\r\n        string memory answer = pollsMapping[tokenID][pollID].options[option];\r\n        return (answer, largest);\r\n    }\r\n\r\n    // The following functions are overrides required by Solidity.\r\n    function _beforeTokenTransfer(\r\n        address operator,\r\n        address from,\r\n        address to,\r\n        uint256[] memory ids,\r\n        uint256[] memory amounts,\r\n        bytes memory data\r\n    ) internal override(ERC1155, ERC1155Supply) {\r\n        if (!_tokenHoldersMapping[to]) {\r\n            _tokenHolders.push(to);\r\n            _tokenHoldersMapping[to] = true;\r\n        }\r\n        super._beforeTokenTransfer(operator, from, to, ids, amounts, data);\r\n    }\r\n\r\n    function supportsInterface(bytes4 interfaceId)\r\n        public\r\n        view\r\n        override(ERC1155, AccessControl)\r\n        returns (bool)\r\n    {\r\n        return super.supportsInterface(interfaceId);\r\n    }\r\n}\r\n",
  "sourcePath": "D:\\Archeel\\Final-Year-Project\\SmartContracts\\contracts\\MyToken.sol",
  "compiler": {
    "name": "solc",
    "version": "0.8.10+commit.fc410830.Emscripten.clang"
  },
  "schemaVersion": "3.4.3",
  "updatedAt": "2021-12-08T10:26:10.896Z",
  "devdoc": {
    "custom:security-contact": "adityapatkar22@gmail.com, archeelparekh11@gmail.com",
    "kind": "dev",
    "methods": {
      "balanceOf(address,uint256)": {
        "details": "See {IERC1155-balanceOf}. Requirements: - `account` cannot be the zero address."
      },
      "balanceOfBatch(address[],uint256[])": {
        "details": "See {IERC1155-balanceOfBatch}. Requirements: - `accounts` and `ids` must have the same length."
      },
      "exists(uint256)": {
        "details": "Indicates whether any token exist with a given id, or not."
      },
      "getRoleAdmin(bytes32)": {
        "details": "Returns the admin role that controls `role`. See {grantRole} and {revokeRole}. To change a role's admin, use {_setRoleAdmin}."
      },
      "grantRole(bytes32,address)": {
        "details": "Grants `role` to `account`. If `account` had not been already granted `role`, emits a {RoleGranted} event. Requirements: - the caller must have ``role``'s admin role."
      },
      "hasRole(bytes32,address)": {
        "details": "Returns `true` if `account` has been granted `role`."
      },
      "isApprovedForAll(address,address)": {
        "details": "See {IERC1155-isApprovedForAll}."
      },
      "renounceRole(bytes32,address)": {
        "details": "Revokes `role` from the calling account. Roles are often managed via {grantRole} and {revokeRole}: this function's purpose is to provide a mechanism for accounts to lose their privileges if they are compromised (such as when a trusted device is misplaced). If the calling account had been revoked `role`, emits a {RoleRevoked} event. Requirements: - the caller must be `account`."
      },
      "revokeRole(bytes32,address)": {
        "details": "Revokes `role` from `account`. If `account` had been granted `role`, emits a {RoleRevoked} event. Requirements: - the caller must have ``role``'s admin role."
      },
      "safeBatchTransferFrom(address,address,uint256[],uint256[],bytes)": {
        "details": "See {IERC1155-safeBatchTransferFrom}."
      },
      "safeTransferFrom(address,address,uint256,uint256,bytes)": {
        "details": "See {IERC1155-safeTransferFrom}."
      },
      "setApprovalForAll(address,bool)": {
        "details": "See {IERC1155-setApprovalForAll}."
      },
      "totalSupply(uint256)": {
        "details": "Total amount of tokens in with a given id."
      },
      "uri(uint256)": {
        "details": "See {IERC1155MetadataURI-uri}. This implementation returns the same URI for *all* token types. It relies on the token type ID substitution mechanism https://eips.ethereum.org/EIPS/eip-1155#metadata[defined in the EIP]. Clients calling this function must replace the `\\{id\\}` substring with the actual token type ID."
      }
    },
    "version": 1
  },
  "userdoc": {
    "kind": "user",
    "methods": {},
    "version": 1
  }
}