{
  "contractName": "MyToken",
  "abi": [
    {
      "inputs": [],
      "stateMutability": "nonpayable",
      "type": "constructor"
    },
    {
      "anonymous": false,
      "inputs": [
        {
          "indexed": false,
          "internalType": "address",
          "name": "tokenAdmin",
          "type": "address"
        },
        {
          "indexed": false,
          "internalType": "uint256",
          "name": "tokenID",
          "type": "uint256"
        },
        {
          "indexed": false,
          "internalType": "uint256",
          "name": "amount",
          "type": "uint256"
        },
        {
          "indexed": false,
          "internalType": "uint256",
          "name": "rate",
          "type": "uint256"
        }
      ],
      "name": "AddNewToken",
      "type": "event"
    },
    {
      "anonymous": false,
      "inputs": [
        {
          "indexed": true,
          "internalType": "address",
          "name": "account",
          "type": "address"
        },
        {
          "indexed": true,
          "internalType": "address",
          "name": "operator",
          "type": "address"
        },
        {
          "indexed": false,
          "internalType": "bool",
          "name": "approved",
          "type": "bool"
        }
      ],
      "name": "ApprovalForAll",
      "type": "event"
    },
    {
      "anonymous": false,
      "inputs": [
        {
          "indexed": false,
          "internalType": "address",
          "name": "tokenAdmin",
          "type": "address"
        },
        {
          "indexed": false,
          "internalType": "address",
          "name": "buyer",
          "type": "address"
        },
        {
          "indexed": false,
          "internalType": "uint256",
          "name": "tokenID",
          "type": "uint256"
        },
        {
          "indexed": false,
          "internalType": "uint256",
          "name": "amount",
          "type": "uint256"
        },
        {
          "indexed": false,
          "internalType": "bytes",
          "name": "data",
          "type": "bytes"
        }
      ],
      "name": "BuyToken",
      "type": "event"
    },
    {
      "anonymous": false,
      "inputs": [
        {
          "indexed": false,
          "internalType": "address",
          "name": "tokenAdmin",
          "type": "address"
        },
        {
          "indexed": false,
          "internalType": "uint256",
          "name": "tokenID",
          "type": "uint256"
        },
        {
          "components": [
            {
              "internalType": "string",
              "name": "question",
              "type": "string"
            },
            {
              "internalType": "string[]",
              "name": "options",
              "type": "string[]"
            },
            {
              "internalType": "uint256[]",
              "name": "votes",
              "type": "uint256[]"
            }
          ],
          "indexed": false,
          "internalType": "struct MyToken.Poll[]",
          "name": "polls",
          "type": "tuple[]"
        }
      ],
      "name": "CreatePoll",
      "type": "event"
    },
    {
      "anonymous": false,
      "inputs": [
        {
          "indexed": false,
          "internalType": "address",
          "name": "tokenAdmin",
          "type": "address"
        },
        {
          "indexed": false,
          "internalType": "address",
          "name": "holder",
          "type": "address"
        },
        {
          "indexed": false,
          "internalType": "uint256",
          "name": "tokenID",
          "type": "uint256"
        },
        {
          "indexed": false,
          "internalType": "bool",
          "name": "success",
          "type": "bool"
        },
        {
          "indexed": false,
          "internalType": "bytes",
          "name": "data",
          "type": "bytes"
        },
        {
          "indexed": false,
          "internalType": "uint256",
          "name": "amount",
          "type": "uint256"
        }
      ],
      "name": "Disburse",
      "type": "event"
    },
    {
      "anonymous": false,
      "inputs": [
        {
          "indexed": true,
          "internalType": "bytes32",
          "name": "role",
          "type": "bytes32"
        },
        {
          "indexed": true,
          "internalType": "bytes32",
          "name": "previousAdminRole",
          "type": "bytes32"
        },
        {
          "indexed": true,
          "internalType": "bytes32",
          "name": "newAdminRole",
          "type": "bytes32"
        }
      ],
      "name": "RoleAdminChanged",
      "type": "event"
    },
    {
      "anonymous": false,
      "inputs": [
        {
          "indexed": true,
          "internalType": "bytes32",
          "name": "role",
          "type": "bytes32"
        },
        {
          "indexed": true,
          "internalType": "address",
          "name": "account",
          "type": "address"
        },
        {
          "indexed": true,
          "internalType": "address",
          "name": "sender",
          "type": "address"
        }
      ],
      "name": "RoleGranted",
      "type": "event"
    },
    {
      "anonymous": false,
      "inputs": [
        {
          "indexed": true,
          "internalType": "bytes32",
          "name": "role",
          "type": "bytes32"
        },
        {
          "indexed": true,
          "internalType": "address",
          "name": "account",
          "type": "address"
        },
        {
          "indexed": true,
          "internalType": "address",
          "name": "sender",
          "type": "address"
        }
      ],
      "name": "RoleRevoked",
      "type": "event"
    },
    {
      "anonymous": false,
      "inputs": [
        {
          "indexed": true,
          "internalType": "address",
          "name": "operator",
          "type": "address"
        },
        {
          "indexed": true,
          "internalType": "address",
          "name": "from",
          "type": "address"
        },
        {
          "indexed": true,
          "internalType": "address",
          "name": "to",
          "type": "address"
        },
        {
          "indexed": false,
          "internalType": "uint256[]",
          "name": "ids",
          "type": "uint256[]"
        },
        {
          "indexed": false,
          "internalType": "uint256[]",
          "name": "values",
          "type": "uint256[]"
        }
      ],
      "name": "TransferBatch",
      "type": "event"
    },
    {
      "anonymous": false,
      "inputs": [
        {
          "indexed": true,
          "internalType": "address",
          "name": "operator",
          "type": "address"
        },
        {
          "indexed": true,
          "internalType": "address",
          "name": "from",
          "type": "address"
        },
        {
          "indexed": true,
          "internalType": "address",
          "name": "to",
          "type": "address"
        },
        {
          "indexed": false,
          "internalType": "uint256",
          "name": "id",
          "type": "uint256"
        },
        {
          "indexed": false,
          "internalType": "uint256",
          "name": "value",
          "type": "uint256"
        }
      ],
      "name": "TransferSingle",
      "type": "event"
    },
    {
      "anonymous": false,
      "inputs": [
        {
          "indexed": false,
          "internalType": "string",
          "name": "value",
          "type": "string"
        },
        {
          "indexed": true,
          "internalType": "uint256",
          "name": "id",
          "type": "uint256"
        }
      ],
      "name": "URI",
      "type": "event"
    },
    {
      "anonymous": false,
      "inputs": [
        {
          "indexed": false,
          "internalType": "address",
          "name": "Voter",
          "type": "address"
        },
        {
          "indexed": false,
          "internalType": "uint256",
          "name": "tokenID",
          "type": "uint256"
        },
        {
          "indexed": false,
          "internalType": "uint256",
          "name": "pollID",
          "type": "uint256"
        },
        {
          "indexed": false,
          "internalType": "uint256",
          "name": "weight",
          "type": "uint256"
        }
      ],
      "name": "Vote",
      "type": "event"
    },
    {
      "inputs": [],
      "name": "DEFAULT_ADMIN_ROLE",
      "outputs": [
        {
          "internalType": "bytes32",
          "name": "",
          "type": "bytes32"
        }
      ],
      "stateMutability": "view",
      "type": "function"
    },
    {
      "inputs": [],
      "name": "URI_SETTER_ROLE",
      "outputs": [
        {
          "internalType": "bytes32",
          "name": "",
          "type": "bytes32"
        }
      ],
      "stateMutability": "view",
      "type": "function"
    },
    {
      "inputs": [
        {
          "internalType": "address",
          "name": "account",
          "type": "address"
        },
        {
          "internalType": "uint256",
          "name": "id",
          "type": "uint256"
        }
      ],
      "name": "balanceOf",
      "outputs": [
        {
          "internalType": "uint256",
          "name": "",
          "type": "uint256"
        }
      ],
      "stateMutability": "view",
      "type": "function"
    },
    {
      "inputs": [
        {
          "internalType": "address[]",
          "name": "accounts",
          "type": "address[]"
        },
        {
          "internalType": "uint256[]",
          "name": "ids",
          "type": "uint256[]"
        }
      ],
      "name": "balanceOfBatch",
      "outputs": [
        {
          "internalType": "uint256[]",
          "name": "",
          "type": "uint256[]"
        }
      ],
      "stateMutability": "view",
      "type": "function"
    },
    {
      "inputs": [
        {
          "internalType": "address",
          "name": "account",
          "type": "address"
        },
        {
          "internalType": "uint256",
          "name": "id",
          "type": "uint256"
        },
        {
          "internalType": "uint256",
          "name": "value",
          "type": "uint256"
        }
      ],
      "name": "burn",
      "outputs": [],
      "stateMutability": "nonpayable",
      "type": "function"
    },
    {
      "inputs": [
        {
          "internalType": "address",
          "name": "account",
          "type": "address"
        },
        {
          "internalType": "uint256[]",
          "name": "ids",
          "type": "uint256[]"
        },
        {
          "internalType": "uint256[]",
          "name": "values",
          "type": "uint256[]"
        }
      ],
      "name": "burnBatch",
      "outputs": [],
      "stateMutability": "nonpayable",
      "type": "function"
    },
    {
      "inputs": [
        {
          "internalType": "uint256",
          "name": "id",
          "type": "uint256"
        }
      ],
      "name": "exists",
      "outputs": [
        {
          "internalType": "bool",
          "name": "",
          "type": "bool"
        }
      ],
      "stateMutability": "view",
      "type": "function"
    },
    {
      "inputs": [
        {
          "internalType": "bytes32",
          "name": "role",
          "type": "bytes32"
        }
      ],
      "name": "getRoleAdmin",
      "outputs": [
        {
          "internalType": "bytes32",
          "name": "",
          "type": "bytes32"
        }
      ],
      "stateMutability": "view",
      "type": "function"
    },
    {
      "inputs": [
        {
          "internalType": "bytes32",
          "name": "role",
          "type": "bytes32"
        },
        {
          "internalType": "address",
          "name": "account",
          "type": "address"
        }
      ],
      "name": "grantRole",
      "outputs": [],
      "stateMutability": "nonpayable",
      "type": "function"
    },
    {
      "inputs": [
        {
          "internalType": "bytes32",
          "name": "role",
          "type": "bytes32"
        },
        {
          "internalType": "address",
          "name": "account",
          "type": "address"
        }
      ],
      "name": "hasRole",
      "outputs": [
        {
          "internalType": "bool",
          "name": "",
          "type": "bool"
        }
      ],
      "stateMutability": "view",
      "type": "function"
    },
    {
      "inputs": [
        {
          "internalType": "address",
          "name": "account",
          "type": "address"
        },
        {
          "internalType": "address",
          "name": "operator",
          "type": "address"
        }
      ],
      "name": "isApprovedForAll",
      "outputs": [
        {
          "internalType": "bool",
          "name": "",
          "type": "bool"
        }
      ],
      "stateMutability": "view",
      "type": "function"
    },
    {
      "inputs": [
        {
          "internalType": "bytes32",
          "name": "role",
          "type": "bytes32"
        },
        {
          "internalType": "address",
          "name": "account",
          "type": "address"
        }
      ],
      "name": "renounceRole",
      "outputs": [],
      "stateMutability": "nonpayable",
      "type": "function"
    },
    {
      "inputs": [
        {
          "internalType": "bytes32",
          "name": "role",
          "type": "bytes32"
        },
        {
          "internalType": "address",
          "name": "account",
          "type": "address"
        }
      ],
      "name": "revokeRole",
      "outputs": [],
      "stateMutability": "nonpayable",
      "type": "function"
    },
    {
      "inputs": [
        {
          "internalType": "address",
          "name": "from",
          "type": "address"
        },
        {
          "internalType": "address",
          "name": "to",
          "type": "address"
        },
        {
          "internalType": "uint256[]",
          "name": "ids",
          "type": "uint256[]"
        },
        {
          "internalType": "uint256[]",
          "name": "amounts",
          "type": "uint256[]"
        },
        {
          "internalType": "bytes",
          "name": "data",
          "type": "bytes"
        }
      ],
      "name": "safeBatchTransferFrom",
      "outputs": [],
      "stateMutability": "nonpayable",
      "type": "function"
    },
    {
      "inputs": [
        {
          "internalType": "address",
          "name": "from",
          "type": "address"
        },
        {
          "internalType": "address",
          "name": "to",
          "type": "address"
        },
        {
          "internalType": "uint256",
          "name": "id",
          "type": "uint256"
        },
        {
          "internalType": "uint256",
          "name": "amount",
          "type": "uint256"
        },
        {
          "internalType": "bytes",
          "name": "data",
          "type": "bytes"
        }
      ],
      "name": "safeTransferFrom",
      "outputs": [],
      "stateMutability": "nonpayable",
      "type": "function"
    },
    {
      "inputs": [
        {
          "internalType": "address",
          "name": "operator",
          "type": "address"
        },
        {
          "internalType": "bool",
          "name": "approved",
          "type": "bool"
        }
      ],
      "name": "setApprovalForAll",
      "outputs": [],
      "stateMutability": "nonpayable",
      "type": "function"
    },
    {
      "inputs": [
        {
          "internalType": "uint256",
          "name": "id",
          "type": "uint256"
        }
      ],
      "name": "totalSupply",
      "outputs": [
        {
          "internalType": "uint256",
          "name": "",
          "type": "uint256"
        }
      ],
      "stateMutability": "view",
      "type": "function"
    },
    {
      "inputs": [
        {
          "internalType": "uint256",
          "name": "",
          "type": "uint256"
        }
      ],
      "name": "uri",
      "outputs": [
        {
          "internalType": "string",
          "name": "",
          "type": "string"
        }
      ],
      "stateMutability": "view",
      "type": "function"
    },
    {
      "inputs": [
        {
          "internalType": "string",
          "name": "newuri",
          "type": "string"
        }
      ],
      "name": "setURI",
      "outputs": [],
      "stateMutability": "nonpayable",
      "type": "function"
    },
    {
      "inputs": [
        {
          "internalType": "address payable",
          "name": "tokenAdmin",
          "type": "address"
        },
        {
          "internalType": "uint256",
          "name": "amount",
          "type": "uint256"
        },
        {
          "internalType": "uint256",
          "name": "rate",
          "type": "uint256"
        }
      ],
      "name": "addNewToken",
      "outputs": [],
      "stateMutability": "nonpayable",
      "type": "function"
    },
    {
      "inputs": [
        {
          "internalType": "uint256",
          "name": "tokenID",
          "type": "uint256"
        }
      ],
      "name": "buyToken",
      "outputs": [],
      "stateMutability": "payable",
      "type": "function"
    },
    {
      "inputs": [
        {
          "internalType": "uint256",
          "name": "tokenID",
          "type": "uint256"
        }
      ],
      "name": "disburse",
      "outputs": [],
      "stateMutability": "payable",
      "type": "function"
    },
    {
      "inputs": [
        {
          "internalType": "uint256",
          "name": "tokenID",
          "type": "uint256"
        },
        {
          "internalType": "string",
          "name": "question",
          "type": "string"
        },
        {
          "internalType": "string[]",
          "name": "options",
          "type": "string[]"
        }
      ],
      "name": "createPoll",
      "outputs": [],
      "stateMutability": "nonpayable",
      "type": "function"
    },
    {
      "inputs": [
        {
          "internalType": "uint256",
          "name": "tokenID",
          "type": "uint256"
        }
      ],
      "name": "getPolls",
      "outputs": [
        {
          "components": [
            {
              "internalType": "string",
              "name": "question",
              "type": "string"
            },
            {
              "internalType": "string[]",
              "name": "options",
              "type": "string[]"
            },
            {
              "internalType": "uint256[]",
              "name": "votes",
              "type": "uint256[]"
            }
          ],
          "internalType": "struct MyToken.Poll[]",
          "name": "",
          "type": "tuple[]"
        },
        {
          "internalType": "uint256[]",
          "name": "",
          "type": "uint256[]"
        },
        {
          "internalType": "uint256[]",
          "name": "",
          "type": "uint256[]"
        }
      ],
      "stateMutability": "view",
      "type": "function"
    },
    {
      "inputs": [
        {
          "internalType": "uint256",
          "name": "tokenID",
          "type": "uint256"
        },
        {
          "internalType": "uint256",
          "name": "pollID",
          "type": "uint256"
        },
        {
          "internalType": "uint256",
          "name": "option",
          "type": "uint256"
        }
      ],
      "name": "vote",
      "outputs": [],
      "stateMutability": "nonpayable",
      "type": "function"
    },
    {
      "inputs": [
        {
          "internalType": "bytes4",
          "name": "interfaceId",
          "type": "bytes4"
        }
      ],
      "name": "supportsInterface",
      "outputs": [
        {
          "internalType": "bool",
          "name": "",
          "type": "bool"
        }
      ],
      "stateMutability": "view",
      "type": "function"
    }
  ],
  "bytecode": "0x608060405260006005553480156200001657600080fd5b506040518060200160405280600081525062000038816200008660201b60201c565b506200004e6000801b33620000a260201b60201c565b620000807f7804d923f43a17d325d77e781528e0793b2edd9890ab45fc64efd7b4b427744c33620000a260201b60201c565b6200031c565b80600290805190602001906200009e92919062000207565b5050565b620000b482826200019460201b60201c565b620001905760016003600084815260200190815260200160002060000160008373ffffffffffffffffffffffffffffffffffffffff1673ffffffffffffffffffffffffffffffffffffffff16815260200190815260200160002060006101000a81548160ff02191690831515021790555062000135620001ff60201b60201c565b73ffffffffffffffffffffffffffffffffffffffff168173ffffffffffffffffffffffffffffffffffffffff16837f2f8788117e7eff1d82e926ec794901d17c78024a50270940304540a733656f0d60405160405180910390a45b5050565b60006003600084815260200190815260200160002060000160008373ffffffffffffffffffffffffffffffffffffffff1673ffffffffffffffffffffffffffffffffffffffff16815260200190815260200160002060009054906101000a900460ff16905092915050565b600033905090565b8280546200021590620002e6565b90600052602060002090601f01602090048101928262000239576000855562000285565b82601f106200025457805160ff191683800117855562000285565b8280016001018555821562000285579182015b828111156200028457825182559160200191906001019062000267565b5b50905062000294919062000298565b5090565b5b80821115620002b357600081600090555060010162000299565b5090565b7f4e487b7100000000000000000000000000000000000000000000000000000000600052602260045260246000fd5b60006002820490506001821680620002ff57607f821691505b60208210811415620003165762000315620002b7565b5b50919050565b61600a806200032c6000396000f3fe6080604052600436106101805760003560e01c80636b20c454116100d1578063bd77ac2c1161008a578063d547741f11610064578063d547741f146105ab578063e985e9c5146105d4578063f242432a14610611578063f5298aca1461063a57610180565b8063bd77ac2c14610513578063bd85b0391461052f578063ce2dee051461056c57610180565b80636b20c454146104055780637f3457101461042e5780638a6655d61461045957806391d1485414610482578063a217fddf146104bf578063a22cb465146104ea57610180565b80632d296bf11161013e57806336568abe1161011857806336568abe146103395780634e1273f4146103625780634f558e791461039f578063600a65df146103dc57610180565b80632d296bf1146102cb5780632eb2c2d6146102e75780632f2ff15d1461031057610180565b8062fdd58e1461018557806301ffc9a7146101c257806302fe5305146101ff5780630c9ef9a2146102285780630e89341c14610251578063248a9ca31461028e575b600080fd5b34801561019157600080fd5b506101ac60048036038101906101a79190613a47565b610663565b6040516101b99190613a96565b60405180910390f35b3480156101ce57600080fd5b506101e960048036038101906101e49190613b09565b61072c565b6040516101f69190613b51565b60405180910390f35b34801561020b57600080fd5b5061022660048036038101906102219190613cb2565b61073e565b005b34801561023457600080fd5b5061024f600480360381019061024a9190613de1565b61077d565b005b34801561025d57600080fd5b5061027860048036038101906102739190613e6c565b6109c4565b6040516102859190613f21565b60405180910390f35b34801561029a57600080fd5b506102b560048036038101906102b09190613f79565b610a58565b6040516102c29190613fb5565b60405180910390f35b6102e560048036038101906102e09190613e6c565b610a78565b005b3480156102f357600080fd5b5061030e60048036038101906103099190614134565b610d33565b005b34801561031c57600080fd5b5061033760048036038101906103329190614203565b610dd4565b005b34801561034557600080fd5b50610360600480360381019061035b9190614203565b610dfd565b005b34801561036e57600080fd5b5061038960048036038101906103849190614306565b610e80565b604051610396919061443c565b60405180910390f35b3480156103ab57600080fd5b506103c660048036038101906103c19190613e6c565b610f99565b6040516103d39190613b51565b60405180910390f35b3480156103e857600080fd5b5061040360048036038101906103fe919061449c565b610fad565b005b34801561041157600080fd5b5061042c600480360381019061042791906144ef565b6110e7565b005b34801561043a57600080fd5b50610443611184565b6040516104509190613fb5565b60405180910390f35b34801561046557600080fd5b50610480600480360381019061047b919061457a565b6111a8565b005b34801561048e57600080fd5b506104a960048036038101906104a49190614203565b61138f565b6040516104b69190613b51565b60405180910390f35b3480156104cb57600080fd5b506104d46113fa565b6040516104e19190613fb5565b60405180910390f35b3480156104f657600080fd5b50610511600480360381019061050c91906145f9565b611401565b005b61052d60048036038101906105289190613e6c565b611417565b005b34801561053b57600080fd5b5061055660048036038101906105519190613e6c565b6116d0565b6040516105639190613a96565b60405180910390f35b34801561057857600080fd5b50610593600480360381019061058e9190613e6c565b6116ed565b6040516105a2939291906148d4565b60405180910390f35b3480156105b757600080fd5b506105d260048036038101906105cd9190614203565b611b23565b005b3480156105e057600080fd5b506105fb60048036038101906105f69190614920565b611b4c565b6040516106089190613b51565b60405180910390f35b34801561061d57600080fd5b5061063860048036038101906106339190614960565b611be0565b005b34801561064657600080fd5b50610661600480360381019061065c91906149f7565b611c81565b005b60008073ffffffffffffffffffffffffffffffffffffffff168373ffffffffffffffffffffffffffffffffffffffff1614156106d4576040517f08c379a00000000000000000000000000000000000000000000000000000000081526004016106cb90614abc565b60405180910390fd5b60008083815260200190815260200160002060008473ffffffffffffffffffffffffffffffffffffffff1673ffffffffffffffffffffffffffffffffffffffff16815260200190815260200160002054905092915050565b600061073782611d1e565b9050919050565b7f7804d923f43a17d325d77e781528e0793b2edd9890ab45fc64efd7b4b427744c6107708161076b611d98565b611da0565b61077982611e3d565b5050565b823373ffffffffffffffffffffffffffffffffffffffff16600682815481106107a9576107a8614adc565b5b906000526020600020906002020160000160009054906101000a900473ffffffffffffffffffffffffffffffffffffffff1673ffffffffffffffffffffffffffffffffffffffff1614610831576040517f08c379a000000000000000000000000000000000000000000000000000000000815260040161082890614b57565b60405180910390fd5b6000825167ffffffffffffffff81111561084e5761084d613b87565b5b60405190808252806020026020018201604052801561087c5781602001602082028036833780820191505090505b50905060005b83518110156108bf5760008282815181106108a05761089f614adc565b5b60200260200101818152505080806108b790614ba6565b915050610882565b5060096000868152602001908152602001600020604051806060016040528086815260200185815260200183815250908060018154018082558091505060019003906000526020600020906003020160009091909190915060008201518160000190805190602001906109339291906137eb565b506020820151816001019080519060200190610950929190613871565b50604082015181600201908051906020019061096d9291906138d1565b5050507f37d80bfa4cabc29501fdb25be0eb46ef12f14a245dcd8ac773935e6112406a423386600960008981526020019081526020016000206040516109b593929190614f91565b60405180910390a15050505050565b6060600280546109d390614c4d565b80601f01602080910402602001604051908101604052809291908181526020018280546109ff90614c4d565b8015610a4c5780601f10610a2157610100808354040283529160200191610a4c565b820191906000526020600020905b815481529060010190602001808311610a2f57829003601f168201915b50505050509050919050565b600060036000838152602001908152602001600020600101549050919050565b80600073ffffffffffffffffffffffffffffffffffffffff1660068281548110610aa557610aa4614adc565b5b906000526020600020906002020160000160009054906101000a900473ffffffffffffffffffffffffffffffffffffffff1673ffffffffffffffffffffffffffffffffffffffff161415610b2e576040517f08c379a0000000000000000000000000000000000000000000000000000000008152600401610b259061501b565b60405180910390fd5b60008060068481548110610b4557610b44614adc565b5b906000526020600020906002020160000160009054906101000a900473ffffffffffffffffffffffffffffffffffffffff1673ffffffffffffffffffffffffffffffffffffffff1634604051610b9a9061506c565b60006040518083038185875af1925050503d8060008114610bd7576040519150601f19603f3d011682016040523d82523d6000602084013e610bdc565b606091505b509150915081610c21576040517f08c379a0000000000000000000000000000000000000000000000000000000008152600401610c18906150cd565b60405180910390fd5b600060068581548110610c3757610c36614adc565b5b90600052602060002090600202016001015434610c54919061511c565b9050610ca860068681548110610c6d57610c6c614adc565b5b906000526020600020906002020160000160009054906101000a900473ffffffffffffffffffffffffffffffffffffffff1633878486611e57565b7f3138022358a8810b94b406356f325ea086dad47c99cf2a60890c8a321aca15d960068681548110610cdd57610cdc614adc565b5b906000526020600020906002020160000160009054906101000a900473ffffffffffffffffffffffffffffffffffffffff1633878486604051610d24959493929190615201565b60405180910390a15050505050565b610d3b611d98565b73ffffffffffffffffffffffffffffffffffffffff168573ffffffffffffffffffffffffffffffffffffffff161480610d815750610d8085610d7b611d98565b611b4c565b5b610dc0576040517f08c379a0000000000000000000000000000000000000000000000000000000008152600401610db7906152cd565b60405180910390fd5b610dcd85858585856120d9565b5050505050565b610ddd82610a58565b610dee81610de9611d98565b611da0565b610df883836123ed565b505050565b610e05611d98565b73ffffffffffffffffffffffffffffffffffffffff168173ffffffffffffffffffffffffffffffffffffffff1614610e72576040517f08c379a0000000000000000000000000000000000000000000000000000000008152600401610e699061535f565b60405180910390fd5b610e7c82826124ce565b5050565b60608151835114610ec6576040517f08c379a0000000000000000000000000000000000000000000000000000000008152600401610ebd906153f1565b60405180910390fd5b6000835167ffffffffffffffff811115610ee357610ee2613b87565b5b604051908082528060200260200182016040528015610f115781602001602082028036833780820191505090505b50905060005b8451811015610f8e57610f5e858281518110610f3657610f35614adc565b5b6020026020010151858381518110610f5157610f50614adc565b5b6020026020010151610663565b828281518110610f7157610f70614adc565b5b60200260200101818152505080610f8790614ba6565b9050610f17565b508091505092915050565b600080610fa5836116d0565b119050919050565b6000801b610fc281610fbd611d98565b611da0565b600660405180604001604052808673ffffffffffffffffffffffffffffffffffffffff16815260200184815250908060018154018082558091505060019003906000526020600020906002020160009091909190915060008201518160000160006101000a81548173ffffffffffffffffffffffffffffffffffffffff021916908373ffffffffffffffffffffffffffffffffffffffff1602179055506020820151816001015550506110888460055485604051806020016040528060008152506125b0565b7fe9eb42f8ecbee1afc1aca5b0be2080f3718fe855ba1c1cdc22db679c7d2b170f8460055485856040516110bf9493929190615411565b60405180910390a16001600560008282546110da9190615456565b9250508190555050505050565b6110ef611d98565b73ffffffffffffffffffffffffffffffffffffffff168373ffffffffffffffffffffffffffffffffffffffff16148061113557506111348361112f611d98565b611b4c565b5b611174576040517f08c379a000000000000000000000000000000000000000000000000000000000815260040161116b9061551e565b60405180910390fd5b61117f838383612746565b505050565b7f7804d923f43a17d325d77e781528e0793b2edd9890ab45fc64efd7b4b427744c81565b8282600a6000838152602001908152602001600020600082815260200190815260200160002060003373ffffffffffffffffffffffffffffffffffffffff1673ffffffffffffffffffffffffffffffffffffffff16815260200190815260200160002060009054906101000a900460ff1615611259576040517f08c379a00000000000000000000000000000000000000000000000000000000081526004016112509061558a565b60405180910390fd5b60006112653387610663565b90508060096000888152602001908152602001600020868154811061128d5761128c614adc565b5b906000526020600020906003020160020185815481106112b0576112af614adc565b5b9060005260206000200160008282546112c99190615456565b925050819055506001600a6000888152602001908152602001600020600087815260200190815260200160002060003373ffffffffffffffffffffffffffffffffffffffff1673ffffffffffffffffffffffffffffffffffffffff16815260200190815260200160002060006101000a81548160ff0219169083151502179055507f6c7eb2743ec28489909706ea440d909129004996be657d36c6e9add778546abf3387878460405161137f94939291906155aa565b60405180910390a1505050505050565b60006003600084815260200190815260200160002060000160008373ffffffffffffffffffffffffffffffffffffffff1673ffffffffffffffffffffffffffffffffffffffff16815260200190815260200160002060009054906101000a900460ff16905092915050565b6000801b81565b61141361140c611d98565b83836129f7565b5050565b803373ffffffffffffffffffffffffffffffffffffffff166006828154811061144357611442614adc565b5b906000526020600020906002020160000160009054906101000a900473ffffffffffffffffffffffffffffffffffffffff1673ffffffffffffffffffffffffffffffffffffffff16146114cb576040517f08c379a00000000000000000000000000000000000000000000000000000000081526004016114c290614b57565b60405180910390fd5b60005b6007805490508110156116cb5760006114e6846116d0565b3461152f600785815481106114fe576114fd614adc565b5b9060005260206000200160009054906101000a900473ffffffffffffffffffffffffffffffffffffffff1687610663565b61153991906155ef565b611543919061511c565b90506000806007848154811061155c5761155b614adc565b5b9060005260206000200160009054906101000a900473ffffffffffffffffffffffffffffffffffffffff1673ffffffffffffffffffffffffffffffffffffffff16836040516115aa9061506c565b60006040518083038185875af1925050503d80600081146115e7576040519150601f19603f3d011682016040523d82523d6000602084013e6115ec565b606091505b50915091507f8ebe82e5be42b667883a49114b153e27d7fbf05869a57c0778e7010c18cb77636006878154811061162657611625614adc565b5b906000526020600020906002020160000160009054906101000a900473ffffffffffffffffffffffffffffffffffffffff166007868154811061166c5761166b614adc565b5b9060005260206000200160009054906101000a900473ffffffffffffffffffffffffffffffffffffffff16888585886040516116ad96959493929190615649565b60405180910390a150505080806116c390614ba6565b9150506114ce565b505050565b600060046000838152602001908152602001600020549050919050565b6060806060600060096000868152602001908152602001600020805480602002602001604051908101604052809291908181526020016000905b8282101561191c578382906000526020600020906003020160405180606001604052908160008201805461175a90614c4d565b80601f016020809104026020016040519081016040528092919081815260200182805461178690614c4d565b80156117d35780601f106117a8576101008083540402835291602001916117d3565b820191906000526020600020905b8154815290600101906020018083116117b657829003601f168201915b5050505050815260200160018201805480602002602001604051908101604052809291908181526020016000905b828210156118ad57838290600052602060002001805461182090614c4d565b80601f016020809104026020016040519081016040528092919081815260200182805461184c90614c4d565b80156118995780601f1061186e57610100808354040283529160200191611899565b820191906000526020600020905b81548152906001019060200180831161187c57829003601f168201915b505050505081526020019060010190611801565b5050505081526020016002820180548060200260200160405190810160405280929190818152602001828054801561190457602002820191906000526020600020905b8154815260200190600101908083116118f0575b50505050508152505081526020019060010190611727565b5050505090506000815167ffffffffffffffff81111561193f5761193e613b87565b5b60405190808252806020026020018201604052801561196d5781602001602082028036833780820191505090505b5090506000825167ffffffffffffffff81111561198d5761198c613b87565b5b6040519080825280602002602001820160405280156119bb5781602001602082028036833780820191505090505b50905060005b8351811015611b0f576000600960008a815260200190815260200160002082815481106119f1576119f0614adc565b5b9060005260206000209060030201600201805480602002602001604051908101604052809291908181526020018280548015611a4c57602002820191906000526020600020905b815481526020019060010190808311611a38575b5050505050905060008060005b8351811015611ab85782848281518110611a7657611a75614adc565b5b60200260200101511115611aa557838181518110611a9757611a96614adc565b5b602002602001015192508091505b8080611ab090614ba6565b915050611a59565b5080868581518110611acd57611acc614adc565b5b60200260200101818152505081858581518110611aed57611aec614adc565b5b6020026020010181815250505050508080611b0790614ba6565b9150506119c1565b508282829550955095505050509193909250565b611b2c82610a58565b611b3d81611b38611d98565b611da0565b611b4783836124ce565b505050565b6000600160008473ffffffffffffffffffffffffffffffffffffffff1673ffffffffffffffffffffffffffffffffffffffff16815260200190815260200160002060008373ffffffffffffffffffffffffffffffffffffffff1673ffffffffffffffffffffffffffffffffffffffff16815260200190815260200160002060009054906101000a900460ff16905092915050565b611be8611d98565b73ffffffffffffffffffffffffffffffffffffffff168573ffffffffffffffffffffffffffffffffffffffff161480611c2e5750611c2d85611c28611d98565b611b4c565b5b611c6d576040517f08c379a0000000000000000000000000000000000000000000000000000000008152600401611c649061551e565b60405180910390fd5b611c7a8585858585611e57565b5050505050565b611c89611d98565b73ffffffffffffffffffffffffffffffffffffffff168373ffffffffffffffffffffffffffffffffffffffff161480611ccf5750611cce83611cc9611d98565b611b4c565b5b611d0e576040517f08c379a0000000000000000000000000000000000000000000000000000000008152600401611d059061551e565b60405180910390fd5b611d19838383612b64565b505050565b60007f7965db0b000000000000000000000000000000000000000000000000000000007bffffffffffffffffffffffffffffffffffffffffffffffffffffffff1916827bffffffffffffffffffffffffffffffffffffffffffffffffffffffff19161480611d915750611d9082612d81565b5b9050919050565b600033905090565b611daa828261138f565b611e3957611dcf8173ffffffffffffffffffffffffffffffffffffffff166014612e63565b611ddd8360001c6020612e63565b604051602001611dee929190615785565b6040516020818303038152906040526040517f08c379a0000000000000000000000000000000000000000000000000000000008152600401611e309190613f21565b60405180910390fd5b5050565b8060029080519060200190611e539291906137eb565b5050565b600073ffffffffffffffffffffffffffffffffffffffff168473ffffffffffffffffffffffffffffffffffffffff161415611ec7576040517f08c379a0000000000000000000000000000000000000000000000000000000008152600401611ebe90615831565b60405180910390fd5b6000611ed1611d98565b9050611ef1818787611ee28861309f565b611eeb8861309f565b87613119565b600080600086815260200190815260200160002060008873ffffffffffffffffffffffffffffffffffffffff1673ffffffffffffffffffffffffffffffffffffffff16815260200190815260200160002054905083811015611f88576040517f08c379a0000000000000000000000000000000000000000000000000000000008152600401611f7f906158c3565b60405180910390fd5b83810360008087815260200190815260200160002060008973ffffffffffffffffffffffffffffffffffffffff1673ffffffffffffffffffffffffffffffffffffffff168152602001908152602001600020819055508360008087815260200190815260200160002060008873ffffffffffffffffffffffffffffffffffffffff1673ffffffffffffffffffffffffffffffffffffffff168152602001908152602001600020600082825461203d9190615456565b925050819055508573ffffffffffffffffffffffffffffffffffffffff168773ffffffffffffffffffffffffffffffffffffffff168373ffffffffffffffffffffffffffffffffffffffff167fc3d58168c5ae7397731d063d5bbf3d657854427343f4c083240f7aacaa2d0f6288886040516120ba9291906158e3565b60405180910390a46120d082888888888861323c565b50505050505050565b815183511461211d576040517f08c379a00000000000000000000000000000000000000000000000000000000081526004016121149061597e565b60405180910390fd5b600073ffffffffffffffffffffffffffffffffffffffff168473ffffffffffffffffffffffffffffffffffffffff16141561218d576040517f08c379a000000000000000000000000000000000000000000000000000000000815260040161218490615831565b60405180910390fd5b6000612197611d98565b90506121a7818787878787613119565b60005b84518110156123585760008582815181106121c8576121c7614adc565b5b6020026020010151905060008583815181106121e7576121e6614adc565b5b60200260200101519050600080600084815260200190815260200160002060008b73ffffffffffffffffffffffffffffffffffffffff1673ffffffffffffffffffffffffffffffffffffffff16815260200190815260200160002054905081811015612288576040517f08c379a000000000000000000000000000000000000000000000000000000000815260040161227f906158c3565b60405180910390fd5b81810360008085815260200190815260200160002060008c73ffffffffffffffffffffffffffffffffffffffff1673ffffffffffffffffffffffffffffffffffffffff168152602001908152602001600020819055508160008085815260200190815260200160002060008b73ffffffffffffffffffffffffffffffffffffffff1673ffffffffffffffffffffffffffffffffffffffff168152602001908152602001600020600082825461233d9190615456565b925050819055505050508061235190614ba6565b90506121aa565b508473ffffffffffffffffffffffffffffffffffffffff168673ffffffffffffffffffffffffffffffffffffffff168273ffffffffffffffffffffffffffffffffffffffff167f4a39dc06d4c0dbc64b70af90fd698a233a518aa5d07e595d983b8c0526c8f7fb87876040516123cf92919061599e565b60405180910390a46123e5818787878787613414565b505050505050565b6123f7828261138f565b6124ca5760016003600084815260200190815260200160002060000160008373ffffffffffffffffffffffffffffffffffffffff1673ffffffffffffffffffffffffffffffffffffffff16815260200190815260200160002060006101000a81548160ff02191690831515021790555061246f611d98565b73ffffffffffffffffffffffffffffffffffffffff168173ffffffffffffffffffffffffffffffffffffffff16837f2f8788117e7eff1d82e926ec794901d17c78024a50270940304540a733656f0d60405160405180910390a45b5050565b6124d8828261138f565b156125ac5760006003600084815260200190815260200160002060000160008373ffffffffffffffffffffffffffffffffffffffff1673ffffffffffffffffffffffffffffffffffffffff16815260200190815260200160002060006101000a81548160ff021916908315150217905550612551611d98565b73ffffffffffffffffffffffffffffffffffffffff168173ffffffffffffffffffffffffffffffffffffffff16837ff6391f5c32d9c69d2a47ea670b442974b53935d1edc7fd64eb21e047a839171b60405160405180910390a45b5050565b600073ffffffffffffffffffffffffffffffffffffffff168473ffffffffffffffffffffffffffffffffffffffff161415612620576040517f08c379a000000000000000000000000000000000000000000000000000000000815260040161261790615a47565b60405180910390fd5b600061262a611d98565b905061264b8160008761263c8861309f565b6126458861309f565b87613119565b8260008086815260200190815260200160002060008773ffffffffffffffffffffffffffffffffffffffff1673ffffffffffffffffffffffffffffffffffffffff16815260200190815260200160002060008282546126aa9190615456565b925050819055508473ffffffffffffffffffffffffffffffffffffffff16600073ffffffffffffffffffffffffffffffffffffffff168273ffffffffffffffffffffffffffffffffffffffff167fc3d58168c5ae7397731d063d5bbf3d657854427343f4c083240f7aacaa2d0f6287876040516127289291906158e3565b60405180910390a461273f8160008787878761323c565b5050505050565b600073ffffffffffffffffffffffffffffffffffffffff168373ffffffffffffffffffffffffffffffffffffffff1614156127b6576040517f08c379a00000000000000000000000000000000000000000000000000000000081526004016127ad90615ad9565b60405180910390fd5b80518251146127fa576040517f08c379a00000000000000000000000000000000000000000000000000000000081526004016127f19061597e565b60405180910390fd5b6000612804611d98565b905061282481856000868660405180602001604052806000815250613119565b60005b835181101561297157600084828151811061284557612844614adc565b5b60200260200101519050600084838151811061286457612863614adc565b5b60200260200101519050600080600084815260200190815260200160002060008973ffffffffffffffffffffffffffffffffffffffff1673ffffffffffffffffffffffffffffffffffffffff16815260200190815260200160002054905081811015612905576040517f08c379a00000000000000000000000000000000000000000000000000000000081526004016128fc90615b6b565b60405180910390fd5b81810360008085815260200190815260200160002060008a73ffffffffffffffffffffffffffffffffffffffff1673ffffffffffffffffffffffffffffffffffffffff16815260200190815260200160002081905550505050808061296990614ba6565b915050612827565b50600073ffffffffffffffffffffffffffffffffffffffff168473ffffffffffffffffffffffffffffffffffffffff168273ffffffffffffffffffffffffffffffffffffffff167f4a39dc06d4c0dbc64b70af90fd698a233a518aa5d07e595d983b8c0526c8f7fb86866040516129e992919061599e565b60405180910390a450505050565b8173ffffffffffffffffffffffffffffffffffffffff168373ffffffffffffffffffffffffffffffffffffffff161415612a66576040517f08c379a0000000000000000000000000000000000000000000000000000000008152600401612a5d90615bfd565b60405180910390fd5b80600160008573ffffffffffffffffffffffffffffffffffffffff1673ffffffffffffffffffffffffffffffffffffffff16815260200190815260200160002060008473ffffffffffffffffffffffffffffffffffffffff1673ffffffffffffffffffffffffffffffffffffffff16815260200190815260200160002060006101000a81548160ff0219169083151502179055508173ffffffffffffffffffffffffffffffffffffffff168373ffffffffffffffffffffffffffffffffffffffff167f17307eab39ab6107e8899845ad3d59bd9653f200f220920489ca2b5937696c3183604051612b579190613b51565b60405180910390a3505050565b600073ffffffffffffffffffffffffffffffffffffffff168373ffffffffffffffffffffffffffffffffffffffff161415612bd4576040517f08c379a0000000000000000000000000000000000000000000000000000000008152600401612bcb90615ad9565b60405180910390fd5b6000612bde611d98565b9050612c0e81856000612bf08761309f565b612bf98761309f565b60405180602001604052806000815250613119565b600080600085815260200190815260200160002060008673ffffffffffffffffffffffffffffffffffffffff1673ffffffffffffffffffffffffffffffffffffffff16815260200190815260200160002054905082811015612ca5576040517f08c379a0000000000000000000000000000000000000000000000000000000008152600401612c9c90615b6b565b60405180910390fd5b82810360008086815260200190815260200160002060008773ffffffffffffffffffffffffffffffffffffffff1673ffffffffffffffffffffffffffffffffffffffff16815260200190815260200160002081905550600073ffffffffffffffffffffffffffffffffffffffff168573ffffffffffffffffffffffffffffffffffffffff168373ffffffffffffffffffffffffffffffffffffffff167fc3d58168c5ae7397731d063d5bbf3d657854427343f4c083240f7aacaa2d0f628787604051612d729291906158e3565b60405180910390a45050505050565b60007fd9b67a26000000000000000000000000000000000000000000000000000000007bffffffffffffffffffffffffffffffffffffffffffffffffffffffff1916827bffffffffffffffffffffffffffffffffffffffffffffffffffffffff19161480612e4c57507f0e89341c000000000000000000000000000000000000000000000000000000007bffffffffffffffffffffffffffffffffffffffffffffffffffffffff1916827bffffffffffffffffffffffffffffffffffffffffffffffffffffffff1916145b80612e5c5750612e5b826135ec565b5b9050919050565b606060006002836002612e7691906155ef565b612e809190615456565b67ffffffffffffffff811115612e9957612e98613b87565b5b6040519080825280601f01601f191660200182016040528015612ecb5781602001600182028036833780820191505090505b5090507f300000000000000000000000000000000000000000000000000000000000000081600081518110612f0357612f02614adc565b5b60200101907effffffffffffffffffffffffffffffffffffffffffffffffffffffffffffff1916908160001a9053507f780000000000000000000000000000000000000000000000000000000000000081600181518110612f6757612f66614adc565b5b60200101907effffffffffffffffffffffffffffffffffffffffffffffffffffffffffffff1916908160001a90535060006001846002612fa791906155ef565b612fb19190615456565b90505b6001811115613051577f3031323334353637383961626364656600000000000000000000000000000000600f861660108110612ff357612ff2614adc565b5b1a60f81b82828151811061300a57613009614adc565b5b60200101907effffffffffffffffffffffffffffffffffffffffffffffffffffffffffffff1916908160001a905350600485901c94508061304a90615c1d565b9050612fb4565b5060008414613095576040517f08c379a000000000000000000000000000000000000000000000000000000000815260040161308c90615c93565b60405180910390fd5b8091505092915050565b60606000600167ffffffffffffffff8111156130be576130bd613b87565b5b6040519080825280602002602001820160405280156130ec5781602001602082028036833780820191505090505b509050828160008151811061310457613103614adc565b5b60200260200101818152505080915050919050565b600860008573ffffffffffffffffffffffffffffffffffffffff1673ffffffffffffffffffffffffffffffffffffffff16815260200190815260200160002060009054906101000a900460ff16613226576007849080600181540180825580915050600190039060005260206000200160009091909190916101000a81548173ffffffffffffffffffffffffffffffffffffffff021916908373ffffffffffffffffffffffffffffffffffffffff1602179055506001600860008673ffffffffffffffffffffffffffffffffffffffff1673ffffffffffffffffffffffffffffffffffffffff16815260200190815260200160002060006101000a81548160ff0219169083151502179055505b613234868686868686613656565b505050505050565b61325b8473ffffffffffffffffffffffffffffffffffffffff166137d0565b1561340c578373ffffffffffffffffffffffffffffffffffffffff1663f23a6e6187878686866040518663ffffffff1660e01b81526004016132a1959493929190615cb3565b6020604051808303816000875af19250505080156132dd57506040513d601f19601f820116820180604052508101906132da9190615d22565b60015b613383576132e9615d5c565b806308c379a0141561334657506132fe615d7e565b806133095750613348565b806040517f08c379a000000000000000000000000000000000000000000000000000000000815260040161333d9190613f21565b60405180910390fd5b505b6040517f08c379a000000000000000000000000000000000000000000000000000000000815260040161337a90615e86565b60405180910390fd5b63f23a6e6160e01b7bffffffffffffffffffffffffffffffffffffffffffffffffffffffff1916817bffffffffffffffffffffffffffffffffffffffffffffffffffffffff19161461340a576040517f08c379a000000000000000000000000000000000000000000000000000000000815260040161340190615f18565b60405180910390fd5b505b505050505050565b6134338473ffffffffffffffffffffffffffffffffffffffff166137d0565b156135e4578373ffffffffffffffffffffffffffffffffffffffff1663bc197c8187878686866040518663ffffffff1660e01b8152600401613479959493929190615f38565b6020604051808303816000875af19250505080156134b557506040513d601f19601f820116820180604052508101906134b29190615d22565b60015b61355b576134c1615d5c565b806308c379a0141561351e57506134d6615d7e565b806134e15750613520565b806040517f08c379a00000000000000000000000000000000000000000000000000000000081526004016135159190613f21565b60405180910390fd5b505b6040517f08c379a000000000000000000000000000000000000000000000000000000000815260040161355290615e86565b60405180910390fd5b63bc197c8160e01b7bffffffffffffffffffffffffffffffffffffffffffffffffffffffff1916817bffffffffffffffffffffffffffffffffffffffffffffffffffffffff1916146135e2576040517f08c379a00000000000000000000000000000000000000000000000000000000081526004016135d990615f18565b60405180910390fd5b505b505050505050565b60007f01ffc9a7000000000000000000000000000000000000000000000000000000007bffffffffffffffffffffffffffffffffffffffffffffffffffffffff1916827bffffffffffffffffffffffffffffffffffffffffffffffffffffffff1916149050919050565b6136648686868686866137e3565b600073ffffffffffffffffffffffffffffffffffffffff168573ffffffffffffffffffffffffffffffffffffffff1614156137165760005b8351811015613714578281815181106136b8576136b7614adc565b5b6020026020010151600460008684815181106136d7576136d6614adc565b5b6020026020010151815260200190815260200160002060008282546136fc9190615456565b925050819055508061370d90614ba6565b905061369c565b505b600073ffffffffffffffffffffffffffffffffffffffff168473ffffffffffffffffffffffffffffffffffffffff1614156137c85760005b83518110156137c65782818151811061376a57613769614adc565b5b60200260200101516004600086848151811061378957613788614adc565b5b6020026020010151815260200190815260200160002060008282546137ae9190615fa0565b92505081905550806137bf90614ba6565b905061374e565b505b505050505050565b600080823b905060008111915050919050565b505050505050565b8280546137f790614c4d565b90600052602060002090601f0160209004810192826138195760008555613860565b82601f1061383257805160ff1916838001178555613860565b82800160010185558215613860579182015b8281111561385f578251825591602001919060010190613844565b5b50905061386d919061391e565b5090565b8280548282559060005260206000209081019282156138c0579160200282015b828111156138bf5782518290805190602001906138af9291906137eb565b5091602001919060010190613891565b5b5090506138cd919061393b565b5090565b82805482825590600052602060002090810192821561390d579160200282015b8281111561390c5782518255916020019190600101906138f1565b5b50905061391a919061391e565b5090565b5b8082111561393757600081600090555060010161391f565b5090565b5b8082111561395b5760008181613952919061395f565b5060010161393c565b5090565b50805461396b90614c4d565b6000825580601f1061397d575061399c565b601f01602090049060005260206000209081019061399b919061391e565b5b50565b6000604051905090565b600080fd5b600080fd5b600073ffffffffffffffffffffffffffffffffffffffff82169050919050565b60006139de826139b3565b9050919050565b6139ee816139d3565b81146139f957600080fd5b50565b600081359050613a0b816139e5565b92915050565b6000819050919050565b613a2481613a11565b8114613a2f57600080fd5b50565b600081359050613a4181613a1b565b92915050565b60008060408385031215613a5e57613a5d6139a9565b5b6000613a6c858286016139fc565b9250506020613a7d85828601613a32565b9150509250929050565b613a9081613a11565b82525050565b6000602082019050613aab6000830184613a87565b92915050565b60007fffffffff0000000000000000000000000000000000000000000000000000000082169050919050565b613ae681613ab1565b8114613af157600080fd5b50565b600081359050613b0381613add565b92915050565b600060208284031215613b1f57613b1e6139a9565b5b6000613b2d84828501613af4565b91505092915050565b60008115159050919050565b613b4b81613b36565b82525050565b6000602082019050613b666000830184613b42565b92915050565b600080fd5b600080fd5b6000601f19601f8301169050919050565b7f4e487b7100000000000000000000000000000000000000000000000000000000600052604160045260246000fd5b613bbf82613b76565b810181811067ffffffffffffffff82111715613bde57613bdd613b87565b5b80604052505050565b6000613bf161399f565b9050613bfd8282613bb6565b919050565b600067ffffffffffffffff821115613c1d57613c1c613b87565b5b613c2682613b76565b9050602081019050919050565b82818337600083830152505050565b6000613c55613c5084613c02565b613be7565b905082815260208101848484011115613c7157613c70613b71565b5b613c7c848285613c33565b509392505050565b600082601f830112613c9957613c98613b6c565b5b8135613ca9848260208601613c42565b91505092915050565b600060208284031215613cc857613cc76139a9565b5b600082013567ffffffffffffffff811115613ce657613ce56139ae565b5b613cf284828501613c84565b91505092915050565b600067ffffffffffffffff821115613d1657613d15613b87565b5b602082029050602081019050919050565b600080fd5b6000613d3f613d3a84613cfb565b613be7565b90508083825260208201905060208402830185811115613d6257613d61613d27565b5b835b81811015613da957803567ffffffffffffffff811115613d8757613d86613b6c565b5b808601613d948982613c84565b85526020850194505050602081019050613d64565b5050509392505050565b600082601f830112613dc857613dc7613b6c565b5b8135613dd8848260208601613d2c565b91505092915050565b600080600060608486031215613dfa57613df96139a9565b5b6000613e0886828701613a32565b935050602084013567ffffffffffffffff811115613e2957613e286139ae565b5b613e3586828701613c84565b925050604084013567ffffffffffffffff811115613e5657613e556139ae565b5b613e6286828701613db3565b9150509250925092565b600060208284031215613e8257613e816139a9565b5b6000613e9084828501613a32565b91505092915050565b600081519050919050565b600082825260208201905092915050565b60005b83811015613ed3578082015181840152602081019050613eb8565b83811115613ee2576000848401525b50505050565b6000613ef382613e99565b613efd8185613ea4565b9350613f0d818560208601613eb5565b613f1681613b76565b840191505092915050565b60006020820190508181036000830152613f3b8184613ee8565b905092915050565b6000819050919050565b613f5681613f43565b8114613f6157600080fd5b50565b600081359050613f7381613f4d565b92915050565b600060208284031215613f8f57613f8e6139a9565b5b6000613f9d84828501613f64565b91505092915050565b613faf81613f43565b82525050565b6000602082019050613fca6000830184613fa6565b92915050565b600067ffffffffffffffff821115613feb57613fea613b87565b5b602082029050602081019050919050565b600061400f61400a84613fd0565b613be7565b9050808382526020820190506020840283018581111561403257614031613d27565b5b835b8181101561405b57806140478882613a32565b845260208401935050602081019050614034565b5050509392505050565b600082601f83011261407a57614079613b6c565b5b813561408a848260208601613ffc565b91505092915050565b600067ffffffffffffffff8211156140ae576140ad613b87565b5b6140b782613b76565b9050602081019050919050565b60006140d76140d284614093565b613be7565b9050828152602081018484840111156140f3576140f2613b71565b5b6140fe848285613c33565b509392505050565b600082601f83011261411b5761411a613b6c565b5b813561412b8482602086016140c4565b91505092915050565b600080600080600060a086880312156141505761414f6139a9565b5b600061415e888289016139fc565b955050602061416f888289016139fc565b945050604086013567ffffffffffffffff8111156141905761418f6139ae565b5b61419c88828901614065565b935050606086013567ffffffffffffffff8111156141bd576141bc6139ae565b5b6141c988828901614065565b925050608086013567ffffffffffffffff8111156141ea576141e96139ae565b5b6141f688828901614106565b9150509295509295909350565b6000806040838503121561421a576142196139a9565b5b600061422885828601613f64565b9250506020614239858286016139fc565b9150509250929050565b600067ffffffffffffffff82111561425e5761425d613b87565b5b602082029050602081019050919050565b600061428261427d84614243565b613be7565b905080838252602082019050602084028301858111156142a5576142a4613d27565b5b835b818110156142ce57806142ba88826139fc565b8452602084019350506020810190506142a7565b5050509392505050565b600082601f8301126142ed576142ec613b6c565b5b81356142fd84826020860161426f565b91505092915050565b6000806040838503121561431d5761431c6139a9565b5b600083013567ffffffffffffffff81111561433b5761433a6139ae565b5b614347858286016142d8565b925050602083013567ffffffffffffffff811115614368576143676139ae565b5b61437485828601614065565b9150509250929050565b600081519050919050565b600082825260208201905092915050565b6000819050602082019050919050565b6143b381613a11565b82525050565b60006143c583836143aa565b60208301905092915050565b6000602082019050919050565b60006143e98261437e565b6143f38185614389565b93506143fe8361439a565b8060005b8381101561442f57815161441688826143b9565b9750614421836143d1565b925050600181019050614402565b5085935050505092915050565b6000602082019050818103600083015261445681846143de565b905092915050565b6000614469826139b3565b9050919050565b6144798161445e565b811461448457600080fd5b50565b60008135905061449681614470565b92915050565b6000806000606084860312156144b5576144b46139a9565b5b60006144c386828701614487565b93505060206144d486828701613a32565b92505060406144e586828701613a32565b9150509250925092565b600080600060608486031215614508576145076139a9565b5b6000614516868287016139fc565b935050602084013567ffffffffffffffff811115614537576145366139ae565b5b61454386828701614065565b925050604084013567ffffffffffffffff811115614564576145636139ae565b5b61457086828701614065565b9150509250925092565b600080600060608486031215614593576145926139a9565b5b60006145a186828701613a32565b93505060206145b286828701613a32565b92505060406145c386828701613a32565b9150509250925092565b6145d681613b36565b81146145e157600080fd5b50565b6000813590506145f3816145cd565b92915050565b600080604083850312156146105761460f6139a9565b5b600061461e858286016139fc565b925050602061462f858286016145e4565b9150509250929050565b600081519050919050565b600082825260208201905092915050565b6000819050602082019050919050565b600082825260208201905092915050565b600061468182613e99565b61468b8185614665565b935061469b818560208601613eb5565b6146a481613b76565b840191505092915050565b600081519050919050565b600082825260208201905092915050565b6000819050602082019050919050565b60006146e78383614676565b905092915050565b6000602082019050919050565b6000614707826146af565b61471181856146ba565b935083602082028501614723856146cb565b8060005b8581101561475f578484038952815161474085826146db565b945061474b836146ef565b925060208a01995050600181019050614727565b50829750879550505050505092915050565b600082825260208201905092915050565b600061478d8261437e565b6147978185614771565b93506147a28361439a565b8060005b838110156147d35781516147ba88826143b9565b97506147c5836143d1565b9250506001810190506147a6565b5085935050505092915050565b600060608301600083015184820360008601526147fd8282614676565b9150506020830151848203602086015261481782826146fc565b915050604083015184820360408601526148318282614782565b9150508091505092915050565b600061484a83836147e0565b905092915050565b6000602082019050919050565b600061486a82614639565b6148748185614644565b93508360208202850161488685614655565b8060005b858110156148c257848403895281516148a3858261483e565b94506148ae83614852565b925060208a0199505060018101905061488a565b50829750879550505050505092915050565b600060608201905081810360008301526148ee818661485f565b9050818103602083015261490281856143de565b9050818103604083015261491681846143de565b9050949350505050565b60008060408385031215614937576149366139a9565b5b6000614945858286016139fc565b9250506020614956858286016139fc565b9150509250929050565b600080600080600060a0868803121561497c5761497b6139a9565b5b600061498a888289016139fc565b955050602061499b888289016139fc565b94505060406149ac88828901613a32565b93505060606149bd88828901613a32565b925050608086013567ffffffffffffffff8111156149de576149dd6139ae565b5b6149ea88828901614106565b9150509295509295909350565b600080600060608486031215614a1057614a0f6139a9565b5b6000614a1e868287016139fc565b9350506020614a2f86828701613a32565b9250506040614a4086828701613a32565b9150509250925092565b7f455243313135353a2062616c616e636520717565727920666f7220746865207a60008201527f65726f2061646472657373000000000000000000000000000000000000000000602082015250565b6000614aa6602b83613ea4565b9150614ab182614a4a565b604082019050919050565b60006020820190508181036000830152614ad581614a99565b9050919050565b7f4e487b7100000000000000000000000000000000000000000000000000000000600052603260045260246000fd5b7f4e6f7420546f6b656e2041646d696e0000000000000000000000000000000000600082015250565b6000614b41600f83613ea4565b9150614b4c82614b0b565b602082019050919050565b60006020820190508181036000830152614b7081614b34565b9050919050565b7f4e487b7100000000000000000000000000000000000000000000000000000000600052601160045260246000fd5b6000614bb182613a11565b91507fffffffffffffffffffffffffffffffffffffffffffffffffffffffffffffffff821415614be457614be3614b77565b5b600182019050919050565b614bf8816139d3565b82525050565b600081549050919050565b60008190508160005260206000209050919050565b7f4e487b7100000000000000000000000000000000000000000000000000000000600052602260045260246000fd5b60006002820490506001821680614c6557607f821691505b60208210811415614c7957614c78614c1e565b5b50919050565b60008190508160005260206000209050919050565b60008154614ca181614c4d565b614cab8186614665565b94506001821660008114614cc65760018114614cd857614d0b565b60ff1983168652602086019350614d0b565b614ce185614c7f565b60005b83811015614d0357815481890152600182019150602081019050614ce4565b808801955050505b50505092915050565b600081549050919050565b60008190508160005260206000209050919050565b6000614d408383614c94565b905092915050565b6000600182019050919050565b6000614d6082614d14565b614d6a81856146ba565b935083602082028501614d7c85614d1f565b8060005b85811015614db757848403895281614d988582614d34565b9450614da383614d48565b925060208a01995050600181019050614d80565b50829750879550505050505092915050565b600081549050919050565b60008190508160005260206000209050919050565b60008160001c9050919050565b6000819050919050565b6000614e13614e0e83614de9565b614df6565b9050919050565b6000614e268254614e00565b9050919050565b6000600182019050919050565b6000614e4582614dc9565b614e4f8185614771565b9350614e5a83614dd4565b8060005b83811015614e9257614e6f82614e1a565b614e7988826143b9565b9750614e8483614e2d565b925050600181019050614e5e565b5085935050505092915050565b60006060830160008084018583036000870152614ebc8382614c94565b925050600184018583036020870152614ed58382614d55565b925050600284018583036040870152614eee8382614e3a565b925050819250505092915050565b6000614f088383614e9f565b905092915050565b6000600382019050919050565b6000614f2882614bfe565b614f328185614644565b935083602082028501614f4485614c09565b8060005b85811015614f7f57848403895281614f608582614efc565b9450614f6b83614f10565b925060208a01995050600181019050614f48565b50829750879550505050505092915050565b6000606082019050614fa66000830186614bef565b614fb36020830185613a87565b8181036040830152614fc58184614f1d565b9050949350505050565b7f546f6b656e20446f6573204e6f74204578697374000000000000000000000000600082015250565b6000615005601483613ea4565b915061501082614fcf565b602082019050919050565b6000602082019050818103600083015261503481614ff8565b9050919050565b600081905092915050565b50565b600061505660008361503b565b915061506182615046565b600082019050919050565b600061507782615049565b9150819050919050565b7f5472616e73616374696f6e206661696c65642100000000000000000000000000600082015250565b60006150b7601383613ea4565b91506150c282615081565b602082019050919050565b600060208201905081810360008301526150e6816150aa565b9050919050565b7f4e487b7100000000000000000000000000000000000000000000000000000000600052601260045260246000fd5b600061512782613a11565b915061513283613a11565b925082615142576151416150ed565b5b828204905092915050565b6000819050919050565b600061517261516d615168846139b3565b61514d565b6139b3565b9050919050565b600061518482615157565b9050919050565b600061519682615179565b9050919050565b6151a68161518b565b82525050565b600081519050919050565b600082825260208201905092915050565b60006151d3826151ac565b6151dd81856151b7565b93506151ed818560208601613eb5565b6151f681613b76565b840191505092915050565b600060a082019050615216600083018861519d565b6152236020830187614bef565b6152306040830186613a87565b61523d6060830185613a87565b818103608083015261524f81846151c8565b90509695505050505050565b7f455243313135353a207472616e736665722063616c6c6572206973206e6f742060008201527f6f776e6572206e6f7220617070726f7665640000000000000000000000000000602082015250565b60006152b7603283613ea4565b91506152c28261525b565b604082019050919050565b600060208201905081810360008301526152e6816152aa565b9050919050565b7f416363657373436f6e74726f6c3a2063616e206f6e6c792072656e6f756e636560008201527f20726f6c657320666f722073656c660000000000000000000000000000000000602082015250565b6000615349602f83613ea4565b9150615354826152ed565b604082019050919050565b600060208201905081810360008301526153788161533c565b9050919050565b7f455243313135353a206163636f756e747320616e6420696473206c656e67746860008201527f206d69736d617463680000000000000000000000000000000000000000000000602082015250565b60006153db602983613ea4565b91506153e68261537f565b604082019050919050565b6000602082019050818103600083015261540a816153ce565b9050919050565b6000608082019050615426600083018761519d565b6154336020830186613a87565b6154406040830185613a87565b61544d6060830184613a87565b95945050505050565b600061546182613a11565b915061546c83613a11565b9250827fffffffffffffffffffffffffffffffffffffffffffffffffffffffffffffffff038211156154a1576154a0614b77565b5b828201905092915050565b7f455243313135353a2063616c6c6572206973206e6f74206f776e6572206e6f7260008201527f20617070726f7665640000000000000000000000000000000000000000000000602082015250565b6000615508602983613ea4565b9150615513826154ac565b604082019050919050565b60006020820190508181036000830152615537816154fb565b9050919050565b7f416c726561647920766f74656400000000000000000000000000000000000000600082015250565b6000615574600d83613ea4565b915061557f8261553e565b602082019050919050565b600060208201905081810360008301526155a381615567565b9050919050565b60006080820190506155bf6000830187614bef565b6155cc6020830186613a87565b6155d96040830185613a87565b6155e66060830184613a87565b95945050505050565b60006155fa82613a11565b915061560583613a11565b9250817fffffffffffffffffffffffffffffffffffffffffffffffffffffffffffffffff048311821515161561563e5761563d614b77565b5b828202905092915050565b600060c08201905061565e600083018961519d565b61566b6020830188614bef565b6156786040830187613a87565b6156856060830186613b42565b818103608083015261569781856151c8565b90506156a660a0830184613a87565b979650505050505050565b600081905092915050565b7f416363657373436f6e74726f6c3a206163636f756e7420000000000000000000600082015250565b60006156f26017836156b1565b91506156fd826156bc565b601782019050919050565b600061571382613e99565b61571d81856156b1565b935061572d818560208601613eb5565b80840191505092915050565b7f206973206d697373696e6720726f6c6520000000000000000000000000000000600082015250565b600061576f6011836156b1565b915061577a82615739565b601182019050919050565b6000615790826156e5565b915061579c8285615708565b91506157a782615762565b91506157b38284615708565b91508190509392505050565b7f455243313135353a207472616e7366657220746f20746865207a65726f20616460008201527f6472657373000000000000000000000000000000000000000000000000000000602082015250565b600061581b602583613ea4565b9150615826826157bf565b604082019050919050565b6000602082019050818103600083015261584a8161580e565b9050919050565b7f455243313135353a20696e73756666696369656e742062616c616e636520666f60008201527f72207472616e7366657200000000000000000000000000000000000000000000602082015250565b60006158ad602a83613ea4565b91506158b882615851565b604082019050919050565b600060208201905081810360008301526158dc816158a0565b9050919050565b60006040820190506158f86000830185613a87565b6159056020830184613a87565b9392505050565b7f455243313135353a2069647320616e6420616d6f756e7473206c656e6774682060008201527f6d69736d61746368000000000000000000000000000000000000000000000000602082015250565b6000615968602883613ea4565b91506159738261590c565b604082019050919050565b600060208201905081810360008301526159978161595b565b9050919050565b600060408201905081810360008301526159b881856143de565b905081810360208301526159cc81846143de565b90509392505050565b7f455243313135353a206d696e7420746f20746865207a65726f2061646472657360008201527f7300000000000000000000000000000000000000000000000000000000000000602082015250565b6000615a31602183613ea4565b9150615a3c826159d5565b604082019050919050565b60006020820190508181036000830152615a6081615a24565b9050919050565b7f455243313135353a206275726e2066726f6d20746865207a65726f206164647260008201527f6573730000000000000000000000000000000000000000000000000000000000602082015250565b6000615ac3602383613ea4565b9150615ace82615a67565b604082019050919050565b60006020820190508181036000830152615af281615ab6565b9050919050565b7f455243313135353a206275726e20616d6f756e7420657863656564732062616c60008201527f616e636500000000000000000000000000000000000000000000000000000000602082015250565b6000615b55602483613ea4565b9150615b6082615af9565b604082019050919050565b60006020820190508181036000830152615b8481615b48565b9050919050565b7f455243313135353a2073657474696e6720617070726f76616c2073746174757360008201527f20666f722073656c660000000000000000000000000000000000000000000000602082015250565b6000615be7602983613ea4565b9150615bf282615b8b565b604082019050919050565b60006020820190508181036000830152615c1681615bda565b9050919050565b6000615c2882613a11565b91506000821415615c3c57615c3b614b77565b5b600182039050919050565b7f537472696e67733a20686578206c656e67746820696e73756666696369656e74600082015250565b6000615c7d602083613ea4565b9150615c8882615c47565b602082019050919050565b60006020820190508181036000830152615cac81615c70565b9050919050565b600060a082019050615cc86000830188614bef565b615cd56020830187614bef565b615ce26040830186613a87565b615cef6060830185613a87565b8181036080830152615d0181846151c8565b90509695505050505050565b600081519050615d1c81613add565b92915050565b600060208284031215615d3857615d376139a9565b5b6000615d4684828501615d0d565b91505092915050565b60008160e01c9050919050565b600060033d1115615d7b5760046000803e615d78600051615d4f565b90505b90565b600060443d1015615d8e57615e11565b615d9661399f565b60043d036004823e80513d602482011167ffffffffffffffff82111715615dbe575050615e11565b808201805167ffffffffffffffff811115615ddc5750505050615e11565b80602083010160043d038501811115615df9575050505050615e11565b615e0882602001850186613bb6565b82955050505050505b90565b7f455243313135353a207472616e7366657220746f206e6f6e204552433131353560008201527f526563656976657220696d706c656d656e746572000000000000000000000000602082015250565b6000615e70603483613ea4565b9150615e7b82615e14565b604082019050919050565b60006020820190508181036000830152615e9f81615e63565b9050919050565b7f455243313135353a204552433131353552656365697665722072656a6563746560008201527f6420746f6b656e73000000000000000000000000000000000000000000000000602082015250565b6000615f02602883613ea4565b9150615f0d82615ea6565b604082019050919050565b60006020820190508181036000830152615f3181615ef5565b9050919050565b600060a082019050615f4d6000830188614bef565b615f5a6020830187614bef565b8181036040830152615f6c81866143de565b90508181036060830152615f8081856143de565b90508181036080830152615f9481846151c8565b90509695505050505050565b6000615fab82613a11565b9150615fb683613a11565b925082821015615fc957615fc8614b77565b5b82820390509291505056fea2646970667358221220d3ade808b872b12deef2b4fa89c2e5b4fed66a299063fa5608508b3ff911750864736f6c634300080a0033",
  "immutableReferences": {},
  "source": "// SPDX-License-Identifier: MIT\r\npragma solidity ^0.8.2;\r\n\r\nimport \"@openzeppelin/contracts/token/ERC1155/ERC1155.sol\";\r\nimport \"@openzeppelin/contracts/access/AccessControl.sol\";\r\nimport \"@openzeppelin/contracts/token/ERC1155/extensions/ERC1155Supply.sol\";\r\nimport \"@openzeppelin/contracts/token/ERC1155/extensions/ERC1155Burnable.sol\";\r\n\r\n/// @custom:security-contact adityapatkar22@gmail.com, archeelparekh11@gmail.com\r\ncontract MyToken is ERC1155, AccessControl, ERC1155Supply, ERC1155Burnable {\r\n    bytes32 public constant URI_SETTER_ROLE = keccak256(\"URI_SETTER_ROLE\");\r\n\r\n    struct Token {\r\n        address payable tokenAdmin;\r\n        uint256 rate;\r\n    }\r\n    uint256 _currentTokenIndex = 0;\r\n    Token[] _tokens;\r\n    address[] private _tokenHolders;\r\n    mapping(address => bool) _tokenHoldersMapping;\r\n\r\n    struct Poll {\r\n        string question;\r\n        string[] options;\r\n        uint256[] votes;\r\n    }\r\n    mapping(uint256 => Poll[]) pollsMapping;\r\n    mapping(uint256 => mapping(uint256 => mapping(address => bool))) votedMapping;\r\n\r\n    event AddNewToken(\r\n        address tokenAdmin,\r\n        uint256 tokenID,\r\n        uint256 amount,\r\n        uint256 rate\r\n    );\r\n    event BuyToken(\r\n        address tokenAdmin,\r\n        address buyer,\r\n        uint256 tokenID,\r\n        uint256 amount,\r\n        bytes data\r\n    );\r\n    event Disburse(\r\n        address tokenAdmin,\r\n        address holder,\r\n        uint256 tokenID,\r\n        bool success,\r\n        bytes data,\r\n        uint256 amount\r\n    );\r\n    event CreatePoll(address tokenAdmin, uint256 tokenID, Poll[] polls);\r\n    event Vote(address Voter, uint256 tokenID, uint256 pollID, uint256 weight);\r\n\r\n    modifier tokenExists(uint256 tokenID) {\r\n        require(\r\n            _tokens[tokenID].tokenAdmin != address(0),\r\n            \"Token Does Not Exist\"\r\n        );\r\n        _;\r\n    }\r\n\r\n    modifier isTokenAdmin(uint256 tokenID) {\r\n        require(_tokens[tokenID].tokenAdmin == msg.sender, \"Not Token Admin\");\r\n        _;\r\n    }\r\n\r\n    modifier notVoted(uint256 tokenID, uint256 pollID) {\r\n        require(!votedMapping[tokenID][pollID][msg.sender], \"Already voted\");\r\n        _;\r\n    }\r\n\r\n    constructor() ERC1155(\"\") {\r\n        _grantRole(DEFAULT_ADMIN_ROLE, msg.sender);\r\n        _grantRole(URI_SETTER_ROLE, msg.sender);\r\n    }\r\n\r\n    function setURI(string memory newuri) public onlyRole(URI_SETTER_ROLE) {\r\n        _setURI(newuri);\r\n    }\r\n\r\n    // Adding a new token\r\n    function addNewToken(\r\n        address payable tokenAdmin,\r\n        uint256 amount,\r\n        uint256 rate\r\n    ) public onlyRole(DEFAULT_ADMIN_ROLE) {\r\n        _tokens.push(Token(tokenAdmin, rate));\r\n        _mint(tokenAdmin, _currentTokenIndex, amount, \"\");\r\n        emit AddNewToken(tokenAdmin, _currentTokenIndex, amount, rate);\r\n        _currentTokenIndex += 1;\r\n    }\r\n\r\n    // Buying a new token\r\n    function buyToken(uint256 tokenID) public payable tokenExists(tokenID) {\r\n        (bool success, bytes memory data) = _tokens[tokenID].tokenAdmin.call{\r\n            value: msg.value\r\n        }(\"\");\r\n        require(success, \"Transaction failed!\");\r\n        uint256 amount = msg.value / _tokens[tokenID].rate;\r\n        _safeTransferFrom(\r\n            _tokens[tokenID].tokenAdmin,\r\n            msg.sender,\r\n            tokenID,\r\n            amount,\r\n            data\r\n        );\r\n        emit BuyToken(\r\n            _tokens[tokenID].tokenAdmin,\r\n            msg.sender,\r\n            tokenID,\r\n            amount,\r\n            data\r\n        );\r\n    }\r\n\r\n    // Disburse to holders\r\n    function disburse(uint256 tokenID) public payable isTokenAdmin(tokenID) {\r\n        for (uint256 i = 0; i < _tokenHolders.length; i++) {\r\n            uint256 amount = (balanceOf(_tokenHolders[i], tokenID) *\r\n                msg.value) / totalSupply(tokenID);\r\n            (bool success, bytes memory data) = _tokenHolders[i].call{\r\n                value: amount\r\n            }(\"\");\r\n            emit Disburse(\r\n                _tokens[tokenID].tokenAdmin,\r\n                _tokenHolders[i],\r\n                tokenID,\r\n                success,\r\n                data,\r\n                amount\r\n            );\r\n        }\r\n    }\r\n\r\n    // Create a poll\r\n    function createPoll(\r\n        uint256 tokenID,\r\n        string memory question,\r\n        string[] memory options\r\n    ) public isTokenAdmin(tokenID) {\r\n        uint256[] memory newVotes = new uint256[](options.length);\r\n        for (uint256 i = 0; i < options.length; i++) {\r\n            newVotes[i] = 0;\r\n        }\r\n        pollsMapping[tokenID].push(Poll(question, options, newVotes));\r\n        emit CreatePoll(msg.sender, tokenID, pollsMapping[tokenID]);\r\n    }\r\n\r\n    // Get all polls\r\n    function getPolls(uint256 tokenID) public view returns(Poll[] memory,uint256[] memory,uint256[] memory) {\r\n        Poll[] memory allPolls = pollsMapping[tokenID]; \r\n        uint256[] memory answers = new uint256[](allPolls.length);\r\n        uint256[] memory numberOfVotes = new uint256[](allPolls.length); \r\n        for(uint256 pollID=0;pollID<allPolls.length;pollID++){\r\n            uint256[] memory votesArray = pollsMapping[tokenID][pollID].votes;\r\n            uint256 largest = 0;\r\n            uint256 option = 0; \r\n\r\n            for(uint256 i = 0; i < votesArray.length; i++){\r\n                if(votesArray[i] > largest) {\r\n                    largest = votesArray[i]; \r\n                    option = i;\r\n                } \r\n            }\r\n            answers[pollID] = option;\r\n            numberOfVotes[pollID] = largest;\r\n        }\r\n        return (allPolls,answers,numberOfVotes);\r\n    }\r\n\r\n    // Vote on a poll\r\n    function vote(\r\n        uint256 tokenID,\r\n        uint256 pollID,\r\n        uint256 option\r\n    ) public notVoted(tokenID, pollID) {\r\n        uint256 balance = balanceOf(msg.sender, tokenID);\r\n        pollsMapping[tokenID][pollID].votes[option] += balance;\r\n        votedMapping[tokenID][pollID][msg.sender] = true;\r\n        emit Vote(msg.sender, tokenID, pollID, balance);\r\n    }\r\n\r\n\r\n    // The following functions are overrides required by Solidity.\r\n    function _beforeTokenTransfer(\r\n        address operator,\r\n        address from,\r\n        address to,\r\n        uint256[] memory ids,\r\n        uint256[] memory amounts,\r\n        bytes memory data\r\n    ) internal override(ERC1155, ERC1155Supply) {\r\n        if (!_tokenHoldersMapping[to]) {\r\n            _tokenHolders.push(to);\r\n            _tokenHoldersMapping[to] = true;\r\n        }\r\n        super._beforeTokenTransfer(operator, from, to, ids, amounts, data);\r\n    }\r\n\r\n    function supportsInterface(bytes4 interfaceId)\r\n        public\r\n        view\r\n        override(ERC1155, AccessControl)\r\n        returns (bool)\r\n    {\r\n        return super.supportsInterface(interfaceId);\r\n    }\r\n}\r\n",
  "sourcePath": "X:\\Sem 7\\FYP\\Final-Year-Project\\SmartContracts\\contracts\\MyToken.sol",
  "compiler": {
    "name": "solc",
    "version": "0.8.10+commit.fc410830.Emscripten.clang"
  },
  "schemaVersion": "3.4.3",
  "updatedAt": "2021-12-14T08:04:00.817Z",
  "devdoc": {
    "custom:security-contact": "adityapatkar22@gmail.com, archeelparekh11@gmail.com",
    "kind": "dev",
    "methods": {
      "balanceOf(address,uint256)": {
        "details": "See {IERC1155-balanceOf}. Requirements: - `account` cannot be the zero address."
      },
      "balanceOfBatch(address[],uint256[])": {
        "details": "See {IERC1155-balanceOfBatch}. Requirements: - `accounts` and `ids` must have the same length."
      },
      "exists(uint256)": {
        "details": "Indicates whether any token exist with a given id, or not."
      },
      "getRoleAdmin(bytes32)": {
        "details": "Returns the admin role that controls `role`. See {grantRole} and {revokeRole}. To change a role's admin, use {_setRoleAdmin}."
      },
      "grantRole(bytes32,address)": {
        "details": "Grants `role` to `account`. If `account` had not been already granted `role`, emits a {RoleGranted} event. Requirements: - the caller must have ``role``'s admin role."
      },
      "hasRole(bytes32,address)": {
        "details": "Returns `true` if `account` has been granted `role`."
      },
      "isApprovedForAll(address,address)": {
        "details": "See {IERC1155-isApprovedForAll}."
      },
      "renounceRole(bytes32,address)": {
        "details": "Revokes `role` from the calling account. Roles are often managed via {grantRole} and {revokeRole}: this function's purpose is to provide a mechanism for accounts to lose their privileges if they are compromised (such as when a trusted device is misplaced). If the calling account had been revoked `role`, emits a {RoleRevoked} event. Requirements: - the caller must be `account`."
      },
      "revokeRole(bytes32,address)": {
        "details": "Revokes `role` from `account`. If `account` had been granted `role`, emits a {RoleRevoked} event. Requirements: - the caller must have ``role``'s admin role."
      },
      "safeBatchTransferFrom(address,address,uint256[],uint256[],bytes)": {
        "details": "See {IERC1155-safeBatchTransferFrom}."
      },
      "safeTransferFrom(address,address,uint256,uint256,bytes)": {
        "details": "See {IERC1155-safeTransferFrom}."
      },
      "setApprovalForAll(address,bool)": {
        "details": "See {IERC1155-setApprovalForAll}."
      },
      "totalSupply(uint256)": {
        "details": "Total amount of tokens in with a given id."
      },
      "uri(uint256)": {
        "details": "See {IERC1155MetadataURI-uri}. This implementation returns the same URI for *all* token types. It relies on the token type ID substitution mechanism https://eips.ethereum.org/EIPS/eip-1155#metadata[defined in the EIP]. Clients calling this function must replace the `\\{id\\}` substring with the actual token type ID."
      }
    },
    "version": 1
  },
  "userdoc": {
    "kind": "user",
    "methods": {},
    "version": 1
  }
}